{
  "contractName": "MultisigRDA",
  "abi": [
    {
      "inputs": [
        {
          "internalType": "address",
          "name": "tenant",
          "type": "address"
        },
        {
          "internalType": "address",
          "name": "landlord",
          "type": "address"
        },
        {
          "internalType": "address",
          "name": "trustee",
          "type": "address"
        },
        {
          "internalType": "uint256",
          "name": "_trusteeFee",
          "type": "uint256"
        }
      ],
      "stateMutability": "nonpayable",
      "type": "constructor"
    },
    {
      "anonymous": false,
      "inputs": [
        {
          "indexed": true,
          "internalType": "address",
          "name": "sender",
          "type": "address"
        },
        {
          "indexed": true,
          "internalType": "uint256",
          "name": "txnId",
          "type": "uint256"
        }
      ],
      "name": "Confirmation",
      "type": "event"
    },
    {
      "anonymous": false,
      "inputs": [
        {
          "indexed": true,
          "internalType": "uint256",
          "name": "txnId",
          "type": "uint256"
        }
      ],
      "name": "Execution",
      "type": "event"
    },
    {
      "anonymous": false,
      "inputs": [
        {
          "indexed": true,
          "internalType": "uint256",
          "name": "txnId",
          "type": "uint256"
        }
      ],
      "name": "ExecutionFailure",
      "type": "event"
    },
    {
      "anonymous": false,
      "inputs": [
        {
          "indexed": true,
          "internalType": "address",
          "name": "sender",
          "type": "address"
        },
        {
          "indexed": true,
          "internalType": "uint256",
          "name": "txnId",
          "type": "uint256"
        }
      ],
      "name": "Revocation",
      "type": "event"
    },
    {
      "anonymous": false,
      "inputs": [
        {
          "indexed": true,
          "internalType": "uint256",
          "name": "txnId",
          "type": "uint256"
        }
      ],
      "name": "Submission",
      "type": "event"
    },
    {
      "anonymous": false,
      "inputs": [
        {
          "indexed": true,
          "internalType": "address",
          "name": "initiator",
          "type": "address"
        },
        {
          "indexed": true,
          "internalType": "address",
          "name": "receiver",
          "type": "address"
        },
        {
          "indexed": false,
          "internalType": "uint256",
          "name": "value",
          "type": "uint256"
        }
      ],
      "name": "Withdrawal",
      "type": "event"
    },
    {
      "inputs": [
        {
          "internalType": "uint256",
          "name": "",
          "type": "uint256"
        },
        {
          "internalType": "address",
          "name": "",
          "type": "address"
        }
      ],
      "name": "confirmations",
      "outputs": [
        {
          "internalType": "bool",
          "name": "",
          "type": "bool"
        }
      ],
      "stateMutability": "view",
      "type": "function",
      "constant": true
    },
    {
      "inputs": [],
      "name": "daiJoin",
      "outputs": [
        {
          "internalType": "contract JoinLike",
          "name": "",
          "type": "address"
        }
      ],
      "stateMutability": "view",
      "type": "function",
      "constant": true
    },
    {
      "inputs": [],
      "name": "daiToken",
      "outputs": [
        {
          "internalType": "contract GemLike",
          "name": "",
          "type": "address"
        }
      ],
      "stateMutability": "view",
      "type": "function",
      "constant": true
    },
    {
      "inputs": [],
      "name": "deposit",
      "outputs": [
        {
          "internalType": "uint256",
          "name": "",
          "type": "uint256"
        }
      ],
      "stateMutability": "view",
      "type": "function",
      "constant": true
    },
    {
      "inputs": [
        {
          "internalType": "uint256",
          "name": "",
          "type": "uint256"
        }
      ],
      "name": "documents",
      "outputs": [
        {
          "internalType": "bytes32",
          "name": "name",
          "type": "bytes32"
        },
        {
          "internalType": "bytes32",
          "name": "hash",
          "type": "bytes32"
        }
      ],
      "stateMutability": "view",
      "type": "function",
      "constant": true
    },
    {
      "inputs": [],
      "name": "dsrBalance",
      "outputs": [
        {
          "internalType": "uint256",
          "name": "",
          "type": "uint256"
        }
      ],
      "stateMutability": "view",
      "type": "function",
      "constant": true
    },
    {
      "inputs": [
        {
          "internalType": "address",
          "name": "",
          "type": "address"
        }
      ],
      "name": "isParticipant",
      "outputs": [
        {
          "internalType": "bool",
          "name": "",
          "type": "bool"
        }
      ],
      "stateMutability": "view",
      "type": "function",
      "constant": true
    },
    {
      "inputs": [],
      "name": "landlordDamagePaid",
      "outputs": [
        {
          "internalType": "uint256",
          "name": "",
          "type": "uint256"
        }
      ],
      "stateMutability": "view",
      "type": "function",
      "constant": true
    },
    {
      "inputs": [
        {
          "internalType": "uint256",
          "name": "",
          "type": "uint256"
        }
      ],
      "name": "participants",
      "outputs": [
        {
          "internalType": "address",
          "name": "",
          "type": "address"
        }
      ],
      "stateMutability": "view",
      "type": "function",
      "constant": true
    },
    {
      "inputs": [],
      "name": "pot",
      "outputs": [
        {
          "internalType": "contract PotLike",
          "name": "",
          "type": "address"
        }
      ],
      "stateMutability": "view",
      "type": "function",
      "constant": true
    },
    {
      "inputs": [
        {
          "internalType": "uint256",
          "name": "",
          "type": "uint256"
        }
      ],
      "name": "transactions",
      "outputs": [
        {
          "internalType": "address",
          "name": "owner",
          "type": "address"
        },
        {
          "internalType": "enum MultisigRDA.TransactionType",
          "name": "txnType",
          "type": "uint8"
        },
        {
          "internalType": "address",
          "name": "dest",
          "type": "address"
        },
        {
          "internalType": "bool",
          "name": "executed",
          "type": "bool"
        },
        {
          "internalType": "uint256",
          "name": "value",
          "type": "uint256"
        }
      ],
      "stateMutability": "view",
      "type": "function",
      "constant": true
    },
    {
      "inputs": [],
      "name": "trusteeFee",
      "outputs": [
        {
          "internalType": "uint256",
          "name": "",
          "type": "uint256"
        }
      ],
      "stateMutability": "view",
      "type": "function",
      "constant": true
    },
    {
      "inputs": [],
      "name": "trusteeFeePaid",
      "outputs": [
        {
          "internalType": "uint256",
          "name": "",
          "type": "uint256"
        }
      ],
      "stateMutability": "view",
      "type": "function",
      "constant": true
    },
    {
      "inputs": [],
      "name": "txnCount",
      "outputs": [
        {
          "internalType": "uint256",
          "name": "",
          "type": "uint256"
        }
      ],
      "stateMutability": "view",
      "type": "function",
      "constant": true
    },
    {
      "inputs": [],
      "name": "vat",
      "outputs": [
        {
          "internalType": "contract VatLike",
          "name": "",
          "type": "address"
        }
      ],
      "stateMutability": "view",
      "type": "function",
      "constant": true
    },
    {
      "inputs": [],
      "name": "start",
      "outputs": [],
      "stateMutability": "nonpayable",
      "type": "function"
    },
    {
      "inputs": [],
      "name": "submitTransactionReturnDeposit",
      "outputs": [
        {
          "internalType": "uint256",
          "name": "txnId",
          "type": "uint256"
        }
      ],
      "stateMutability": "nonpayable",
      "type": "function"
    },
    {
      "inputs": [
        {
          "internalType": "uint256",
          "name": "value",
          "type": "uint256"
        }
      ],
      "name": "submitTransactionPayDamages",
      "outputs": [
        {
          "internalType": "uint256",
          "name": "txnId",
          "type": "uint256"
        }
      ],
      "stateMutability": "nonpayable",
      "type": "function"
    },
    {
      "inputs": [
        {
          "internalType": "address",
          "name": "dest",
          "type": "address"
        }
      ],
      "name": "submitTransactionMigrate",
      "outputs": [
        {
          "internalType": "uint256",
          "name": "txnId",
          "type": "uint256"
        }
      ],
      "stateMutability": "nonpayable",
      "type": "function"
    },
    {
      "inputs": [
        {
          "internalType": "bytes32",
          "name": "name",
          "type": "bytes32"
        },
        {
          "internalType": "bytes32",
          "name": "hash",
          "type": "bytes32"
        }
      ],
      "name": "submitTransactionDocument",
      "outputs": [
        {
          "internalType": "uint256",
          "name": "txnId",
          "type": "uint256"
        }
      ],
      "stateMutability": "nonpayable",
      "type": "function"
    },
    {
      "inputs": [
        {
          "internalType": "uint256",
          "name": "txnId",
          "type": "uint256"
        }
      ],
      "name": "confirmTransaction",
      "outputs": [],
      "stateMutability": "nonpayable",
      "type": "function"
    },
    {
      "inputs": [
        {
          "internalType": "uint256",
          "name": "txnId",
          "type": "uint256"
        }
      ],
      "name": "revokeConfirmation",
      "outputs": [],
      "stateMutability": "nonpayable",
      "type": "function"
    },
    {
      "inputs": [
        {
          "internalType": "uint256",
          "name": "txnId",
          "type": "uint256"
        }
      ],
      "name": "executeTransaction",
      "outputs": [],
      "stateMutability": "nonpayable",
      "type": "function"
    },
    {
      "inputs": [],
      "name": "withdrawInterest",
      "outputs": [],
      "stateMutability": "nonpayable",
      "type": "function"
    },
    {
      "inputs": [],
      "name": "withdrawTrusteeFee",
      "outputs": [],
      "stateMutability": "nonpayable",
      "type": "function"
    },
    {
      "inputs": [
        {
          "internalType": "uint256",
          "name": "txnId",
          "type": "uint256"
        }
      ],
      "name": "isConfirmed",
      "outputs": [
        {
          "internalType": "bool",
          "name": "",
          "type": "bool"
        }
      ],
      "stateMutability": "view",
      "type": "function",
      "constant": true
    },
    {
      "inputs": [],
      "name": "getTenant",
      "outputs": [
        {
          "internalType": "address",
          "name": "",
          "type": "address"
        }
      ],
      "stateMutability": "view",
      "type": "function",
      "constant": true
    },
    {
      "inputs": [],
      "name": "getLandlord",
      "outputs": [
        {
          "internalType": "address",
          "name": "",
          "type": "address"
        }
      ],
      "stateMutability": "view",
      "type": "function",
      "constant": true
    },
    {
      "inputs": [],
      "name": "getTrustee",
      "outputs": [
        {
          "internalType": "address",
          "name": "",
          "type": "address"
        }
      ],
      "stateMutability": "view",
      "type": "function",
      "constant": true
    },
    {
      "inputs": [],
      "name": "getParticipants",
      "outputs": [
        {
          "internalType": "address[]",
          "name": "participantsArr",
          "type": "address[]"
        }
      ],
      "stateMutability": "view",
      "type": "function",
      "constant": true
    },
    {
      "inputs": [
        {
          "internalType": "uint256",
          "name": "txnId",
          "type": "uint256"
        }
      ],
      "name": "getTransactionInfo",
      "outputs": [
        {
          "internalType": "address",
          "name": "owner",
          "type": "address"
        },
        {
          "internalType": "enum MultisigRDA.TransactionType",
          "name": "txnType",
          "type": "uint8"
        },
        {
          "internalType": "address",
          "name": "dest",
          "type": "address"
        },
        {
          "internalType": "bool",
          "name": "executed",
          "type": "bool"
        },
        {
          "internalType": "uint256",
          "name": "value",
          "type": "uint256"
        },
        {
          "internalType": "bool[]",
          "name": "confirmationStatus",
          "type": "bool[]"
        },
        {
          "internalType": "bytes32",
          "name": "name",
          "type": "bytes32"
        },
        {
          "internalType": "bytes32",
          "name": "hash",
          "type": "bytes32"
        }
      ],
      "stateMutability": "view",
      "type": "function",
      "constant": true
    },
    {
      "inputs": [
        {
          "internalType": "bool",
          "name": "pending",
          "type": "bool"
        },
        {
          "internalType": "bool",
          "name": "executed",
          "type": "bool"
        }
      ],
      "name": "getTransactionIds",
      "outputs": [
        {
          "internalType": "uint256[]",
          "name": "txnIds",
          "type": "uint256[]"
        }
      ],
      "stateMutability": "view",
      "type": "function",
      "constant": true
    }
  ],
  "bytecode": "0x6080604052600080547411c8d156e1b5fd883e31e9091874f2af80b0277500610100600160a81b0319909116179055600180546001600160a01b03199081167319e602e0dc93749ea7afa0c88f4693d4c02102d317909155600280548216738c4be23de45f82a4fec7a93f69929bd2a13a477717905560038054909116738d68d36d45a34a6ff368069bd0baa32ad49a6092179055348015620000a157600080fd5b506040516200340f3803806200340f83398181016040526080811015620000c757600080fd5b50805160208201516040830151606090930151919290916001600160a01b03841615801590620000ff57506001600160a01b03831615155b80156200011457506001600160a01b03821615155b6200015a576040805162461bcd60e51b81526020600482015260116024820152705244412f656d7074792d6164647265737360781b604482015290519081900360640190fd5b826001600160a01b0316846001600160a01b0316141580156200018f5750816001600160a01b0316846001600160a01b031614155b8015620001ae5750816001600160a01b0316836001600160a01b031614155b62000200576040805162461bcd60e51b815260206004820152601760248201527f5244412f6475706c69636174652d616464726573736573000000000000000000604482015290519081900360640190fd5b604080516060810182526001600160a01b03808716825285811660208301528416918101919091526200023890600b9060036200028d565b506001600160a01b039384166000908152600e60205260408082208054600160ff1991821681179092559587168352818320805487168217905593909516815293909320805490921617905560045562000314565b8260038101928215620002d8579160200282015b82811115620002d857825182546001600160a01b0319166001600160a01b03909116178255602090920191600190910190620002a1565b50620002e6929150620002ea565b5090565b6200031191905b80821115620002e65780546001600160a01b0319168155600101620002f1565b90565b6130eb80620003246000396000f3fe608060405234801561001057600080fd5b50600436106101ef5760003560e01c80639de5dcd61161010f578063e3e9971c116100a2578063ee22610b11610071578063ee22610b146105d4578063f502236d146105f1578063f7e7d35a146105f9578063f92e88ca14610601576101ef565b8063e3e9971c14610581578063ea265d551461059e578063eb42013c146105a6578063ec75cf29146105ae576101ef565b8063c11645bc116100de578063c11645bc1461046c578063c2ed2b0514610474578063d0e30db0146104aa578063d7aa8273146104b2576101ef565b80639de5dcd614610418578063be22f5461461043f578063be9a655514610447578063c01a8c841461044f576101ef565b80634ba2363a1161018757806378ce13651161015657806378ce136514610366578063929066f51461036e57806395bbc104146103945780639ace38c21461039c576101ef565b80634ba2363a146102e15780635aa68ac0146102e95780636216b6e314610341578063784547a714610349576101ef565b80633411c81c116101c35780633411c81c14610274578063357c016a146102b457806335c1d349146102bc57806336569e77146102d9576101ef565b806263750c146101f45780630b3bb024146101fe578063199a889a1461022257806320ea8d8614610257575b600080fd5b6101fc610609565b005b610206610961565b604080516001600160a01b039092168252519081900360200190f35b6102456004803603604081101561023857600080fd5b5080359060200135610977565b60408051918252519081900360200190f35b6101fc6004803603602081101561026d57600080fd5b5035610a0d565b6102a06004803603604081101561028a57600080fd5b50803590602001356001600160a01b0316610c4d565b604080519115158252519081900360200190f35b610245610c6d565b610206600480360360208110156102d257600080fd5b5035610d88565b610206610da5565b610206610db9565b6102f1610dc8565b60408051602080825283518183015283519192839290830191858101910280838360005b8381101561032d578181015183820152602001610315565b505050509050019250505060405180910390f35b610206610e43565b6102a06004803603602081101561035f57600080fd5b5035610e4e565b61024561108d565b6102a06004803603602081101561038457600080fd5b50356001600160a01b0316611093565b6102456110a8565b6103b9600480360360208110156103b257600080fd5b50356110ae565b6040516001600160a01b0386168152602081018560038111156103d857fe5b60ff168152602001846001600160a01b03166001600160a01b03168152602001831515151581526020018281526020019550505050505060405180910390f35b6102f16004803603604081101561042e57600080fd5b5080351515906020013515156110f0565b610206611224565b6101fc611233565b6101fc6004803603602081101561046557600080fd5b50356113c0565b61020661158f565b6104916004803603602081101561048a57600080fd5b503561159e565b6040805192835260208301919091528051918290030190f35b6102456115b7565b6104cf600480360360208110156104c857600080fd5b50356115bd565b6040516001600160a01b0389168152602081018860038111156104ee57fe5b60ff168152602001876001600160a01b03166001600160a01b031681526020018615151515815260200185815260200180602001848152602001838152602001828103825285818151815260200191508051906020019060200280838360005b8381101561056657818101518382015260200161054e565b50505050905001995050505050505050505060405180910390f35b6102456004803603602081101561059757600080fd5b50356117b4565b610245611866565b610245611917565b610245600480360360208110156105c457600080fd5b50356001600160a01b031661191d565b6101fc600480360360208110156105ea57600080fd5b5035611980565b610206611cb0565b610245611cbb565b6101fc611cc1565b336000908152600e602052604090205460ff1661065f576040805162461bcd60e51b815260206004820152600f60248201526e1491104bdb9bdd0b585b1b1bddd959608a1b604482015290519081900360640190fd5b6000600754116106a7576040805162461bcd60e51b815260206004820152600e60248201526d5244412f6e6f742d61637469766560901b604482015290519081900360640190fd5b600160009054906101000a90046001600160a01b03166001600160a01b03166320aba08b6040518163ffffffff1660e01b815260040160206040518083038186803b1580156106f557600080fd5b505afa158015610709573d6000803e3d6000fd5b505050506040513d602081101561071f57600080fd5b50514211156107a557600160009054906101000a90046001600160a01b03166001600160a01b0316639f678cca6040518163ffffffff1660e01b8152600401602060405180830381600087803b15801561077857600080fd5b505af115801561078c573d6000803e3d6000fd5b505050506040513d60208110156107a257600080fd5b50505b600354604080516370a0823160e01b815230600482015290516000926001600160a01b0316916370a0823191602480830192602092919082900301818787803b1580156107f157600080fd5b505af1158015610805573d6000803e3d6000fd5b505050506040513d602081101561081b57600080fd5b505160075460045460055492935060009261084d92610845929091610840919061205d565b61206d565b60065461205d565b9050600061085d83610840610c6d565b90508181111561095c578181038381111561087f5761087d84820361207d565b505b6003546001600160a01b031663a9059cbb610898610961565b836040518363ffffffff1660e01b815260040180836001600160a01b03166001600160a01b0316815260200182815260200192505050602060405180830381600087803b1580156108e857600080fd5b505af11580156108fc573d6000803e3d6000fd5b505050506040513d602081101561091257600080fd5b50511561095a57610921610961565b6001600160a01b0316336001600160a01b0316600080516020613096833981519152836040518082815260200191505060405180910390a35b505b505050565b6000600b815b01546001600160a01b0316905090565b336000908152600e602052604081205460ff166109cd576040805162461bcd60e51b815260206004820152600f60248201526e1491104bdb9bdd0b585b1b1bddd959608a1b604482015290519081900360640190fd5b6109da6003600080612328565b60408051808201825294855260208086019485526000838152600990915220935184559151600190930192909255919050565b336000908152600e602052604090205460ff16610a63576040805162461bcd60e51b815260206004820152600f60248201526e1491104bdb9bdd0b585b1b1bddd959608a1b604482015290519081900360640190fd5b806003600082815260086020526040902054600160a01b900460ff166003811115610a8a57fe5b1415610ad3576040805162461bcd60e51b81526020600482015260136024820152725244412f696c6c6567616c2d666f722d646f6360681b604482015290519081900360640190fd5b60008281526008602052604090205482906001600160a01b0316610b30576040805162461bcd60e51b815260206004820152600f60248201526e1491104bdd1e1b8b5a5b9d985b1a59608a1b604482015290519081900360640190fd5b6000838152600a602090815260408083203380855292529091205484919060ff16610b9a576040805162461bcd60e51b81526020600482015260156024820152741491104bdd1e1b8b5b9bdd0b58dbdb999a5c9b5959605a1b604482015290519081900360640190fd5b6000858152600860205260409020600101548590600160a01b900460ff1615610bfd576040805162461bcd60e51b815260206004820152601060248201526f1491104bdd1e1b8b595e1958dd5d195960821b604482015290519081900360640190fd5b6000868152600a60209081526040808320338085529252808320805460ff191690555188927ff6a317157440607f36269043eb55f1287a5a19ba2216afeab88cd46cbcfb88e991a3505050505050565b600a60209081526000928352604080842090915290825290205460ff1681565b600154604080516305f5d64360e11b8152306004820152905160009283926001600160a01b0390911691630bebac8691602480820192602092909190829003018186803b158015610cbd57600080fd5b505afa158015610cd1573d6000803e3d6000fd5b505050506040513d6020811015610ce757600080fd5b50516001546040805163324abb3160e21b815290519293506000926001600160a01b039092169163c92aecc491600480820192602092909190829003018186803b158015610d3457600080fd5b505afa158015610d48573d6000803e3d6000fd5b505050506040513d6020811015610d5e57600080fd5b505190506b033b2e3c9fd0803ce8000000610d798383612347565b81610d8057fe5b049250505090565b600b8160038110610d9557fe5b01546001600160a01b0316905081565b60005461010090046001600160a01b031681565b6001546001600160a01b031681565b6040805160038082526080820190925260609160208201838036833701905050905060005b6003811015610e3f57600b8160038110610e0357fe5b015482516001600160a01b0390911690839083908110610e1f57fe5b6001600160a01b0390921660209283029190910190910152600101610ded565b5090565b6000600b6002610967565b60008181526008602052604081205482906001600160a01b0316610eab576040805162461bcd60e51b815260206004820152600f60248201526e1491104bdd1e1b8b5a5b9d985b1a59608a1b604482015290519081900360640190fd5b826003600082815260086020526040902054600160a01b900460ff166003811115610ed257fe5b1415610f1b576040805162461bcd60e51b81526020600482015260136024820152725244412f696c6c6567616c2d666f722d646f6360681b604482015290519081900360640190fd5b610f23613065565b600085815260086020908152604091829020825160a0810190935280546001600160a01b03811684529091830190600160a01b900460ff166003811115610f6657fe5b6003811115610f7157fe5b815260018201546001600160a01b0381166020830152600160a01b900460ff161515604082015260029091015460609091015290506000805b6003811015611082576000878152600a6020526040812090600b8360038110610fcf57fe5b01546001600160a01b0316815260208101919091526040016000205460ff1615610ffa576001820191505b6002821061107a5760028360200151600381111561101457fe5b141561106e578060021415611069576000878152600a6020526040812090600b836003811061103f57fe5b01546001600160a01b0316815260208101919091526040016000205460ff16955061108692505050565b61107a565b60019550505050611086565b600101610faa565b5050505b5050919050565b600f5481565b600e6020526000908152604090205460ff1681565b60065481565b6008602052600090815260409020805460018201546002909201546001600160a01b038083169360ff600160a01b948590048116949282169392909104169085565b606080600f5460405190808252806020026020018201604052801561111f578160200160208202803683370190505b5090506000805b600f548110156111ae578580156111565750600081815260086020526040902060010154600160a01b900460ff16155b8061118157508480156111815750600081815260086020526040902060010154600160a01b900460ff165b156111a6578083838151811061119357fe5b6020026020010181815250506001820191505b600101611126565b816040519080825280602002602001820160405280156111d8578160200160208202803683370190505b509350600090505b8181101561121b578281815181106111f457fe5b602002602001015184828151811061120857fe5b60209081029190910101526001016111e0565b50505092915050565b6003546001600160a01b031681565b336000908152600e602052604090205460ff16611289576040805162461bcd60e51b815260206004820152600f60248201526e1491104bdb9bdd0b585b1b1bddd959608a1b604482015290519081900360640190fd5b600754156112d4576040805162461bcd60e51b81526020600482015260136024820152721491104bd85b1c9958591e4b5cdd185c9d1959606a1b604482015290519081900360640190fd5b600354604080516370a0823160e01b815230600482015290516000926001600160a01b0316916370a0823191602480830192602092919082900301818787803b15801561132057600080fd5b505af1158015611334573d6000803e3d6000fd5b505050506040513d602081101561134a57600080fd5b5051905080611393576040805162461bcd60e51b815260206004820152601060248201526f1491104bdb9bcb59185a4b599bdd5b9960821b604482015290519081900360640190fd5b60078190556113a061236b565b15806113b257506113b0816124e6565b155b156113bd5760006007555b50565b336000908152600e602052604090205460ff16611416576040805162461bcd60e51b815260206004820152600f60248201526e1491104bdb9bdd0b585b1b1bddd959608a1b604482015290519081900360640190fd5b60008181526008602052604090205481906001600160a01b0316611473576040805162461bcd60e51b815260206004820152600f60248201526e1491104bdd1e1b8b5a5b9d985b1a59608a1b604482015290519081900360640190fd5b6000828152600a602090815260408083203380855292529091205483919060ff16156114da576040805162461bcd60e51b81526020600482015260116024820152701491104bdd1e1b8b58dbdb999a5c9b5959607a1b604482015290519081900360640190fd5b6000848152600860205260409020600101548490600160a01b900460ff161561153d576040805162461bcd60e51b815260206004820152601060248201526f1491104bdd1e1b8b595e1958dd5d195960821b604482015290519081900360640190fd5b6000858152600a60209081526040808320338085529252808320805460ff191660011790555187927f4a504a94899432a9846e1aa406dceb1bcfd538bb839071d49d1e5e23f5be30ef91a35050505050565b6002546001600160a01b031681565b6009602052600090815260409020805460019091015482565b60075481565b60008181526008602052604081205481908190819081906060908290819089906001600160a01b0316611629576040805162461bcd60e51b815260206004820152600f60248201526e1491104bdd1e1b8b5a5b9d985b1a59608a1b604482015290519081900360640190fd5b611631613065565b60008b815260086020908152604091829020825160a0810190935280546001600160a01b03811684529091830190600160a01b900460ff16600381111561167457fe5b600381111561167f57fe5b815260018201546001600160a01b038116602080840191909152600160a01b90910460ff16151560408084019190915260029093015460609283015283519084015192840151918401516080850151919e50929c50909a50909850965090506003816020015160038111156116f057fe5b14156117125760008b8152600960205260409020805460019091015490945092505b60408051600380825260808201909252906020820160608036833701905050945060005b60038110156117a65760008c8152600a6020526040812090600b836003811061175b57fe5b01546001600160a01b0316815260208101919091526040016000205460ff161561179e57600186828151811061178d57fe5b911515602092830291909101909101525b600101611736565b505050919395975091939597565b600080600754116117fd576040805162461bcd60e51b815260206004820152600e60248201526d5244412f6e6f742d61637469766560901b604482015290519081900360640190fd5b336000908152600e602052604090205460ff16611853576040805162461bcd60e51b815260206004820152600f60248201526e1491104bdb9bdd0b585b1b1bddd959608a1b604482015290519081900360640190fd5b6118606001600084612328565b92915050565b600080600754116118af576040805162461bcd60e51b815260206004820152600e60248201526d5244412f6e6f742d61637469766560901b604482015290519081900360640190fd5b336000908152600e602052604090205460ff16611905576040805162461bcd60e51b815260206004820152600f60248201526e1491104bdb9bdd0b585b1b1bddd959608a1b604482015290519081900360640190fd5b6119126000806000612328565b905090565b60055481565b336000908152600e602052604081205460ff16611973576040805162461bcd60e51b815260206004820152600f60248201526e1491104bdb9bdd0b585b1b1bddd959608a1b604482015290519081900360640190fd5b6118606002836000612328565b336000908152600e602052604090205460ff166119d6576040805162461bcd60e51b815260206004820152600f60248201526e1491104bdb9bdd0b585b1b1bddd959608a1b604482015290519081900360640190fd5b806003600082815260086020526040902054600160a01b900460ff1660038111156119fd57fe5b1415611a46576040805162461bcd60e51b81526020600482015260136024820152725244412f696c6c6567616c2d666f722d646f6360681b604482015290519081900360640190fd5b60008281526008602052604090205482906001600160a01b0316611aa3576040805162461bcd60e51b815260206004820152600f60248201526e1491104bdd1e1b8b5a5b9d985b1a59608a1b604482015290519081900360640190fd5b6000838152600a602090815260408083203380855292529091205484919060ff16611b0d576040805162461bcd60e51b81526020600482015260156024820152741491104bdd1e1b8b5b9bdd0b58dbdb999a5c9b5959605a1b604482015290519081900360640190fd5b6000858152600860205260409020600101548590600160a01b900460ff1615611b70576040805162461bcd60e51b815260206004820152601060248201526f1491104bdd1e1b8b595e1958dd5d195960821b604482015290519081900360640190fd5b611b7986610e4e565b15611ca857600086815260086020526040812060018101805460ff60a01b1916600160a01b17905590808254600160a01b900460ff166003811115611bba57fe5b1415611bcf57611bc861276f565b9050611c34565b60018254600160a01b900460ff166003811115611be857fe5b1415611bfb57611bc882600201546128fb565b60028254600160a01b900460ff166003811115611c1457fe5b1415611c34576001820154611c31906001600160a01b0316612aba565b90505b8015611c6a5760405188907f33e13ecb54c3076d8e8bb8c2881800a4d972b792045ffae98fdf46df365fed7590600090a2611ca5565b60405188907f526441bb6c1aba3c9a4a6ca1d6545da9c2333c8c48343ef398eb858d72b7923690600090a260018201805460ff60a01b191690555b50505b505050505050565b6000600b6001610967565b60045481565b336000908152600e602052604090205460ff16611d17576040805162461bcd60e51b815260206004820152600f60248201526e1491104bdb9bdd0b585b1b1bddd959608a1b604482015290519081900360640190fd5b600060075411611d5f576040805162461bcd60e51b815260206004820152600e60248201526d5244412f6e6f742d61637469766560901b604482015290519081900360640190fd5b600454600554101561205b5760055460048054600354604080516370a0823160e01b815230948101949094525193909103926000926001600160a01b03909216916370a0823191602480830192602092919082900301818787803b158015611dc657600080fd5b505af1158015611dda573d6000803e3d6000fd5b505050506040513d6020811015611df057600080fd5b5051905060008082841115611f3f57600160009054906101000a90046001600160a01b03166001600160a01b03166320aba08b6040518163ffffffff1660e01b815260040160206040518083038186803b158015611e4d57600080fd5b505afa158015611e61573d6000803e3d6000fd5b505050506040513d6020811015611e7757600080fd5b5051421115611efd57600160009054906101000a90046001600160a01b03166001600160a01b0316639f678cca6040518163ffffffff1660e01b8152600401602060405180830381600087803b158015611ed057600080fd5b505af1158015611ee4573d6000803e3d6000fd5b505050506040513d6020811015611efa57600080fd5b50505b8284039150611f0c818461206d565b90506000611f18610c6d565b90506000600754821115611f2d575060075481035b808410611f38578093505b5050611f42565b50825b611f4c818361206d565b9050611f5a8160055461206d565b6005558115611f6e57611f6c8261207d565b505b6003546001600160a01b031663a9059cbb611f87610e43565b836040518363ffffffff1660e01b815260040180836001600160a01b03166001600160a01b0316815260200182815260200192505050602060405180830381600087803b158015611fd757600080fd5b505af1158015611feb573d6000803e3d6000fd5b505050506040513d602081101561200157600080fd5b50511561204d57612010610e43565b6001600160a01b0316336001600160a01b0316600080516020613096833981519152836040518082815260200191505060405180910390a361095a565b600580548290039055505050505b565b8082038281111561186057600080fd5b8082018281101561186057600080fd5b6000805460ff166120ca576040805162461bcd60e51b81526020600482015260126024820152711114d48bdb9bdd0b585d5d1a1bdc9a5e995960721b604482015290519081900360640190fd5b600154604080516320aba08b60e01b815290516000926001600160a01b0316916320aba08b916004808301926020929190829003018186803b15801561210f57600080fd5b505afa158015612123573d6000803e3d6000fd5b505050506040513d602081101561213957600080fd5b505142116121c057600160009054906101000a90046001600160a01b03166001600160a01b031663c92aecc46040518163ffffffff1660e01b815260040160206040518083038186803b15801561218f57600080fd5b505afa1580156121a3573d6000803e3d6000fd5b505050506040513d60208110156121b957600080fd5b505161223d565b600160009054906101000a90046001600160a01b03166001600160a01b0316639f678cca6040518163ffffffff1660e01b8152600401602060405180830381600087803b15801561221057600080fd5b505af1158015612224573d6000803e3d6000fd5b505050506040513d602081101561223a57600080fd5b50515b9050600061224b8483612bc8565b60015460408051637f8661a160e01b81526004810184905290519293506001600160a01b0390911691637f8661a19160248082019260009290919082900301818387803b15801561229b57600080fd5b505af11580156122af573d6000803e3d6000fd5b50506002546040805163ef693bed60e01b81523060048201526024810189905290516001600160a01b03909216935063ef693bed925060448082019260009290919082900301818387803b15801561230657600080fd5b505af115801561231a573d6000803e3d6000fd5b506001979650505050505050565b6000612335848484612bfe565b9050612340816113c0565b9392505050565b60008115806123625750508082028282828161235f57fe5b04145b61186057600080fd5b6000805460ff166124e05760008054600154604080516328ec8bf160e21b81526001600160a01b03928316600482015290516101009093049091169263a3b22fc49260248084019382900301818387803b1580156123c857600080fd5b505af11580156123dc573d6000803e3d6000fd5b505060008054600254604080516328ec8bf160e21b81526001600160a01b0392831660048201529051610100909304909116945063a3b22fc49350602480820193929182900301818387803b15801561243457600080fd5b505af1158015612448573d6000803e3d6000fd5b50506003546002546040805163095ea7b360e01b81526001600160a01b0392831660048201526000196024820152905191909216935063095ea7b3925060448083019260209291908290030181600087803b1580156124a657600080fd5b505af11580156124ba573d6000803e3d6000fd5b505050506040513d60208110156124d057600080fd5b50506000805460ff191660011790555b50600190565b6000805460ff16612533576040805162461bcd60e51b81526020600482015260126024820152711114d48bdb9bdd0b585d5d1a1bdc9a5e995960721b604482015290519081900360640190fd5b600154604080516320aba08b60e01b815290516000926001600160a01b0316916320aba08b916004808301926020929190829003018186803b15801561257857600080fd5b505afa15801561258c573d6000803e3d6000fd5b505050506040513d60208110156125a257600080fd5b5051421161262957600160009054906101000a90046001600160a01b03166001600160a01b031663c92aecc46040518163ffffffff1660e01b815260040160206040518083038186803b1580156125f857600080fd5b505afa15801561260c573d6000803e3d6000fd5b505050506040513d602081101561262257600080fd5b50516126a6565b600160009054906101000a90046001600160a01b03166001600160a01b0316639f678cca6040518163ffffffff1660e01b8152600401602060405180830381600087803b15801561267957600080fd5b505af115801561268d573d6000803e3d6000fd5b505050506040513d60208110156126a357600080fd5b50515b905060006126b48483612d1d565b60025460408051633b4da69f60e01b81523060048201526024810188905290519293506001600160a01b0390911691633b4da69f9160448082019260009290919082900301818387803b15801561270a57600080fd5b505af115801561271e573d6000803e3d6000fd5b50506001546040805163049878f360e01b81526004810186905290516001600160a01b03909216935063049878f3925060248082019260009290919082900301818387803b15801561230657600080fd5b600060019050600061278560045460055461205d565b905061278f612d36565b50600354604080516370a0823160e01b815230600482015290516000926001600160a01b0316916370a0823191602480830192602092919082900301818787803b1580156127dc57600080fd5b505af11580156127f0573d6000803e3d6000fd5b505050506040513d602081101561280657600080fd5b50519050818111156128f657600354828203906001600160a01b031663a9059cbb61282f610961565b836040518363ffffffff1660e01b815260040180836001600160a01b03166001600160a01b0316815260200182815260200192505050602060405180830381600087803b15801561287f57600080fd5b505af1158015612893573d6000803e3d6000fd5b505050506040513d60208110156128a957600080fd5b5051935083156128f4576128bb610961565b6001600160a01b0316336001600160a01b0316600080516020613096833981519152836040518082815260200191505060405180910390a35b505b505090565b600060019050600061291160075460065461205d565b90508015612ab45782818111156129255750805b600354604080516370a0823160e01b815230600482015290516000926001600160a01b0316916370a0823191602480830192602092919082900301818787803b15801561297157600080fd5b505af1158015612985573d6000803e3d6000fd5b505050506040513d602081101561299b57600080fd5b50516006549091506129ad908361206d565b600655808211156129c5576129c381830361207d565b505b6003546001600160a01b031663a9059cbb6129de611cb0565b846040518363ffffffff1660e01b815260040180836001600160a01b03166001600160a01b0316815260200182815260200192505050602060405180830381600087803b158015612a2e57600080fd5b505af1158015612a42573d6000803e3d6000fd5b505050506040513d6020811015612a5857600080fd5b505193508315612aa757612a6a611cb0565b6001600160a01b0316336001600160a01b0316600080516020613096833981519152846040518082815260200191505060405180910390a3612ab1565b6006805483900390555b50505b50919050565b6000612ac4612d36565b50600354604080516370a0823160e01b815230600482015290516000926001600160a01b0316916370a0823191602480830192602092919082900301818787803b158015612b1157600080fd5b505af1158015612b25573d6000803e3d6000fd5b505050506040513d6020811015612b3b57600080fd5b50516003546040805163a9059cbb60e01b81526001600160a01b03878116600483015260248201859052915193945091169163a9059cbb916044808201926020929091908290030181600087803b158015612b9557600080fd5b505af1158015612ba9573d6000803e3d6000fd5b505050506040513d6020811015612bbf57600080fd5b50519392505050565b600081612bef612be4856b033b2e3c9fd0803ce8000000612347565b61084085600161205d565b81612bf657fe5b049392505050565b600f546040805160a0810190915233815260208101856003811115612c1f57fe5b81526001600160a01b038581166020808401919091526000604080850182905260609094018790528581526008825292909220835181546001600160a01b031916921691909117808255918301519091829060ff60a01b1916600160a01b836003811115612c8957fe5b02179055506040828101516001808401805460608701511515600160a01b0260ff60a01b196001600160a01b039095166001600160a01b0319909216919091179390931692909217909155608090930151600290920191909155600f80549092019091555181907fc0ba8fe4b176c1714197d43b9cc6bcf797a4a7461c5fe8d0ef6e184ae7601e5190600090a29392505050565b600081612bef846b033b2e3c9fd0803ce8000000612347565b6000805460ff16612d83576040805162461bcd60e51b81526020600482015260126024820152711114d48bdb9bdd0b585d5d1a1bdc9a5e995960721b604482015290519081900360640190fd5b600160009054906101000a90046001600160a01b03166001600160a01b03166320aba08b6040518163ffffffff1660e01b815260040160206040518083038186803b158015612dd157600080fd5b505afa158015612de5573d6000803e3d6000fd5b505050506040513d6020811015612dfb57600080fd5b5051421115612e8157600160009054906101000a90046001600160a01b03166001600160a01b0316639f678cca6040518163ffffffff1660e01b8152600401602060405180830381600087803b158015612e5457600080fd5b505af1158015612e68573d6000803e3d6000fd5b505050506040513d6020811015612e7e57600080fd5b50505b600154604080516305f5d64360e11b815230600482015290516001600160a01b0390921691637f8661a1918391630bebac8691602480820192602092909190829003018186803b158015612ed457600080fd5b505afa158015612ee8573d6000803e3d6000fd5b505050506040513d6020811015612efe57600080fd5b5051604080516001600160e01b031960e085901b168152600481019290925251602480830192600092919082900301818387803b158015612f3e57600080fd5b505af1158015612f52573d6000803e3d6000fd5b505060025460005460408051633612d9a360e11b8152306004820181905291516001600160a01b03948516965063ef693bed955091936b033b2e3c9fd0803ce80000009361010090041691636c25b34691602480820192602092909190829003018186803b158015612fc357600080fd5b505afa158015612fd7573d6000803e3d6000fd5b505050506040513d6020811015612fed57600080fd5b505181612ff657fe5b046040518363ffffffff1660e01b815260040180836001600160a01b03166001600160a01b0316815260200182815260200192505050600060405180830381600087803b15801561304657600080fd5b505af115801561305a573d6000803e3d6000fd5b505050506001905090565b6040805160a08101909152600080825260208201908152600060208201819052604082018190526060909101529056fe2717ead6b9200dd235aad468c9809ea400fe33ac69b5bfaa6d3e90fc922b6398a2646970667358221220f985321d78295a0defea0f8d76a0b652b47b738755cb462a41000f703b0d07b564736f6c63430006030033",
  "source": "pragma solidity 0.6.3;\r\n\r\nimport \"./SavingDai.sol\";\r\n\r\n/// @title Rental Deposit Account with multisig and DSR locking\r\n/// @author Matthias Nadler, University of Basel\r\n/// @notice Lock a DAI deposit, gain interest and manage the deposit with help of a trustee\r\ncontract MultisigRDA is SavingDai {\r\n\r\n    // --- Storage ---\r\n    uint public trusteeFee;\r\n    uint public trusteeFeePaid;\r\n    uint public landlordDamagePaid;\r\n    uint public deposit;\r\n    mapping(uint => Transaction) public transactions;\r\n    mapping(uint => Document) public documents;\r\n    mapping(uint => mapping(address => bool)) public confirmations;\r\n    address[3] public participants;\r\n    mapping(address => bool) public isParticipant;\r\n    uint public txnCount;\r\n    enum TransactionType {ReturnDeposit, PayDamages, Migrate, Document}\r\n\r\n    struct Transaction {\r\n        address owner;\r\n        TransactionType txnType;\r\n        address dest;\r\n        bool executed;\r\n        uint value;\r\n    }\r\n\r\n    struct Document {\r\n        bytes32 name;\r\n        bytes32 hash;\r\n    }\r\n\r\n    // --- Events ---\r\n    event Confirmation(address indexed sender, uint indexed txnId);\r\n    event Revocation(address indexed sender, uint indexed txnId);\r\n    event Submission(uint indexed txnId);\r\n    event Execution(uint indexed txnId);\r\n    event ExecutionFailure(uint indexed txnId);\r\n    event Withdrawal(address indexed initiator, address indexed receiver, uint value);\r\n\r\n    // --- Modifiers ---\r\n    modifier active() {\r\n        require(deposit > 0, \"RDA/not-active\");\r\n        _;\r\n    }\r\n\r\n    modifier onlyParticipant() {\r\n        require(isParticipant[msg.sender], \"RDA/not-allowed\");\r\n        _;\r\n    }\r\n\r\n    modifier transactionExists(uint txnId) {\r\n        require(transactions[txnId].owner != address(0), \"RDA/txn-invalid\");\r\n        _;\r\n    }\r\n\r\n    modifier confirmed(uint txnId, address participant) {\r\n        require(confirmations[txnId][participant], \"RDA/txn-not-confirmed\");\r\n        _;\r\n    }\r\n\r\n    modifier notConfirmed(uint txnId, address participant) {\r\n        require(!confirmations[txnId][participant], \"RDA/txn-confirmed\");\r\n        _;\r\n    }\r\n\r\n    modifier notExecuted(uint txnId) {\r\n        require(!transactions[txnId].executed, \"RDA/txn-executed\");\r\n        _;\r\n    }\r\n\r\n    modifier excludeDocuments(uint txnId) {\r\n        require(transactions[txnId].txnType != TransactionType.Document, \"RDA/illegal-for-doc\");\r\n        _;\r\n    }\r\n\r\n    // --- Functions ---\r\n\r\n    // ** Constructor **\r\n\r\n    /// @dev Initializes the contract with the addresses. These values can never be changed.\r\n    /// @param tenant The owner of the deposit that earns the interest\r\n    /// @param landlord Can receive payments for damages up to the original deposit amount\r\n    /// @param trustee Earns a fee for enforcing off-chain contracts via multisig\r\n    /// @param _trusteeFee The flat fee for the trustee that is withheld; serves as compensation\r\n    constructor(address tenant, address landlord, address trustee, uint _trusteeFee) public {\r\n        require(\r\n            tenant != address(0) && landlord != address(0) && trustee != address(0),\r\n            \"RDA/empty-address\"\r\n        );\r\n        require(\r\n            tenant != landlord && tenant != trustee && landlord != trustee,\r\n            \"RDA/duplicate-addresses\"\r\n        );\r\n        participants = [tenant, landlord, trustee];\r\n        isParticipant[tenant] = true;\r\n        isParticipant[landlord] = true;\r\n        isParticipant[trustee] = true;\r\n        trusteeFee = _trusteeFee;\r\n    }\r\n\r\n    // ** External Functions **\r\n\r\n    /// @dev Sets the contract active and allows for further interaction. Will lock all DAI in DSR.\r\n    ///      The deposit is equal to the DAI balance when this function is called and can never be changed.\r\n    function start() external onlyParticipant {\r\n        // require sender == tenant!\r\n        require(deposit == 0, \"RDA/already-started\");\r\n        uint balance = daiToken.balanceOf(address(this));\r\n        require(balance > 0, \"RDA/no-dai-found\");\r\n        deposit = balance;\r\n        if (!dsrAuthorize() || !dsrJoin(balance)) {\r\n            deposit = 0;\r\n        }\r\n    }\r\n\r\n    /// @dev Submit a Transaction to return the deposit to the tenant. Requires two confirmations\r\n    /// @return txnId The unique identifier of the transaction\r\n    function submitTransactionReturnDeposit()\r\n        external\r\n        active\r\n        onlyParticipant\r\n        returns (uint txnId)\r\n    {\r\n        txnId = submitTransaction(TransactionType.ReturnDeposit, address(0), 0);\r\n    }\r\n\r\n    /// @dev Submit a Transaction to pay damages to the landlord. Requires two confirmations\r\n    /// @param value The amount of DAI (in wei denominations) to transfer to the landlord\r\n    /// @return txnId The unique identifier of the transaction\r\n    function submitTransactionPayDamages(uint value)\r\n        external\r\n        active\r\n        onlyParticipant\r\n        returns (uint txnId)\r\n    {\r\n        txnId = submitTransaction(TransactionType.PayDamages, address(0), value);\r\n    }\r\n\r\n    /// @dev Submit a Transaction to Migrate the funds to a new address. Requires two confirmations\r\n    /// @param dest The destination address to send the DAI funds\r\n    /// @return txnId The unique identifier of the transaction\r\n    function submitTransactionMigrate(address dest)\r\n        external\r\n        onlyParticipant\r\n        returns (uint txnId)\r\n    {\r\n        txnId = submitTransaction(TransactionType.Migrate, dest, 0);\r\n    }\r\n\r\n    /// @dev Submit a new Document to the RDA that can be signed (confirmed)\r\n    /// @param name The name of the document\r\n    /// @param hash keccak256 hash of the document\r\n    /// @return txnId The unique identifier of the transaction\r\n    function submitTransactionDocument(bytes32 name, bytes32 hash)\r\n        external\r\n        onlyParticipant\r\n        returns (uint txnId)\r\n    {\r\n        txnId = submitTransaction(TransactionType.Document, address(0), 0);\r\n        documents[txnId] = Document({\r\n            name: name,\r\n            hash: hash\r\n        });\r\n    }\r\n\r\n    // ** Public Functions **\r\n\r\n    /// @dev Confirms a transaction if possible\r\n    /// @param txnId The unique identifier of the transaction\r\n    function confirmTransaction(uint txnId)\r\n        public\r\n        onlyParticipant\r\n        transactionExists(txnId)\r\n        notConfirmed(txnId, msg.sender)\r\n        notExecuted(txnId) // immutability of executed transactions\r\n    {\r\n        confirmations[txnId][msg.sender] = true;\r\n        emit Confirmation(msg.sender, txnId);\r\n    }\r\n\r\n    /// @dev Undoes a confirmation if possible\r\n    /// @param txnId The unique identifier of the transaction\r\n    function revokeConfirmation(uint txnId)\r\n        public\r\n        onlyParticipant\r\n        excludeDocuments(txnId)\r\n        transactionExists(txnId)\r\n        confirmed(txnId, msg.sender)\r\n        notExecuted(txnId)\r\n    {\r\n        confirmations[txnId][msg.sender] = false;\r\n        emit Revocation(msg.sender, txnId);\r\n    }\r\n\r\n    /// @dev Execute a transaction that has two or more confirmations\r\n    /// @param txnId The unique identifier of the transaction\r\n    function executeTransaction(uint txnId)\r\n        public\r\n        onlyParticipant // this is conservative\r\n        excludeDocuments(txnId)\r\n        transactionExists(txnId)\r\n        confirmed(txnId, msg.sender) // this is conservative\r\n        notExecuted(txnId)\r\n    {\r\n        if (isConfirmed(txnId)) {\r\n            Transaction storage txn = transactions[txnId];\r\n            txn.executed = true;\r\n            bool success = false;\r\n            if (txn.txnType == TransactionType.ReturnDeposit) {\r\n                success = returnDeposit();\r\n            } else if (txn.txnType == TransactionType.PayDamages) {\r\n                success = payDamages(txn.value);\r\n            } else if (txn.txnType == TransactionType.Migrate) {\r\n                success = migrate(txn.dest);\r\n            }\r\n            if (success) {\r\n                emit Execution(txnId);\r\n            } else {\r\n                emit ExecutionFailure(txnId);\r\n                txn.executed = false;\r\n            }\r\n        }\r\n    }\r\n\r\n    /// @dev Withdraw all interest, leaving the remaining deposit and fees locked on the contract\r\n    function withdrawInterest()\r\n        onlyParticipant\r\n        active\r\n        public\r\n    {\r\n        if (now > pot.rho()) pot.drip();\r\n        uint contractBalance = daiToken.balanceOf(address(this));\r\n        uint lockedDai = sub(add(deposit, sub(trusteeFee, trusteeFeePaid)), landlordDamagePaid);\r\n        uint totalFunds = add(contractBalance, dsrBalance());\r\n        if (totalFunds > lockedDai) {\r\n            uint payout = totalFunds - lockedDai;\r\n            if (payout > contractBalance) {\r\n                dsrExit(payout - contractBalance);\r\n            }\r\n            if (daiToken.transfer(getTenant(), payout)) {\r\n                emit Withdrawal(msg.sender, getTenant(), payout);\r\n            }\r\n        }\r\n    }\r\n\r\n    /// @dev Withdraw an amount up to the trusteeFee to the account of the trustee\r\n    ///      This can only withdraw contract balance and accrued interest above the initial deposit value\r\n    function withdrawTrusteeFee()\r\n        onlyParticipant\r\n        active\r\n        public\r\n    {\r\n        if (trusteeFeePaid < trusteeFee) {\r\n            uint remainingFee = trusteeFee - trusteeFeePaid;\r\n            uint balance = daiToken.balanceOf(address(this));\r\n            uint withdraw;\r\n            uint payout;\r\n\r\n            if (remainingFee > balance) {\r\n                if (now > pot.rho()) pot.drip();\r\n                withdraw = remainingFee - balance;\r\n                payout = add(payout, balance);\r\n                uint totalDsrBalance = dsrBalance();\r\n                uint availableDSR;\r\n                if (totalDsrBalance > deposit) {\r\n                    availableDSR = totalDsrBalance - deposit;\r\n                }\r\n                if (withdraw >= availableDSR) {\r\n                    withdraw = availableDSR;\r\n                }\r\n            } else {\r\n                payout = remainingFee;\r\n            }\r\n\r\n            payout = add(payout, withdraw);\r\n            trusteeFeePaid = add(payout, trusteeFeePaid);\r\n            if (withdraw > 0) {\r\n                dsrExit(withdraw);\r\n            }\r\n            if (daiToken.transfer(getTrustee(), payout)) {\r\n                emit Withdrawal(msg.sender, getTrustee(), payout);\r\n            } else {\r\n                trusteeFeePaid -= payout; // refund if something failed\r\n            }\r\n        }\r\n    }\r\n\r\n    /// @dev Check if a transaction has enough confirmations and is ready to be executed\r\n    ///      All transactions require two or more confirmations to be confirmed\r\n    ///      The migrate transaction needs to be confirmed by the trustee\r\n    /// @param txnId The unique identifier of the transaction\r\n    /// returns true if the transaction is confirmed, false otherwise\r\n    function isConfirmed(uint txnId)\r\n        public\r\n        view\r\n        transactionExists(txnId)\r\n        excludeDocuments(txnId)\r\n        returns (bool)\r\n    {\r\n        Transaction memory txn = transactions[txnId];\r\n        uint count = 0;\r\n        for (uint i = 0; i < 3; i++) {\r\n            if (confirmations[txnId][participants[i]]) {\r\n                count += 1;\r\n            }\r\n            if (count >= 2) {\r\n                if (txn.txnType == TransactionType.Migrate) {\r\n                    if (i == 2) {\r\n                        return confirmations[txnId][participants[i]];\r\n                    }\r\n                } else {\r\n                    return true;\r\n                }\r\n            }\r\n        }\r\n    }\r\n\r\n    function getTenant() public view returns(address) {\r\n        return participants[0];\r\n    }\r\n\r\n    function getLandlord() public view returns(address) {\r\n        return participants[1];\r\n    }\r\n\r\n    function getTrustee() public view returns(address) {\r\n        return participants[2];\r\n    }\r\n\r\n    // ** Internal Multisig Functions **\r\n\r\n    /// @dev Transaction builder. Can't be invoked directly\r\n    function submitTransaction(TransactionType txnType, address dest, uint value)\r\n        internal\r\n        returns (uint txnId)\r\n    {\r\n        txnId = addTransaction(txnType, dest, value);\r\n        confirmTransaction(txnId);\r\n    }\r\n\r\n    function addTransaction(TransactionType txnType, address dest, uint value)\r\n        internal\r\n        returns (uint txnId)\r\n    {\r\n        txnId = txnCount;\r\n        transactions[txnId] = Transaction({\r\n            owner : msg.sender,\r\n            txnType : txnType,\r\n            dest : dest,\r\n            executed : false,\r\n            value : value\r\n            });\r\n        txnCount += 1;\r\n        emit Submission(txnId);\r\n    }\r\n\r\n    // ** Internal RDA Logic Functions **\r\n\r\n    /// @dev Transfers All remaining funds except for outstanding fees to the tenant\r\n    /// @return success is false only if the DAI transfer failed, true otherwise\r\n    ///         even if no DAI was transferred (empty balance or locked fee)\r\n    function returnDeposit()\r\n        internal\r\n        returns (bool success)\r\n    {\r\n        success = true;\r\n        uint remainingFee = sub(trusteeFee, trusteeFeePaid);\r\n        dsrExitAll();\r\n        uint balance = daiToken.balanceOf(address(this));\r\n        if (balance > remainingFee) {\r\n            uint payout = balance - remainingFee;\r\n            success = daiToken.transfer(getTenant(), payout);\r\n            if (success) {\r\n                emit Withdrawal(msg.sender, getTenant(), payout);\r\n            }\r\n        }\r\n    }\r\n\r\n    /// @dev Transfers an amount of DAI to the landlord as compensation\r\n    ///      This amount can be up to the value of the initial deposit\r\n    /// @param value of the DAI (in wei denomination) to transfer\r\n    /// @return success is false only if the DAI transfer failed, true otherwise\r\n    ///         even if no DAI was transferred (empty balance or no more claims)\r\n    function payDamages(uint value)\r\n        internal\r\n        returns (bool success)\r\n    {\r\n        success = true;\r\n        uint maxPayout = sub(deposit, landlordDamagePaid);\r\n        if (maxPayout > 0) {\r\n            uint payout = value;\r\n            if (payout > maxPayout) {\r\n                payout = maxPayout;\r\n            }\r\n            uint contractBalance = daiToken.balanceOf(address(this));\r\n            landlordDamagePaid = add(landlordDamagePaid, payout);\r\n            if (payout > contractBalance) {\r\n                dsrExit(payout - contractBalance);\r\n            }\r\n            success = daiToken.transfer(getLandlord(), payout);\r\n            if (success) {\r\n                emit Withdrawal(msg.sender, getLandlord(), payout);\r\n            } else {\r\n                landlordDamagePaid -= payout;\r\n            }\r\n        }\r\n    }\r\n\r\n    /// @dev exit and migrate all DAI funds to a new address\r\n    /// @param dest the address to migrate the funds to\r\n    /// @return success is true if the funds could be transferred, false otherwise\r\n    function migrate(address dest)\r\n        internal\r\n        returns (bool success)\r\n    {\r\n        dsrExitAll();\r\n        uint balance = daiToken.balanceOf(address(this));\r\n        success = daiToken.transfer(dest, balance);\r\n    }\r\n\r\n\r\n    // ** Web3 call functions (Public & View) **\r\n\r\n    /// @dev Get the participants involved in this contract.\r\n    /// @return participantsArr An array with the three participants' addresses.\r\n    function getParticipants()\r\n        public\r\n        view\r\n        returns (address[] memory participantsArr)\r\n    {\r\n        participantsArr = new address[](3);\r\n        for (uint i = 0; i < 3; i++) {\r\n            participantsArr[i] = participants[i];\r\n        }\r\n    }\r\n\r\n    /// @dev Grabs all the details needed for a specific transaction (request or document)\r\n    /// @param txnId The unique identifier of the transaction.\r\n    function getTransactionInfo(uint txnId)\r\n        public\r\n        view\r\n        transactionExists(txnId)\r\n        returns (\r\n            address owner,\r\n            TransactionType txnType,\r\n            address dest,\r\n            bool executed,\r\n            uint value,\r\n            bool[] memory confirmationStatus,\r\n            bytes32 name,\r\n            bytes32 hash\r\n        )\r\n    {\r\n        Transaction memory transaction = transactions[txnId];\r\n        owner = transaction.owner;\r\n        txnType = transaction.txnType;\r\n        dest = transaction.dest;\r\n        executed = transaction.executed;\r\n        value = transaction.value;\r\n        if(transaction.txnType == TransactionType.Document) {\r\n            name = documents[txnId].name;\r\n            hash = documents[txnId].hash;\r\n        }\r\n        confirmationStatus = new bool[](3);\r\n        for (uint i = 0; i < 3; i++) {\r\n            if (confirmations[txnId][participants[i]]) {\r\n                confirmationStatus[i] = true;\r\n            }\r\n        }\r\n    }\r\n\r\n    /// @dev Get a list of all transaction IDs that match the filter arguments\r\n    /// @param pending will include non-completed transactions if set to true\r\n    /// @param pending will include completed transactions if set to true\r\n    /// @return txnIds an array with all the transaction IDs that match the arguments\r\n    function getTransactionIds(bool pending, bool executed)\r\n        public\r\n        view\r\n        returns (uint[] memory txnIds)\r\n    {\r\n        uint[] memory txnIdsTemp = new uint[](txnCount);\r\n        uint count = 0;\r\n        uint i;\r\n        for (i = 0; i < txnCount; i++) {\r\n            if (pending && !transactions[i].executed || executed && transactions[i].executed) {\r\n                txnIdsTemp[count] = i;\r\n                count += 1;\r\n            }\r\n        }\r\n        txnIds = new uint[](count);\r\n        for (i = 0; i < count; i++)\r\n            txnIds[i] = txnIdsTemp[i];\r\n    }\r\n}\r\n",
  "sourcePath": "C:\\Users\\Matthias\\Documents\\_uni\\fs2020\\seminar_blockchain\\src\\contracts\\MultisigRDA.sol",
  "compiler": {
    "name": "solc",
    "version": "0.6.3+commit.8dda9521.Emscripten.clang"
  },
  "schemaVersion": "3.0.23",
  "updatedAt": "2020-03-23T15:08:20.702Z",
  "networkType": "ethereum",
  "devdoc": {
    "author": "Matthias Nadler, University of Basel",
    "methods": {
      "confirmTransaction(uint256)": {
        "details": "Confirms a transaction if possible",
        "params": {
          "txnId": "The unique identifier of the transaction"
        }
      },
      "constructor": {
        "details": "Initializes the contract with the addresses. These values can never be changed.",
        "params": {
          "_trusteeFee": "The flat fee for the trustee that is withheld; serves as compensation",
          "landlord": "Can receive payments for damages up to the original deposit amount",
          "tenant": "The owner of the deposit that earns the interest",
          "trustee": "Earns a fee for enforcing off-chain contracts via multisig"
        }
      },
      "dsrBalance()": {
        "details": "check the current balance, including compounded interest, that this contract owns      in the pot.",
        "returns": {
          "_0": "balance the total amount of DAI locked in the pot"
        }
      },
      "executeTransaction(uint256)": {
        "details": "Execute a transaction that has two or more confirmations",
        "params": {
          "txnId": "The unique identifier of the transaction"
        }
      },
      "getParticipants()": {
        "details": "Get the participants involved in this contract.",
        "returns": {
          "participantsArr": "An array with the three participants' addresses."
        }
      },
      "getTransactionIds(bool,bool)": {
        "details": "Get a list of all transaction IDs that match the filter arguments",
        "params": {
          "pending": "will include completed transactions if set to true"
        },
        "returns": {
          "txnIds": "an array with all the transaction IDs that match the arguments"
        }
      },
      "getTransactionInfo(uint256)": {
        "details": "Grabs all the details needed for a specific transaction (request or document)",
        "params": {
          "txnId": "The unique identifier of the transaction."
        }
      },
      "isConfirmed(uint256)": {
        "details": "Check if a transaction has enough confirmations and is ready to be executed      All transactions require two or more confirmations to be confirmed      The migrate transaction needs to be confirmed by the trustee",
        "params": {
          "txnId": "The unique identifier of the transaction returns true if the transaction is confirmed, false otherwise"
        }
      },
      "revokeConfirmation(uint256)": {
        "details": "Undoes a confirmation if possible",
        "params": {
          "txnId": "The unique identifier of the transaction"
        }
      },
      "start()": {
        "details": "Sets the contract active and allows for further interaction. Will lock all DAI in DSR.      The deposit is equal to the DAI balance when this function is called and can never be changed."
      },
      "submitTransactionDocument(bytes32,bytes32)": {
        "details": "Submit a new Document to the RDA that can be signed (confirmed)",
        "params": {
          "hash": "keccak256 hash of the document",
          "name": "The name of the document"
        },
        "returns": {
          "txnId": "The unique identifier of the transaction"
        }
      },
      "submitTransactionMigrate(address)": {
        "details": "Submit a Transaction to Migrate the funds to a new address. Requires two confirmations",
        "params": {
          "dest": "The destination address to send the DAI funds"
        },
        "returns": {
          "txnId": "The unique identifier of the transaction"
        }
      },
      "submitTransactionPayDamages(uint256)": {
        "details": "Submit a Transaction to pay damages to the landlord. Requires two confirmations",
        "params": {
          "value": "The amount of DAI (in wei denominations) to transfer to the landlord"
        },
        "returns": {
          "txnId": "The unique identifier of the transaction"
        }
      },
      "submitTransactionReturnDeposit()": {
        "details": "Submit a Transaction to return the deposit to the tenant. Requires two confirmations",
        "returns": {
          "txnId": "The unique identifier of the transaction"
        }
      },
      "withdrawInterest()": {
        "details": "Withdraw all interest, leaving the remaining deposit and fees locked on the contract"
      },
      "withdrawTrusteeFee()": {
        "details": "Withdraw an amount up to the trusteeFee to the account of the trustee      This can only withdraw contract balance and accrued interest above the initial deposit value"
      }
    },
    "title": "Rental Deposit Account with multisig and DSR locking"
  },
  "userdoc": {
    "methods": {},
    "notice": "Lock a DAI deposit, gain interest and manage the deposit with help of a trustee"
  }
}