{
  "contractName": "RDARegistry",
  "abi": [
    {
      "anonymous": false,
      "inputs": [
        {
          "indexed": true,
          "internalType": "address",
          "name": "rdaAddress",
          "type": "address"
        },
        {
          "indexed": false,
          "internalType": "uint256",
          "name": "id",
          "type": "uint256"
        },
        {
          "indexed": false,
          "internalType": "address",
          "name": "tenant",
          "type": "address"
        },
        {
          "indexed": false,
          "internalType": "address",
          "name": "landlord",
          "type": "address"
        },
        {
          "indexed": false,
          "internalType": "address",
          "name": "trustee",
          "type": "address"
        }
      ],
      "name": "createdRDA",
      "type": "event"
    },
    {
      "inputs": [
        {
          "internalType": "uint256",
          "name": "",
          "type": "uint256"
        }
      ],
      "name": "rdaAddresses",
      "outputs": [
        {
          "internalType": "address",
          "name": "",
          "type": "address"
        }
      ],
      "stateMutability": "view",
      "type": "function",
      "constant": true
    },
    {
      "inputs": [
        {
          "internalType": "uint256",
          "name": "",
          "type": "uint256"
        }
      ],
      "name": "rdaContracts",
      "outputs": [
        {
          "internalType": "address",
          "name": "tenant",
          "type": "address"
        },
        {
          "internalType": "address",
          "name": "landlord",
          "type": "address"
        },
        {
          "internalType": "address",
          "name": "trustee",
          "type": "address"
        }
      ],
      "stateMutability": "view",
      "type": "function",
      "constant": true
    },
    {
      "inputs": [],
      "name": "rdaCount",
      "outputs": [
        {
          "internalType": "uint256",
          "name": "",
          "type": "uint256"
        }
      ],
      "stateMutability": "view",
      "type": "function",
      "constant": true
    },
    {
      "inputs": [
        {
          "internalType": "address",
          "name": "tenant",
          "type": "address"
        },
        {
          "internalType": "address",
          "name": "landlord",
          "type": "address"
        },
        {
          "internalType": "address",
          "name": "trustee",
          "type": "address"
        },
        {
          "internalType": "uint256",
          "name": "trusteeFee",
          "type": "uint256"
        }
      ],
      "name": "createRDA",
      "outputs": [
        {
          "internalType": "address",
          "name": "rdaAddress",
          "type": "address"
        }
      ],
      "stateMutability": "nonpayable",
      "type": "function"
    },
    {
      "inputs": [
        {
          "internalType": "address",
          "name": "participant",
          "type": "address"
        }
      ],
      "name": "getByParticipant",
      "outputs": [
        {
          "internalType": "address[]",
          "name": "contracts",
          "type": "address[]"
        }
      ],
      "stateMutability": "view",
      "type": "function",
      "constant": true
    }
  ],
  "bytecode": "0x608060405234801561001057600080fd5b50615ced806100206000396000f3fe60806040523480156200001157600080fd5b50600436106200005e5760003560e01c806314a953621462000063578063800379f0146200013a578063801fb93e14620001d8578063cf00e10f1462000249578063d0d7bde7146200031a575b600080fd5b62000092600480360360208110156200007b57600080fd5b81019080803590602001909291905050506200033a565b604051808473ffffffffffffffffffffffffffffffffffffffff1673ffffffffffffffffffffffffffffffffffffffff1681526020018373ffffffffffffffffffffffffffffffffffffffff1673ffffffffffffffffffffffffffffffffffffffff1681526020018273ffffffffffffffffffffffffffffffffffffffff1673ffffffffffffffffffffffffffffffffffffffff168152602001935050505060405180910390f35b6200017f600480360360208110156200015257600080fd5b81019080803573ffffffffffffffffffffffffffffffffffffffff169060200190929190505050620003c4565b6040518080602001828103825283818151815260200191508051906020019060200280838360005b83811015620001c4578082015181840152602081019050620001a7565b505050509050019250505060405180910390f35b6200020760048036036020811015620001f057600080fd5b8101908080359060200190929190505050620006f0565b604051808273ffffffffffffffffffffffffffffffffffffffff1673ffffffffffffffffffffffffffffffffffffffff16815260200191505060405180910390f35b620002d8600480360360808110156200026157600080fd5b81019080803573ffffffffffffffffffffffffffffffffffffffff169060200190929190803573ffffffffffffffffffffffffffffffffffffffff169060200190929190803573ffffffffffffffffffffffffffffffffffffffff1690602001909291908035906020019092919050505062000723565b604051808273ffffffffffffffffffffffffffffffffffffffff1673ffffffffffffffffffffffffffffffffffffffff16815260200191505060405180910390f35b6200032462000aa1565b6040518082815260200191505060405180910390f35b60016020528060005260406000206000915090508060000160009054906101000a900473ffffffffffffffffffffffffffffffffffffffff16908060010160009054906101000a900473ffffffffffffffffffffffffffffffffffffffff16908060020160009054906101000a900473ffffffffffffffffffffffffffffffffffffffff16905083565b606080600254604051908082528060200260200182016040528015620003f95781602001602082028036833780820191505090505b509050600080905060008090505b6002548110156200061d576200041c62000aa7565b600160008381526020019081526020016000206040518060600160405290816000820160009054906101000a900473ffffffffffffffffffffffffffffffffffffffff1673ffffffffffffffffffffffffffffffffffffffff1673ffffffffffffffffffffffffffffffffffffffff1681526020016001820160009054906101000a900473ffffffffffffffffffffffffffffffffffffffff1673ffffffffffffffffffffffffffffffffffffffff1673ffffffffffffffffffffffffffffffffffffffff1681526020016002820160009054906101000a900473ffffffffffffffffffffffffffffffffffffffff1673ffffffffffffffffffffffffffffffffffffffff1673ffffffffffffffffffffffffffffffffffffffff168152505090508573ffffffffffffffffffffffffffffffffffffffff16816000015173ffffffffffffffffffffffffffffffffffffffff161480620005ac57508573ffffffffffffffffffffffffffffffffffffffff16816020015173ffffffffffffffffffffffffffffffffffffffff16145b80620005e757508573ffffffffffffffffffffffffffffffffffffffff16816040015173ffffffffffffffffffffffffffffffffffffffff16145b156200060e5781848481518110620005fb57fe5b6020026020010181815250506001830192505b50808060010191505062000407565b50806040519080825280602002602001820160405280156200064e5781602001602082028036833780820191505090505b50925060008090505b81811015620006e85760008082815260200190815260200160002060009054906101000a900473ffffffffffffffffffffffffffffffffffffffff16848281518110620006a057fe5b602002602001019073ffffffffffffffffffffffffffffffffffffffff16908173ffffffffffffffffffffffffffffffffffffffff1681525050808060010191505062000657565b505050919050565b60006020528060005260406000206000915054906101000a900473ffffffffffffffffffffffffffffffffffffffff1681565b60008085858585604051620007389062000b0a565b808573ffffffffffffffffffffffffffffffffffffffff1673ffffffffffffffffffffffffffffffffffffffff1681526020018473ffffffffffffffffffffffffffffffffffffffff1673ffffffffffffffffffffffffffffffffffffffff1681526020018373ffffffffffffffffffffffffffffffffffffffff1673ffffffffffffffffffffffffffffffffffffffff168152602001828152602001945050505050604051809103906000f080158015620007f8573d6000803e3d6000fd5b50905080915081600080600254815260200190815260200160002060006101000a81548173ffffffffffffffffffffffffffffffffffffffff021916908373ffffffffffffffffffffffffffffffffffffffff16021790555060405180606001604052808773ffffffffffffffffffffffffffffffffffffffff1681526020018673ffffffffffffffffffffffffffffffffffffffff1681526020018573ffffffffffffffffffffffffffffffffffffffff1681525060016000600254815260200190815260200160002060008201518160000160006101000a81548173ffffffffffffffffffffffffffffffffffffffff021916908373ffffffffffffffffffffffffffffffffffffffff16021790555060208201518160010160006101000a81548173ffffffffffffffffffffffffffffffffffffffff021916908373ffffffffffffffffffffffffffffffffffffffff16021790555060408201518160020160006101000a81548173ffffffffffffffffffffffffffffffffffffffff021916908373ffffffffffffffffffffffffffffffffffffffff1602179055509050508173ffffffffffffffffffffffffffffffffffffffff167f1780df94890870d56f2fce6cd7127bf86d8a35d3d4f01fca9b94f092c5dec284600254888888604051808581526020018473ffffffffffffffffffffffffffffffffffffffff1673ffffffffffffffffffffffffffffffffffffffff1681526020018373ffffffffffffffffffffffffffffffffffffffff1673ffffffffffffffffffffffffffffffffffffffff1681526020018273ffffffffffffffffffffffffffffffffffffffff1673ffffffffffffffffffffffffffffffffffffffff16815260200194505050505060405180910390a2600160026000828254019250508190555050949350505050565b60025481565b6040518060600160405280600073ffffffffffffffffffffffffffffffffffffffff168152602001600073ffffffffffffffffffffffffffffffffffffffff168152602001600073ffffffffffffffffffffffffffffffffffffffff1681525090565b61519f8062000b198339019056fe60806040527311c8d156e1b5fd883e31e9091874f2af80b02775600060016101000a81548173ffffffffffffffffffffffffffffffffffffffff021916908373ffffffffffffffffffffffffffffffffffffffff1602179055507319e602e0dc93749ea7afa0c88f4693d4c02102d3600160006101000a81548173ffffffffffffffffffffffffffffffffffffffff021916908373ffffffffffffffffffffffffffffffffffffffff160217905550738c4be23de45f82a4fec7a93f69929bd2a13a4777600260006101000a81548173ffffffffffffffffffffffffffffffffffffffff021916908373ffffffffffffffffffffffffffffffffffffffff160217905550738d68d36d45a34a6ff368069bd0baa32ad49a6092600360006101000a81548173ffffffffffffffffffffffffffffffffffffffff021916908373ffffffffffffffffffffffffffffffffffffffff1602179055503480156200016557600080fd5b506040516200519f3803806200519f833981810160405260808110156200018b57600080fd5b8101908080519060200190929190805190602001909291908051906020019092919080519060200190929190505050600073ffffffffffffffffffffffffffffffffffffffff168473ffffffffffffffffffffffffffffffffffffffff1614158015620002255750600073ffffffffffffffffffffffffffffffffffffffff168373ffffffffffffffffffffffffffffffffffffffff1614155b80156200025f5750600073ffffffffffffffffffffffffffffffffffffffff168273ffffffffffffffffffffffffffffffffffffffff1614155b620002d2576040517f08c379a00000000000000000000000000000000000000000000000000000000081526004018080602001828103825260118152602001807f5244412f656d7074792d6164647265737300000000000000000000000000000081525060200191505060405180910390fd5b8273ffffffffffffffffffffffffffffffffffffffff168473ffffffffffffffffffffffffffffffffffffffff16141580156200033b57508173ffffffffffffffffffffffffffffffffffffffff168473ffffffffffffffffffffffffffffffffffffffff1614155b80156200037457508173ffffffffffffffffffffffffffffffffffffffff168373ffffffffffffffffffffffffffffffffffffffff1614155b620003e7576040517f08c379a00000000000000000000000000000000000000000000000000000000081526004018080602001828103825260178152602001807f5244412f6475706c69636174652d61646472657373657300000000000000000081525060200191505060405180910390fd5b60405180606001604052808573ffffffffffffffffffffffffffffffffffffffff1673ffffffffffffffffffffffffffffffffffffffff1681526020018473ffffffffffffffffffffffffffffffffffffffff1673ffffffffffffffffffffffffffffffffffffffff1681526020018373ffffffffffffffffffffffffffffffffffffffff1673ffffffffffffffffffffffffffffffffffffffff16815250600a90600362000498929190620005b2565b506001600d60008673ffffffffffffffffffffffffffffffffffffffff1673ffffffffffffffffffffffffffffffffffffffff16815260200190815260200160002060006101000a81548160ff0219169083151502179055506001600d60008573ffffffffffffffffffffffffffffffffffffffff1673ffffffffffffffffffffffffffffffffffffffff16815260200190815260200160002060006101000a81548160ff0219169083151502179055506001600d60008473ffffffffffffffffffffffffffffffffffffffff1673ffffffffffffffffffffffffffffffffffffffff16815260200190815260200160002060006101000a81548160ff02191690831515021790555080600481905550505050506200067a565b826003810192821562000621579160200282015b82811115620006205782518260006101000a81548173ffffffffffffffffffffffffffffffffffffffff021916908373ffffffffffffffffffffffffffffffffffffffff16021790555091602001919060010190620005c6565b5b50905062000630919062000634565b5090565b6200067791905b808211156200067357600081816101000a81549073ffffffffffffffffffffffffffffffffffffffff0219169055506001016200063b565b5090565b90565b614b15806200068a6000396000f3fe608060405234801561001057600080fd5b50600436106101d95760003560e01c80639ace38c211610104578063e3e9971c116100a2578063ee22610b11610071578063ee22610b14610909578063f502236d14610937578063f7e7d35a14610981578063f92e88ca1461099f576101d9565b8063e3e9971c14610833578063ea265d5514610875578063eb42013c14610893578063ec75cf29146108b1576101d9565b8063be9a6555116100de578063be9a655514610793578063c01a8c841461079d578063c11645bc146107cb578063d0e30db014610815576101d9565b80639ace38c2146105f05780639de5dcd6146106b8578063be22f54614610749576101d9565b806336569e771161017c578063784547a71161014b578063784547a71461051257806378ce136514610558578063929066f51461057657806395bbc104146105d2576101d9565b806336569e77146103d55780634ba2363a1461041f5780635aa68ac0146104695780636216b6e3146104c8576101d9565b806320ea8d86116101b857806320ea8d86146102b55780633411c81c146102e3578063357c016a1461034957806335c1d34914610367576101d9565b806263750c146101de5780630b3bb024146101e85780630f979c2814610232575b600080fd5b6101e66109a9565b005b6101f0610ed6565b604051808273ffffffffffffffffffffffffffffffffffffffff1673ffffffffffffffffffffffffffffffffffffffff16815260200191505060405180910390f35b61025e6004803603602081101561024857600080fd5b8101908080359060200190929190505050610f0d565b6040518080602001828103825283818151815260200191508051906020019060200280838360005b838110156102a1578082015181840152602081019050610286565b505050509050019250505060405180910390f35b6102e1600480360360208110156102cb57600080fd5b8101908080359060200190929190505050611016565b005b61032f600480360360408110156102f957600080fd5b8101908080359060200190929190803573ffffffffffffffffffffffffffffffffffffffff1690602001909291905050506113cd565b604051808215151515815260200191505060405180910390f35b6103516113fc565b6040518082815260200191505060405180910390f35b6103936004803603602081101561037d57600080fd5b81019080803590602001909291905050506115a8565b604051808273ffffffffffffffffffffffffffffffffffffffff1673ffffffffffffffffffffffffffffffffffffffff16815260200191505060405180910390f35b6103dd6115db565b604051808273ffffffffffffffffffffffffffffffffffffffff1673ffffffffffffffffffffffffffffffffffffffff16815260200191505060405180910390f35b610427611601565b604051808273ffffffffffffffffffffffffffffffffffffffff1673ffffffffffffffffffffffffffffffffffffffff16815260200191505060405180910390f35b610471611627565b6040518080602001828103825283818151815260200191508051906020019060200280838360005b838110156104b4578082015181840152602081019050610499565b505050509050019250505060405180910390f35b6104d06116f1565b604051808273ffffffffffffffffffffffffffffffffffffffff1673ffffffffffffffffffffffffffffffffffffffff16815260200191505060405180910390f35b61053e6004803603602081101561052857600080fd5b8101908080359060200190929190505050611728565b604051808215151515815260200191505060405180910390f35b610560611ac8565b6040518082815260200191505060405180910390f35b6105b86004803603602081101561058c57600080fd5b81019080803573ffffffffffffffffffffffffffffffffffffffff169060200190929190505050611ace565b604051808215151515815260200191505060405180910390f35b6105da611aee565b6040518082815260200191505060405180910390f35b61061c6004803603602081101561060657600080fd5b8101908080359060200190929190505050611af4565b604051808673ffffffffffffffffffffffffffffffffffffffff1673ffffffffffffffffffffffffffffffffffffffff16815260200185600281111561065e57fe5b60ff1681526020018473ffffffffffffffffffffffffffffffffffffffff1673ffffffffffffffffffffffffffffffffffffffff168152602001831515151581526020018281526020019550505050505060405180910390f35b6106f2600480360360408110156106ce57600080fd5b81019080803515159060200190929190803515159060200190929190505050611b84565b6040518080602001828103825283818151815260200191508051906020019060200280838360005b8381101561073557808201518184015260208101905061071a565b505050509050019250505060405180910390f35b610751611ce5565b604051808273ffffffffffffffffffffffffffffffffffffffff1673ffffffffffffffffffffffffffffffffffffffff16815260200191505060405180910390f35b61079b611d0b565b005b6107c9600480360360208110156107b357600080fd5b8101908080359060200190929190505050611fca565b005b6107d3612382565b604051808273ffffffffffffffffffffffffffffffffffffffff1673ffffffffffffffffffffffffffffffffffffffff16815260200191505060405180910390f35b61081d6123a8565b6040518082815260200191505060405180910390f35b61085f6004803603602081101561084957600080fd5b81019080803590602001909291905050506123ae565b6040518082815260200191505060405180910390f35b61087d612483565b6040518082815260200191505060405180910390f35b61089b612556565b6040518082815260200191505060405180910390f35b6108f3600480360360208110156108c757600080fd5b81019080803573ffffffffffffffffffffffffffffffffffffffff16906020019092919050505061255c565b6040518082815260200191505060405180910390f35b6109356004803603602081101561091f57600080fd5b8101908080359060200190929190505050612631565b005b61093f612aec565b604051808273ffffffffffffffffffffffffffffffffffffffff1673ffffffffffffffffffffffffffffffffffffffff16815260200191505060405180910390f35b610989612b23565b6040518082815260200191505060405180910390f35b6109a7612b29565b005b600d60003373ffffffffffffffffffffffffffffffffffffffff1673ffffffffffffffffffffffffffffffffffffffff16815260200190815260200160002060009054906101000a900460ff16610a68576040517f08c379a000000000000000000000000000000000000000000000000000000000815260040180806020018281038252600f8152602001807f5244412f6e6f742d616c6c6f776564000000000000000000000000000000000081525060200191505060405180910390fd5b600060075411610ae0576040517f08c379a000000000000000000000000000000000000000000000000000000000815260040180806020018281038252600e8152602001807f5244412f6e6f742d61637469766500000000000000000000000000000000000081525060200191505060405180910390fd5b600160009054906101000a900473ffffffffffffffffffffffffffffffffffffffff1673ffffffffffffffffffffffffffffffffffffffff166320aba08b6040518163ffffffff1660e01b815260040160206040518083038186803b158015610b4857600080fd5b505afa158015610b5c573d6000803e3d6000fd5b505050506040513d6020811015610b7257600080fd5b8101908080519060200190929190505050421115610c3157600160009054906101000a900473ffffffffffffffffffffffffffffffffffffffff1673ffffffffffffffffffffffffffffffffffffffff16639f678cca6040518163ffffffff1660e01b8152600401602060405180830381600087803b158015610bf457600080fd5b505af1158015610c08573d6000803e3d6000fd5b505050506040513d6020811015610c1e57600080fd5b8101908080519060200190929190505050505b6000600360009054906101000a900473ffffffffffffffffffffffffffffffffffffffff1673ffffffffffffffffffffffffffffffffffffffff166370a08231306040518263ffffffff1660e01b8152600401808273ffffffffffffffffffffffffffffffffffffffff1673ffffffffffffffffffffffffffffffffffffffff168152602001915050602060405180830381600087803b158015610cd457600080fd5b505af1158015610ce8573d6000803e3d6000fd5b505050506040513d6020811015610cfe57600080fd5b810190808051906020019092919050505090506000610d37610d2f600754610d2a6004546005546130a5565b6130bf565b6006546130a5565b90506000610d4c83610d476113fc565b6130bf565b905081811115610ed1576000828203905083811115610d7257610d708482036130d9565b505b600360009054906101000a900473ffffffffffffffffffffffffffffffffffffffff1673ffffffffffffffffffffffffffffffffffffffff1663a9059cbb610db8610ed6565b836040518363ffffffff1660e01b8152600401808373ffffffffffffffffffffffffffffffffffffffff1673ffffffffffffffffffffffffffffffffffffffff16815260200182815260200192505050602060405180830381600087803b158015610e2257600080fd5b505af1158015610e36573d6000803e3d6000fd5b505050506040513d6020811015610e4c57600080fd5b810190808051906020019092919050505015610ecf57610e6a610ed6565b73ffffffffffffffffffffffffffffffffffffffff163373ffffffffffffffffffffffffffffffffffffffff167f2717ead6b9200dd235aad468c9809ea400fe33ac69b5bfaa6d3e90fc922b6398836040518082815260200191505060405180910390a35b505b505050565b6000600a600060038110610ee657fe5b0160009054906101000a900473ffffffffffffffffffffffffffffffffffffffff16905090565b60606003604051908082528060200260200182016040528015610f3f5781602001602082028036833780820191505090505b50905060008090505b600381101561101057600960008481526020019081526020016000206000600a8360038110610f7357fe5b0160009054906101000a900473ffffffffffffffffffffffffffffffffffffffff1673ffffffffffffffffffffffffffffffffffffffff1673ffffffffffffffffffffffffffffffffffffffff16815260200190815260200160002060009054906101000a900460ff1615611003576001828281518110610ff057fe5b6020026020010190151590811515815250505b8080600101915050610f48565b50919050565b600d60003373ffffffffffffffffffffffffffffffffffffffff1673ffffffffffffffffffffffffffffffffffffffff16815260200190815260200160002060009054906101000a900460ff166110d5576040517f08c379a000000000000000000000000000000000000000000000000000000000815260040180806020018281038252600f8152602001807f5244412f6e6f742d616c6c6f776564000000000000000000000000000000000081525060200191505060405180910390fd5b80600073ffffffffffffffffffffffffffffffffffffffff166008600083815260200190815260200160002060000160009054906101000a900473ffffffffffffffffffffffffffffffffffffffff1673ffffffffffffffffffffffffffffffffffffffff1614156111af576040517f08c379a000000000000000000000000000000000000000000000000000000000815260040180806020018281038252600f8152602001807f5244412f74786e2d696e76616c6964000000000000000000000000000000000081525060200191505060405180910390fd5b81336009600083815260200190815260200160002060008273ffffffffffffffffffffffffffffffffffffffff1673ffffffffffffffffffffffffffffffffffffffff16815260200190815260200160002060009054906101000a900460ff16611281576040517f08c379a00000000000000000000000000000000000000000000000000000000081526004018080602001828103825260158152602001807f5244412f74786e2d6e6f742d636f6e6669726d6564000000000000000000000081525060200191505060405180910390fd5b836008600082815260200190815260200160002060010160149054906101000a900460ff1615611319576040517f08c379a00000000000000000000000000000000000000000000000000000000081526004018080602001828103825260108152602001807f5244412f74786e2d65786563757465640000000000000000000000000000000081525060200191505060405180910390fd5b60006009600087815260200190815260200160002060003373ffffffffffffffffffffffffffffffffffffffff1673ffffffffffffffffffffffffffffffffffffffff16815260200190815260200160002060006101000a81548160ff021916908315150217905550843373ffffffffffffffffffffffffffffffffffffffff167ff6a317157440607f36269043eb55f1287a5a19ba2216afeab88cd46cbcfb88e960405160405180910390a35050505050565b60096020528160005260406000206020528060005260406000206000915091509054906101000a900460ff1681565b600080600160009054906101000a900473ffffffffffffffffffffffffffffffffffffffff1673ffffffffffffffffffffffffffffffffffffffff16630bebac86306040518263ffffffff1660e01b8152600401808273ffffffffffffffffffffffffffffffffffffffff1673ffffffffffffffffffffffffffffffffffffffff16815260200191505060206040518083038186803b15801561149e57600080fd5b505afa1580156114b2573d6000803e3d6000fd5b505050506040513d60208110156114c857600080fd5b810190808051906020019092919050505090506000600160009054906101000a900473ffffffffffffffffffffffffffffffffffffffff1673ffffffffffffffffffffffffffffffffffffffff1663c92aecc46040518163ffffffff1660e01b815260040160206040518083038186803b15801561154557600080fd5b505afa158015611559573d6000803e3d6000fd5b505050506040513d602081101561156f57600080fd5b810190808051906020019092919050505090506b033b2e3c9fd0803ce800000061159983836134be565b816115a057fe5b049250505090565b600a81600381106115b557fe5b016000915054906101000a900473ffffffffffffffffffffffffffffffffffffffff1681565b600060019054906101000a900473ffffffffffffffffffffffffffffffffffffffff1681565b600160009054906101000a900473ffffffffffffffffffffffffffffffffffffffff1681565b606060036040519080825280602002602001820160405280156116595781602001602082028036833780820191505090505b50905060008090505b60038110156116ed57600a816003811061167857fe5b0160009054906101000a900473ffffffffffffffffffffffffffffffffffffffff168282815181106116a657fe5b602002602001019073ffffffffffffffffffffffffffffffffffffffff16908173ffffffffffffffffffffffffffffffffffffffff16815250508080600101915050611662565b5090565b6000600a60026003811061170157fe5b0160009054906101000a900473ffffffffffffffffffffffffffffffffffffffff16905090565b600081600073ffffffffffffffffffffffffffffffffffffffff166008600083815260200190815260200160002060000160009054906101000a900473ffffffffffffffffffffffffffffffffffffffff1673ffffffffffffffffffffffffffffffffffffffff161415611804576040517f08c379a000000000000000000000000000000000000000000000000000000000815260040180806020018281038252600f8152602001807f5244412f74786e2d696e76616c6964000000000000000000000000000000000081525060200191505060405180910390fd5b61180c614a77565b600860008581526020019081526020016000206040518060a00160405290816000820160009054906101000a900473ffffffffffffffffffffffffffffffffffffffff1673ffffffffffffffffffffffffffffffffffffffff1673ffffffffffffffffffffffffffffffffffffffff1681526020016000820160149054906101000a900460ff16600281111561189e57fe5b60028111156118a957fe5b81526020016001820160009054906101000a900473ffffffffffffffffffffffffffffffffffffffff1673ffffffffffffffffffffffffffffffffffffffff1673ffffffffffffffffffffffffffffffffffffffff1681526020016001820160149054906101000a900460ff161515151581526020016002820154815250509050600080905060008090505b6003811015611abe57600960008781526020019081526020016000206000600a836003811061196057fe5b0160009054906101000a900473ffffffffffffffffffffffffffffffffffffffff1673ffffffffffffffffffffffffffffffffffffffff1673ffffffffffffffffffffffffffffffffffffffff16815260200190815260200160002060009054906101000a900460ff16156119d6576001820191505b60028210611ab1576002808111156119ea57fe5b836020015160028111156119fa57fe5b1415611aa4576002811415611a9f57600960008781526020019081526020016000206000600a8360038110611a2b57fe5b0160009054906101000a900473ffffffffffffffffffffffffffffffffffffffff1673ffffffffffffffffffffffffffffffffffffffff1673ffffffffffffffffffffffffffffffffffffffff16815260200190815260200160002060009054906101000a900460ff169450505050611ac2565b611ab0565b60019450505050611ac2565b5b8080600101915050611935565b5050505b50919050565b600e5481565b600d6020528060005260406000206000915054906101000a900460ff1681565b60065481565b60086020528060005260406000206000915090508060000160009054906101000a900473ffffffffffffffffffffffffffffffffffffffff16908060000160149054906101000a900460ff16908060010160009054906101000a900473ffffffffffffffffffffffffffffffffffffffff16908060010160149054906101000a900460ff16908060020154905085565b606080600e54604051908082528060200260200182016040528015611bb85781602001602082028036833780820191505090505b509050600080905060008090505b600e54811015611c6457858015611bfe57506008600082815260200190815260200160002060010160149054906101000a900460ff16155b80611c325750848015611c3157506008600082815260200190815260200160002060010160149054906101000a900460ff165b5b15611c575780838381518110611c4457fe5b6020026020010181815250506001820191505b8080600101915050611bc6565b81604051908082528060200260200182016040528015611c935781602001602082028036833780820191505090505b509350600090505b81811015611cdc57828181518110611caf57fe5b6020026020010151848281518110611cc357fe5b6020026020010181815250508080600101915050611c9b565b50505092915050565b600360009054906101000a900473ffffffffffffffffffffffffffffffffffffffff1681565b600d60003373ffffffffffffffffffffffffffffffffffffffff1673ffffffffffffffffffffffffffffffffffffffff16815260200190815260200160002060009054906101000a900460ff16611dca576040517f08c379a000000000000000000000000000000000000000000000000000000000815260040180806020018281038252600f8152602001807f5244412f6e6f742d616c6c6f776564000000000000000000000000000000000081525060200191505060405180910390fd5b600060075414611e42576040517f08c379a00000000000000000000000000000000000000000000000000000000081526004018080602001828103825260138152602001807f5244412f616c72656164792d737461727465640000000000000000000000000081525060200191505060405180910390fd5b6000600360009054906101000a900473ffffffffffffffffffffffffffffffffffffffff1673ffffffffffffffffffffffffffffffffffffffff166370a08231306040518263ffffffff1660e01b8152600401808273ffffffffffffffffffffffffffffffffffffffff1673ffffffffffffffffffffffffffffffffffffffff168152602001915050602060405180830381600087803b158015611ee557600080fd5b505af1158015611ef9573d6000803e3d6000fd5b505050506040513d6020811015611f0f57600080fd5b8101908080519060200190929190505050905060008111611f98576040517f08c379a00000000000000000000000000000000000000000000000000000000081526004018080602001828103825260108152602001807f5244412f6e6f2d6461692d666f756e640000000000000000000000000000000081525060200191505060405180910390fd5b80600781905550611fa76134ea565b1580611fb95750611fb7816137fe565b155b15611fc75760006007819055505b50565b600d60003373ffffffffffffffffffffffffffffffffffffffff1673ffffffffffffffffffffffffffffffffffffffff16815260200190815260200160002060009054906101000a900460ff16612089576040517f08c379a000000000000000000000000000000000000000000000000000000000815260040180806020018281038252600f8152602001807f5244412f6e6f742d616c6c6f776564000000000000000000000000000000000081525060200191505060405180910390fd5b80600073ffffffffffffffffffffffffffffffffffffffff166008600083815260200190815260200160002060000160009054906101000a900473ffffffffffffffffffffffffffffffffffffffff1673ffffffffffffffffffffffffffffffffffffffff161415612163576040517f08c379a000000000000000000000000000000000000000000000000000000000815260040180806020018281038252600f8152602001807f5244412f74786e2d696e76616c6964000000000000000000000000000000000081525060200191505060405180910390fd5b81336009600083815260200190815260200160002060008273ffffffffffffffffffffffffffffffffffffffff1673ffffffffffffffffffffffffffffffffffffffff16815260200190815260200160002060009054906101000a900460ff1615612236576040517f08c379a00000000000000000000000000000000000000000000000000000000081526004018080602001828103825260118152602001807f5244412f74786e2d636f6e6669726d656400000000000000000000000000000081525060200191505060405180910390fd5b836008600082815260200190815260200160002060010160149054906101000a900460ff16156122ce576040517f08c379a00000000000000000000000000000000000000000000000000000000081526004018080602001828103825260108152602001807f5244412f74786e2d65786563757465640000000000000000000000000000000081525060200191505060405180910390fd5b60016009600087815260200190815260200160002060003373ffffffffffffffffffffffffffffffffffffffff1673ffffffffffffffffffffffffffffffffffffffff16815260200190815260200160002060006101000a81548160ff021916908315150217905550843373ffffffffffffffffffffffffffffffffffffffff167f4a504a94899432a9846e1aa406dceb1bcfd538bb839071d49d1e5e23f5be30ef60405160405180910390a35050505050565b600260009054906101000a900473ffffffffffffffffffffffffffffffffffffffff1681565b60075481565b6000600d60003373ffffffffffffffffffffffffffffffffffffffff1673ffffffffffffffffffffffffffffffffffffffff16815260200190815260200160002060009054906101000a900460ff1661246f576040517f08c379a000000000000000000000000000000000000000000000000000000000815260040180806020018281038252600f8152602001807f5244412f6e6f742d616c6c6f776564000000000000000000000000000000000081525060200191505060405180910390fd5b61247c6001600084613be3565b9050919050565b6000600d60003373ffffffffffffffffffffffffffffffffffffffff1673ffffffffffffffffffffffffffffffffffffffff16815260200190815260200160002060009054906101000a900460ff16612544576040517f08c379a000000000000000000000000000000000000000000000000000000000815260040180806020018281038252600f8152602001807f5244412f6e6f742d616c6c6f776564000000000000000000000000000000000081525060200191505060405180910390fd5b6125516000806000613be3565b905090565b60055481565b6000600d60003373ffffffffffffffffffffffffffffffffffffffff1673ffffffffffffffffffffffffffffffffffffffff16815260200190815260200160002060009054906101000a900460ff1661261d576040517f08c379a000000000000000000000000000000000000000000000000000000000815260040180806020018281038252600f8152602001807f5244412f6e6f742d616c6c6f776564000000000000000000000000000000000081525060200191505060405180910390fd5b61262a6002836000613be3565b9050919050565b600d60003373ffffffffffffffffffffffffffffffffffffffff1673ffffffffffffffffffffffffffffffffffffffff16815260200190815260200160002060009054906101000a900460ff166126f0576040517f08c379a000000000000000000000000000000000000000000000000000000000815260040180806020018281038252600f8152602001807f5244412f6e6f742d616c6c6f776564000000000000000000000000000000000081525060200191505060405180910390fd5b80600073ffffffffffffffffffffffffffffffffffffffff166008600083815260200190815260200160002060000160009054906101000a900473ffffffffffffffffffffffffffffffffffffffff1673ffffffffffffffffffffffffffffffffffffffff1614156127ca576040517f08c379a000000000000000000000000000000000000000000000000000000000815260040180806020018281038252600f8152602001807f5244412f74786e2d696e76616c6964000000000000000000000000000000000081525060200191505060405180910390fd5b81336009600083815260200190815260200160002060008273ffffffffffffffffffffffffffffffffffffffff1673ffffffffffffffffffffffffffffffffffffffff16815260200190815260200160002060009054906101000a900460ff1661289c576040517f08c379a00000000000000000000000000000000000000000000000000000000081526004018080602001828103825260158152602001807f5244412f74786e2d6e6f742d636f6e6669726d6564000000000000000000000081525060200191505060405180910390fd5b836008600082815260200190815260200160002060010160149054906101000a900460ff1615612934576040517f08c379a00000000000000000000000000000000000000000000000000000000081526004018080602001828103825260108152602001807f5244412f74786e2d65786563757465640000000000000000000000000000000081525060200191505060405180910390fd5b61293d85611728565b15612ae557600060086000878152602001908152602001600020905060018160010160146101000a81548160ff02191690831515021790555060008090506000600281111561298857fe5b8260000160149054906101000a900460ff1660028111156129a557fe5b14156129ba576129b3613c02565b9050612a5f565b600160028111156129c757fe5b8260000160149054906101000a900460ff1660028111156129e457fe5b14156129fe576129f78260020154613e79565b9050612a5e565b600280811115612a0a57fe5b8260000160149054906101000a900460ff166002811115612a2757fe5b1415612a5d57612a5a8260010160009054906101000a900473ffffffffffffffffffffffffffffffffffffffff16614130565b90505b5b5b8015612a9757867f33e13ecb54c3076d8e8bb8c2881800a4d972b792045ffae98fdf46df365fed7560405160405180910390a2612ae2565b867f526441bb6c1aba3c9a4a6ca1d6545da9c2333c8c48343ef398eb858d72b7923660405160405180910390a260008260010160146101000a81548160ff0219169083151502179055505b50505b5050505050565b6000600a600160038110612afc57fe5b0160009054906101000a900473ffffffffffffffffffffffffffffffffffffffff16905090565b60045481565b600d60003373ffffffffffffffffffffffffffffffffffffffff1673ffffffffffffffffffffffffffffffffffffffff16815260200190815260200160002060009054906101000a900460ff16612be8576040517f08c379a000000000000000000000000000000000000000000000000000000000815260040180806020018281038252600f8152602001807f5244412f6e6f742d616c6c6f776564000000000000000000000000000000000081525060200191505060405180910390fd5b600060075411612c60576040517f08c379a000000000000000000000000000000000000000000000000000000000815260040180806020018281038252600e8152602001807f5244412f6e6f742d61637469766500000000000000000000000000000000000081525060200191505060405180910390fd5b60045460055410156130a35760006005546004540390506000600360009054906101000a900473ffffffffffffffffffffffffffffffffffffffff1673ffffffffffffffffffffffffffffffffffffffff166370a08231306040518263ffffffff1660e01b8152600401808273ffffffffffffffffffffffffffffffffffffffff1673ffffffffffffffffffffffffffffffffffffffff168152602001915050602060405180830381600087803b158015612d1a57600080fd5b505af1158015612d2e573d6000803e3d6000fd5b505050506040513d6020811015612d4457600080fd5b8101908080519060200190929190505050905060008082841115612ef657600160009054906101000a900473ffffffffffffffffffffffffffffffffffffffff1673ffffffffffffffffffffffffffffffffffffffff166320aba08b6040518163ffffffff1660e01b815260040160206040518083038186803b158015612dca57600080fd5b505afa158015612dde573d6000803e3d6000fd5b505050506040513d6020811015612df457600080fd5b8101908080519060200190929190505050421115612eb357600160009054906101000a900473ffffffffffffffffffffffffffffffffffffffff1673ffffffffffffffffffffffffffffffffffffffff16639f678cca6040518163ffffffff1660e01b8152600401602060405180830381600087803b158015612e7657600080fd5b505af1158015612e8a573d6000803e3d6000fd5b505050506040513d6020811015612ea057600080fd5b8101908080519060200190929190505050505b8284039150612ec281846130bf565b90506000612ece6113fc565b90506000600754821115612ee457600754820390505b808410612eef578093505b5050612efa565b8390505b612f0481836130bf565b9050612f12816005546130bf565b6005819055506000821115612f2c57612f2a826130d9565b505b600360009054906101000a900473ffffffffffffffffffffffffffffffffffffffff1673ffffffffffffffffffffffffffffffffffffffff1663a9059cbb612f726116f1565b836040518363ffffffff1660e01b8152600401808373ffffffffffffffffffffffffffffffffffffffff1673ffffffffffffffffffffffffffffffffffffffff16815260200182815260200192505050602060405180830381600087803b158015612fdc57600080fd5b505af1158015612ff0573d6000803e3d6000fd5b505050506040513d602081101561300657600080fd5b81019080805190602001909291905050501561308d576130246116f1565b73ffffffffffffffffffffffffffffffffffffffff163373ffffffffffffffffffffffffffffffffffffffff167f2717ead6b9200dd235aad468c9809ea400fe33ac69b5bfaa6d3e90fc922b6398836040518082815260200191505060405180910390a361309e565b806005600082825403925050819055505b505050505b565b60008282840391508111156130b957600080fd5b92915050565b60008282840191508110156130d357600080fd5b92915050565b60008060009054906101000a900460ff1661315c576040517f08c379a00000000000000000000000000000000000000000000000000000000081526004018080602001828103825260128152602001807f4453522f6e6f742d617574686f72697a6564000000000000000000000000000081525060200191505060405180910390fd5b6000600160009054906101000a900473ffffffffffffffffffffffffffffffffffffffff1673ffffffffffffffffffffffffffffffffffffffff166320aba08b6040518163ffffffff1660e01b815260040160206040518083038186803b1580156131c657600080fd5b505afa1580156131da573d6000803e3d6000fd5b505050506040513d60208110156131f057600080fd5b810190808051906020019092919050505042116132af57600160009054906101000a900473ffffffffffffffffffffffffffffffffffffffff1673ffffffffffffffffffffffffffffffffffffffff1663c92aecc46040518163ffffffff1660e01b815260040160206040518083038186803b15801561326f57600080fd5b505afa158015613283573d6000803e3d6000fd5b505050506040513d602081101561329957600080fd5b8101908080519060200190929190505050613355565b600160009054906101000a900473ffffffffffffffffffffffffffffffffffffffff1673ffffffffffffffffffffffffffffffffffffffff16639f678cca6040518163ffffffff1660e01b8152600401602060405180830381600087803b15801561331957600080fd5b505af115801561332d573d6000803e3d6000fd5b505050506040513d602081101561334357600080fd5b81019080805190602001909291905050505b905060006133638483614307565b9050600160009054906101000a900473ffffffffffffffffffffffffffffffffffffffff1673ffffffffffffffffffffffffffffffffffffffff16637f8661a1826040518263ffffffff1660e01b815260040180828152602001915050600060405180830381600087803b1580156133da57600080fd5b505af11580156133ee573d6000803e3d6000fd5b50505050600260009054906101000a900473ffffffffffffffffffffffffffffffffffffffff1673ffffffffffffffffffffffffffffffffffffffff1663ef693bed30866040518363ffffffff1660e01b8152600401808373ffffffffffffffffffffffffffffffffffffffff1673ffffffffffffffffffffffffffffffffffffffff16815260200182815260200192505050600060405180830381600087803b15801561349b57600080fd5b505af11580156134af573d6000803e3d6000fd5b50505050600192505050919050565b6000808214806134db57508282838502925082816134d857fe5b04145b6134e457600080fd5b92915050565b60008060009054906101000a900460ff166137f757600060019054906101000a900473ffffffffffffffffffffffffffffffffffffffff1673ffffffffffffffffffffffffffffffffffffffff1663a3b22fc4600160009054906101000a900473ffffffffffffffffffffffffffffffffffffffff166040518263ffffffff1660e01b8152600401808273ffffffffffffffffffffffffffffffffffffffff1673ffffffffffffffffffffffffffffffffffffffff168152602001915050600060405180830381600087803b1580156135c257600080fd5b505af11580156135d6573d6000803e3d6000fd5b50505050600060019054906101000a900473ffffffffffffffffffffffffffffffffffffffff1673ffffffffffffffffffffffffffffffffffffffff1663a3b22fc4600260009054906101000a900473ffffffffffffffffffffffffffffffffffffffff166040518263ffffffff1660e01b8152600401808273ffffffffffffffffffffffffffffffffffffffff1673ffffffffffffffffffffffffffffffffffffffff168152602001915050600060405180830381600087803b15801561369d57600080fd5b505af11580156136b1573d6000803e3d6000fd5b50505050600360009054906101000a900473ffffffffffffffffffffffffffffffffffffffff1673ffffffffffffffffffffffffffffffffffffffff1663095ea7b3600260009054906101000a900473ffffffffffffffffffffffffffffffffffffffff167fffffffffffffffffffffffffffffffffffffffffffffffffffffffffffffffff6040518363ffffffff1660e01b8152600401808373ffffffffffffffffffffffffffffffffffffffff1673ffffffffffffffffffffffffffffffffffffffff16815260200182815260200192505050602060405180830381600087803b1580156137a057600080fd5b505af11580156137b4573d6000803e3d6000fd5b505050506040513d60208110156137ca57600080fd5b81019080805190602001909291905050505060016000806101000a81548160ff0219169083151502179055505b6001905090565b60008060009054906101000a900460ff16613881576040517f08c379a00000000000000000000000000000000000000000000000000000000081526004018080602001828103825260128152602001807f4453522f6e6f742d617574686f72697a6564000000000000000000000000000081525060200191505060405180910390fd5b6000600160009054906101000a900473ffffffffffffffffffffffffffffffffffffffff1673ffffffffffffffffffffffffffffffffffffffff166320aba08b6040518163ffffffff1660e01b815260040160206040518083038186803b1580156138eb57600080fd5b505afa1580156138ff573d6000803e3d6000fd5b505050506040513d602081101561391557600080fd5b810190808051906020019092919050505042116139d457600160009054906101000a900473ffffffffffffffffffffffffffffffffffffffff1673ffffffffffffffffffffffffffffffffffffffff1663c92aecc46040518163ffffffff1660e01b815260040160206040518083038186803b15801561399457600080fd5b505afa1580156139a8573d6000803e3d6000fd5b505050506040513d60208110156139be57600080fd5b8101908080519060200190929190505050613a7a565b600160009054906101000a900473ffffffffffffffffffffffffffffffffffffffff1673ffffffffffffffffffffffffffffffffffffffff16639f678cca6040518163ffffffff1660e01b8152600401602060405180830381600087803b158015613a3e57600080fd5b505af1158015613a52573d6000803e3d6000fd5b505050506040513d6020811015613a6857600080fd5b81019080805190602001909291905050505b90506000613a888483614343565b9050600260009054906101000a900473ffffffffffffffffffffffffffffffffffffffff1673ffffffffffffffffffffffffffffffffffffffff16633b4da69f30866040518363ffffffff1660e01b8152600401808373ffffffffffffffffffffffffffffffffffffffff1673ffffffffffffffffffffffffffffffffffffffff16815260200182815260200192505050600060405180830381600087803b158015613b3357600080fd5b505af1158015613b47573d6000803e3d6000fd5b50505050600160009054906101000a900473ffffffffffffffffffffffffffffffffffffffff1673ffffffffffffffffffffffffffffffffffffffff1663049878f3826040518263ffffffff1660e01b815260040180828152602001915050600060405180830381600087803b158015613bc057600080fd5b505af1158015613bd4573d6000803e3d6000fd5b50505050600192505050919050565b6000613bf084848461436c565b9050613bfb81611fca565b9392505050565b6000600190506000613c186004546005546130a5565b9050613c22614587565b506000600360009054906101000a900473ffffffffffffffffffffffffffffffffffffffff1673ffffffffffffffffffffffffffffffffffffffff166370a08231306040518263ffffffff1660e01b8152600401808273ffffffffffffffffffffffffffffffffffffffff1673ffffffffffffffffffffffffffffffffffffffff168152602001915050602060405180830381600087803b158015613cc657600080fd5b505af1158015613cda573d6000803e3d6000fd5b505050506040513d6020811015613cf057600080fd5b8101908080519060200190929190505050905081811115613e745760008282039050600360009054906101000a900473ffffffffffffffffffffffffffffffffffffffff1673ffffffffffffffffffffffffffffffffffffffff1663a9059cbb613d58610ed6565b836040518363ffffffff1660e01b8152600401808373ffffffffffffffffffffffffffffffffffffffff1673ffffffffffffffffffffffffffffffffffffffff16815260200182815260200192505050602060405180830381600087803b158015613dc257600080fd5b505af1158015613dd6573d6000803e3d6000fd5b505050506040513d6020811015613dec57600080fd5b810190808051906020019092919050505093508315613e7257613e0d610ed6565b73ffffffffffffffffffffffffffffffffffffffff163373ffffffffffffffffffffffffffffffffffffffff167f2717ead6b9200dd235aad468c9809ea400fe33ac69b5bfaa6d3e90fc922b6398836040518082815260200191505060405180910390a35b505b505090565b6000600190506000613e8f6007546006546130a5565b9050600081111561412a57600083905081811115613eab578190505b6000600360009054906101000a900473ffffffffffffffffffffffffffffffffffffffff1673ffffffffffffffffffffffffffffffffffffffff166370a08231306040518263ffffffff1660e01b8152600401808273ffffffffffffffffffffffffffffffffffffffff1673ffffffffffffffffffffffffffffffffffffffff168152602001915050602060405180830381600087803b158015613f4e57600080fd5b505af1158015613f62573d6000803e3d6000fd5b505050506040513d6020811015613f7857600080fd5b81019080805190602001909291905050509050613f97600654836130bf565b60068190555080821115613fb257613fb08183036130d9565b505b600360009054906101000a900473ffffffffffffffffffffffffffffffffffffffff1673ffffffffffffffffffffffffffffffffffffffff1663a9059cbb613ff8612aec565b846040518363ffffffff1660e01b8152600401808373ffffffffffffffffffffffffffffffffffffffff1673ffffffffffffffffffffffffffffffffffffffff16815260200182815260200192505050602060405180830381600087803b15801561406257600080fd5b505af1158015614076573d6000803e3d6000fd5b505050506040513d602081101561408c57600080fd5b810190808051906020019092919050505093508315614116576140ad612aec565b73ffffffffffffffffffffffffffffffffffffffff163373ffffffffffffffffffffffffffffffffffffffff167f2717ead6b9200dd235aad468c9809ea400fe33ac69b5bfaa6d3e90fc922b6398846040518082815260200191505060405180910390a3614127565b816006600082825403925050819055505b50505b50919050565b600061413a614587565b506000600360009054906101000a900473ffffffffffffffffffffffffffffffffffffffff1673ffffffffffffffffffffffffffffffffffffffff166370a08231306040518263ffffffff1660e01b8152600401808273ffffffffffffffffffffffffffffffffffffffff1673ffffffffffffffffffffffffffffffffffffffff168152602001915050602060405180830381600087803b1580156141de57600080fd5b505af11580156141f2573d6000803e3d6000fd5b505050506040513d602081101561420857600080fd5b81019080805190602001909291905050509050600360009054906101000a900473ffffffffffffffffffffffffffffffffffffffff1673ffffffffffffffffffffffffffffffffffffffff1663a9059cbb84836040518363ffffffff1660e01b8152600401808373ffffffffffffffffffffffffffffffffffffffff1673ffffffffffffffffffffffffffffffffffffffff16815260200182815260200192505050602060405180830381600087803b1580156142c457600080fd5b505af11580156142d8573d6000803e3d6000fd5b505050506040513d60208110156142ee57600080fd5b8101908080519060200190929190505050915050919050565b600081614333614323856b033b2e3c9fd0803ce80000006134be565b61432e8560016130a5565b6130bf565b8161433a57fe5b04905092915050565b60008161435c846b033b2e3c9fd0803ce80000006134be565b8161436357fe5b04905092915050565b600080600754116143e5576040517f08c379a000000000000000000000000000000000000000000000000000000000815260040180806020018281038252600e8152602001807f5244412f6e6f742d61637469766500000000000000000000000000000000000081525060200191505060405180910390fd5b600e5490506040518060a001604052803373ffffffffffffffffffffffffffffffffffffffff16815260200185600281111561441d57fe5b81526020018473ffffffffffffffffffffffffffffffffffffffff168152602001600015158152602001838152506008600083815260200190815260200160002060008201518160000160006101000a81548173ffffffffffffffffffffffffffffffffffffffff021916908373ffffffffffffffffffffffffffffffffffffffff16021790555060208201518160000160146101000a81548160ff021916908360028111156144c957fe5b021790555060408201518160010160006101000a81548173ffffffffffffffffffffffffffffffffffffffff021916908373ffffffffffffffffffffffffffffffffffffffff16021790555060608201518160010160146101000a81548160ff021916908315150217905550608082015181600201559050506001600e60008282540192505081905550807fc0ba8fe4b176c1714197d43b9cc6bcf797a4a7461c5fe8d0ef6e184ae7601e5160405160405180910390a29392505050565b60008060009054906101000a900460ff1661460a576040517f08c379a00000000000000000000000000000000000000000000000000000000081526004018080602001828103825260128152602001807f4453522f6e6f742d617574686f72697a6564000000000000000000000000000081525060200191505060405180910390fd5b600160009054906101000a900473ffffffffffffffffffffffffffffffffffffffff1673ffffffffffffffffffffffffffffffffffffffff166320aba08b6040518163ffffffff1660e01b815260040160206040518083038186803b15801561467257600080fd5b505afa158015614686573d6000803e3d6000fd5b505050506040513d602081101561469c57600080fd5b810190808051906020019092919050505042111561475b57600160009054906101000a900473ffffffffffffffffffffffffffffffffffffffff1673ffffffffffffffffffffffffffffffffffffffff16639f678cca6040518163ffffffff1660e01b8152600401602060405180830381600087803b15801561471e57600080fd5b505af1158015614732573d6000803e3d6000fd5b505050506040513d602081101561474857600080fd5b8101908080519060200190929190505050505b600160009054906101000a900473ffffffffffffffffffffffffffffffffffffffff1673ffffffffffffffffffffffffffffffffffffffff16637f8661a1600160009054906101000a900473ffffffffffffffffffffffffffffffffffffffff1673ffffffffffffffffffffffffffffffffffffffff16630bebac86306040518263ffffffff1660e01b8152600401808273ffffffffffffffffffffffffffffffffffffffff1673ffffffffffffffffffffffffffffffffffffffff16815260200191505060206040518083038186803b15801561483857600080fd5b505afa15801561484c573d6000803e3d6000fd5b505050506040513d602081101561486257600080fd5b81019080805190602001909291905050506040518263ffffffff1660e01b815260040180828152602001915050600060405180830381600087803b1580156148a957600080fd5b505af11580156148bd573d6000803e3d6000fd5b50505050600260009054906101000a900473ffffffffffffffffffffffffffffffffffffffff1673ffffffffffffffffffffffffffffffffffffffff1663ef693bed306b033b2e3c9fd0803ce8000000600060019054906101000a900473ffffffffffffffffffffffffffffffffffffffff1673ffffffffffffffffffffffffffffffffffffffff16636c25b346306040518263ffffffff1660e01b8152600401808273ffffffffffffffffffffffffffffffffffffffff1673ffffffffffffffffffffffffffffffffffffffff16815260200191505060206040518083038186803b1580156149ac57600080fd5b505afa1580156149c0573d6000803e3d6000fd5b505050506040513d60208110156149d657600080fd5b8101908080519060200190929190505050816149ee57fe5b046040518363ffffffff1660e01b8152600401808373ffffffffffffffffffffffffffffffffffffffff1673ffffffffffffffffffffffffffffffffffffffff16815260200182815260200192505050600060405180830381600087803b158015614a5857600080fd5b505af1158015614a6c573d6000803e3d6000fd5b505050506001905090565b6040518060a00160405280600073ffffffffffffffffffffffffffffffffffffffff16815260200160006002811115614aac57fe5b8152602001600073ffffffffffffffffffffffffffffffffffffffff16815260200160001515815260200160008152509056fea264697066735822122094185a22f146df25655e308f50a724d99772e30832d3816211f4f4cd4cf2fe9064736f6c63430006030033a2646970667358221220442d440de82c26f0a1d903bb4298497888e0a4afc2208f91cdef2a7d6826c98164736f6c63430006030033",
  "source": "pragma solidity 0.6.3;\r\n\r\nimport './MultisigRDA.sol';\r\n\r\ncontract RDARegistry {\r\n    mapping(uint => address) public rdaAddresses;\r\n    mapping(uint => rdaContract) public rdaContracts;\r\n\r\n    struct rdaContract {\r\n        address tenant;\r\n        address landlord;\r\n        address trustee;\r\n    }\r\n\r\n    uint public rdaCount;\r\n\r\n    event createdRDA(\r\n        address indexed rdaAddress,\r\n        uint id,\r\n        address tenant,\r\n        address landlord,\r\n        address trustee\r\n    );\r\n\r\n    function createRDA(address tenant, address landlord, address trustee, uint trusteeFee)\r\n        public\r\n        returns(address rdaAddress)\r\n    {\r\n        MultisigRDA rda = new MultisigRDA(tenant, landlord, trustee, trusteeFee);\r\n        rdaAddress = address(rda);\r\n        rdaAddresses[rdaCount] = rdaAddress;\r\n        rdaContracts[rdaCount] = rdaContract(tenant, landlord, trustee);\r\n        emit createdRDA(rdaAddress, rdaCount, tenant, landlord, trustee);\r\n        rdaCount += 1;\r\n    }\r\n\r\n    function getByParticipant(address participant)\r\n        public\r\n        view\r\n        returns(address[] memory contracts)\r\n    {\r\n        uint[] memory tempContractIds = new uint[](rdaCount);\r\n        uint count = 0;\r\n        for (uint i = 0; i < rdaCount; i++) {\r\n            rdaContract memory rda = rdaContracts[i];\r\n            if (rda.tenant == participant || rda.landlord == participant || rda.trustee == participant) {\r\n                tempContractIds[count] = i;\r\n                count += 1;\r\n            }\r\n        }\r\n        contracts = new address[](count);\r\n        for (uint i = 0; i < count; i++) {\r\n            contracts[i] = rdaAddresses[i];\r\n        }\r\n    }\r\n}\r\n",
  "sourcePath": "C:\\Users\\Matthias\\Documents\\_uni\\fs2020\\seminar_blockchain\\src\\contracts\\RDARegistry.sol",
  "compiler": {
    "name": "solc",
    "version": "0.6.3+commit.8dda9521.Emscripten.clang"
  },
  "schemaVersion": "3.0.23",
  "updatedAt": "2020-03-15T10:24:05.778Z",
  "networkType": "ethereum",
  "devdoc": {
    "methods": {}
  },
  "userdoc": {
    "methods": {}
  }
}