{
  "contractName": "TestWrapperSavingDai",
  "abi": [
    {
      "inputs": [],
      "stateMutability": "nonpayable",
      "type": "constructor"
    },
    {
      "inputs": [],
      "name": "daiJoin",
      "outputs": [
        {
          "internalType": "contract JoinLike",
          "name": "",
          "type": "address"
        }
      ],
      "stateMutability": "view",
      "type": "function",
      "constant": true
    },
    {
      "inputs": [],
      "name": "daiToken",
      "outputs": [
        {
          "internalType": "contract GemLike",
          "name": "",
          "type": "address"
        }
      ],
      "stateMutability": "view",
      "type": "function",
      "constant": true
    },
    {
      "inputs": [],
      "name": "dsrBalance",
      "outputs": [
        {
          "internalType": "uint256",
          "name": "",
          "type": "uint256"
        }
      ],
      "stateMutability": "view",
      "type": "function",
      "constant": true
    },
    {
      "inputs": [],
      "name": "pot",
      "outputs": [
        {
          "internalType": "contract PotLike",
          "name": "",
          "type": "address"
        }
      ],
      "stateMutability": "view",
      "type": "function",
      "constant": true
    },
    {
      "inputs": [],
      "name": "vat",
      "outputs": [
        {
          "internalType": "contract VatLike",
          "name": "",
          "type": "address"
        }
      ],
      "stateMutability": "view",
      "type": "function",
      "constant": true
    },
    {
      "inputs": [
        {
          "internalType": "uint256",
          "name": "wad",
          "type": "uint256"
        }
      ],
      "name": "join_",
      "outputs": [],
      "stateMutability": "nonpayable",
      "type": "function"
    },
    {
      "inputs": [
        {
          "internalType": "uint256",
          "name": "wad",
          "type": "uint256"
        }
      ],
      "name": "exit_",
      "outputs": [],
      "stateMutability": "nonpayable",
      "type": "function"
    },
    {
      "inputs": [],
      "name": "exitAll_",
      "outputs": [],
      "stateMutability": "nonpayable",
      "type": "function"
    }
  ],
  "bytecode": "0x6080604052600080547411c8d156e1b5fd883e31e9091874f2af80b0277500610100600160a81b0319909116179055600180546001600160a01b03199081167319e602e0dc93749ea7afa0c88f4693d4c02102d317909155600280548216738c4be23de45f82a4fec7a93f69929bd2a13a477717905560038054909116738d68d36d45a34a6ff368069bd0baa32ad49a60921790553480156100a057600080fd5b506100b26001600160e01b036100b816565b50610233565b6000805460ff1661022d5760008054600154604080516328ec8bf160e21b81526001600160a01b03928316600482015290516101009093049091169263a3b22fc49260248084019382900301818387803b15801561011557600080fd5b505af1158015610129573d6000803e3d6000fd5b505060008054600254604080516328ec8bf160e21b81526001600160a01b0392831660048201529051610100909304909116945063a3b22fc49350602480820193929182900301818387803b15801561018157600080fd5b505af1158015610195573d6000803e3d6000fd5b50506003546002546040805163095ea7b360e01b81526001600160a01b0392831660048201526000196024820152905191909216935063095ea7b3925060448083019260209291908290030181600087803b1580156101f357600080fd5b505af1158015610207573d6000803e3d6000fd5b505050506040513d602081101561021d57600080fd5b50506000805460ff191660011790555b50600190565b610bdb806102426000396000f3fe608060405234801561001057600080fd5b50600436106100885760003560e01c806350d1d2271161005b57806350d1d227146100f2578063be22f5461461010f578063c11645bc14610117578063faa3de931461011f57610088565b8063146554ca1461008d578063357c016a146100ac57806336569e77146100c65780634ba2363a146100ea575b600080fd5b6100aa600480360360208110156100a357600080fd5b5035610127565b005b6100b4610134565b60408051918252519081900360200190f35b6100ce61024f565b604080516001600160a01b039092168252519081900360200190f35b6100ce610263565b6100aa6004803603602081101561010857600080fd5b5035610272565b6100ce61027b565b6100ce61028a565b6100aa610299565b610130816102a4565b5050565b600154604080516305f5d64360e11b8152306004820152905160009283926001600160a01b0390911691630bebac8691602480820192602092909190829003018186803b15801561018457600080fd5b505afa158015610198573d6000803e3d6000fd5b505050506040513d60208110156101ae57600080fd5b50516001546040805163324abb3160e21b815290519293506000926001600160a01b039092169163c92aecc491600480820192602092909190829003018186803b1580156101fb57600080fd5b505afa15801561020f573d6000803e3d6000fd5b505050506040513d602081101561022557600080fd5b505190506b033b2e3c9fd0803ce8000000610240838361054f565b8161024757fe5b049250505090565b60005461010090046001600160a01b031681565b6001546001600160a01b031681565b61013081610579565b6003546001600160a01b031681565b6002546001600160a01b031681565b6102a1610802565b50565b6000805460ff166102f1576040805162461bcd60e51b81526020600482015260126024820152711114d48bdb9bdd0b585d5d1a1bdc9a5e995960721b604482015290519081900360640190fd5b600154604080516320aba08b60e01b815290516000926001600160a01b0316916320aba08b916004808301926020929190829003018186803b15801561033657600080fd5b505afa15801561034a573d6000803e3d6000fd5b505050506040513d602081101561036057600080fd5b505142116103e757600160009054906101000a90046001600160a01b03166001600160a01b031663c92aecc46040518163ffffffff1660e01b815260040160206040518083038186803b1580156103b657600080fd5b505afa1580156103ca573d6000803e3d6000fd5b505050506040513d60208110156103e057600080fd5b5051610464565b600160009054906101000a90046001600160a01b03166001600160a01b0316639f678cca6040518163ffffffff1660e01b8152600401602060405180830381600087803b15801561043757600080fd5b505af115801561044b573d6000803e3d6000fd5b505050506040513d602081101561046157600080fd5b50515b905060006104728483610b31565b60015460408051637f8661a160e01b81526004810184905290519293506001600160a01b0390911691637f8661a19160248082019260009290919082900301818387803b1580156104c257600080fd5b505af11580156104d6573d6000803e3d6000fd5b50506002546040805163ef693bed60e01b81523060048201526024810189905290516001600160a01b03909216935063ef693bed925060448082019260009290919082900301818387803b15801561052d57600080fd5b505af1158015610541573d6000803e3d6000fd5b506001979650505050505050565b600081158061056a5750508082028282828161056757fe5b04145b61057357600080fd5b92915050565b6000805460ff166105c6576040805162461bcd60e51b81526020600482015260126024820152711114d48bdb9bdd0b585d5d1a1bdc9a5e995960721b604482015290519081900360640190fd5b600154604080516320aba08b60e01b815290516000926001600160a01b0316916320aba08b916004808301926020929190829003018186803b15801561060b57600080fd5b505afa15801561061f573d6000803e3d6000fd5b505050506040513d602081101561063557600080fd5b505142116106bc57600160009054906101000a90046001600160a01b03166001600160a01b031663c92aecc46040518163ffffffff1660e01b815260040160206040518083038186803b15801561068b57600080fd5b505afa15801561069f573d6000803e3d6000fd5b505050506040513d60208110156106b557600080fd5b5051610739565b600160009054906101000a90046001600160a01b03166001600160a01b0316639f678cca6040518163ffffffff1660e01b8152600401602060405180830381600087803b15801561070c57600080fd5b505af1158015610720573d6000803e3d6000fd5b505050506040513d602081101561073657600080fd5b50515b905060006107478483610b6c565b60025460408051633b4da69f60e01b81523060048201526024810188905290519293506001600160a01b0390911691633b4da69f9160448082019260009290919082900301818387803b15801561079d57600080fd5b505af11580156107b1573d6000803e3d6000fd5b50506001546040805163049878f360e01b81526004810186905290516001600160a01b03909216935063049878f3925060248082019260009290919082900301818387803b15801561052d57600080fd5b6000805460ff1661084f576040805162461bcd60e51b81526020600482015260126024820152711114d48bdb9bdd0b585d5d1a1bdc9a5e995960721b604482015290519081900360640190fd5b600160009054906101000a90046001600160a01b03166001600160a01b03166320aba08b6040518163ffffffff1660e01b815260040160206040518083038186803b15801561089d57600080fd5b505afa1580156108b1573d6000803e3d6000fd5b505050506040513d60208110156108c757600080fd5b505142111561094d57600160009054906101000a90046001600160a01b03166001600160a01b0316639f678cca6040518163ffffffff1660e01b8152600401602060405180830381600087803b15801561092057600080fd5b505af1158015610934573d6000803e3d6000fd5b505050506040513d602081101561094a57600080fd5b50505b600154604080516305f5d64360e11b815230600482015290516001600160a01b0390921691637f8661a1918391630bebac8691602480820192602092909190829003018186803b1580156109a057600080fd5b505afa1580156109b4573d6000803e3d6000fd5b505050506040513d60208110156109ca57600080fd5b5051604080516001600160e01b031960e085901b168152600481019290925251602480830192600092919082900301818387803b158015610a0a57600080fd5b505af1158015610a1e573d6000803e3d6000fd5b505060025460005460408051633612d9a360e11b8152306004820181905291516001600160a01b03948516965063ef693bed955091936b033b2e3c9fd0803ce80000009361010090041691636c25b34691602480820192602092909190829003018186803b158015610a8f57600080fd5b505afa158015610aa3573d6000803e3d6000fd5b505050506040513d6020811015610ab957600080fd5b505181610ac257fe5b046040518363ffffffff1660e01b815260040180836001600160a01b03166001600160a01b0316815260200182815260200192505050600060405180830381600087803b158015610b1257600080fd5b505af1158015610b26573d6000803e3d6000fd5b505050506001905090565b600081610b5d610b4d856b033b2e3c9fd0803ce800000061054f565b610b58856001610b85565b610b95565b81610b6457fe5b049392505050565b600081610b5d846b033b2e3c9fd0803ce800000061054f565b8082038281111561057357600080fd5b8082018281101561057357600080fdfea2646970667358221220cfe3334440feca9eb7d815f7c40e54905525015351d9a302d44713f72775abeb64736f6c63430006030033",
  "source": "pragma solidity 0.6.3;\r\n\r\nimport \"./SavingDai.sol\";\r\n\r\n// Wrapper to test the internal functions of the SavingDai contract\r\ncontract TestWrapperSavingDai is SavingDai {\r\n\r\n    constructor() public {\r\n        dsrAuthorize();\r\n    }\r\n\r\n    function join_(uint wad) external {\r\n        dsrJoin(wad);\r\n    }\r\n\r\n    function exit_(uint wad) external {\r\n        dsrExit(wad);\r\n    }\r\n\r\n    function exitAll_() external {\r\n        dsrExitAll();\r\n    }\r\n}\r\n",
  "sourcePath": "C:\\Users\\Matthias\\Documents\\_uni\\fs2020\\seminar_blockchain\\src\\contracts\\TestWrapperSavingDai.sol",
  "compiler": {
    "name": "solc",
    "version": "0.6.3+commit.8dda9521.Emscripten.clang"
  },
  "schemaVersion": "3.0.23",
  "updatedAt": "2020-03-21T08:37:20.253Z",
  "networkType": "ethereum",
  "devdoc": {
    "methods": {
      "dsrBalance()": {
        "details": "check the current balance, including compounded interest, that this contract owns      in the pot.",
        "returns": {
          "_0": "balance the total amount of DAI locked in the pot"
        }
      }
    }
  },
  "userdoc": {
    "methods": {}
  }
}