{
  "contractName": "DaiSaving",
  "abi": [
    {
      "constant": true,
      "inputs": [],
      "name": "a",
      "outputs": [
        {
          "internalType": "uint256",
          "name": "",
          "type": "uint256"
        }
      ],
      "payable": false,
      "stateMutability": "view",
      "type": "function"
    },
    {
      "constant": false,
      "inputs": [],
      "name": "start",
      "outputs": [],
      "payable": false,
      "stateMutability": "nonpayable",
      "type": "function"
    },
    {
      "constant": true,
      "inputs": [],
      "name": "getA",
      "outputs": [
        {
          "internalType": "uint256",
          "name": "",
          "type": "uint256"
        }
      ],
      "payable": false,
      "stateMutability": "view",
      "type": "function"
    }
  ],
  "bytecode": "0x608060405234801561001057600080fd5b5061017b806100206000396000f3fe608060405234801561001057600080fd5b50600436106100415760003560e01c80630dbe671f14610046578063be9a655514610064578063d46300fd1461006e575b600080fd5b61004e61008c565b6040518082815260200191505060405180910390f35b61006c610092565b005b61007661013d565b6040518082815260200191505060405180910390f35b60005481565b60007319e602e0dc93749ea7afa0c88f4693d4c02102d3905060008173ffffffffffffffffffffffffffffffffffffffff16639f678cca6040518163ffffffff1660e01b8152600401602060405180830381600087803b1580156100f557600080fd5b505af1158015610109573d6000803e3d6000fd5b505050506040513d602081101561011f57600080fd5b81019080805190602001909291905050509050806000819055505050565b6000805490509056fea265627a7a72315820939b911729ae2e7d536f684ace4b540e9ebae3c7e42c62fa8e6fb9859ad7f7fe64736f6c63430005100032",
  "source": "pragma solidity >= 0.5.15  < 0.6.0;\r\n\r\n\r\ninterface PotLike {\r\n    function drip() external  returns (uint tmp);\r\n    function join(uint wad) external;\r\n    function exit(uint wad) external;\r\n}\r\n\r\n\r\ncontract DaiSaving {\r\n\r\n    uint public a;\r\n\r\n    function start() external {\r\n        PotLike pot = PotLike(0x19E602E0dC93749Ea7aFa0C88F4693d4C02102D3);\r\n        uint _a = pot.drip();\r\n        a = _a;\r\n    }\r\n\r\n    function getA() external view returns (uint) {\r\n        return a;\r\n    }\r\n\r\n//    function DsrCog(){\r\n//\r\n//    }\r\n}\r\n",
  "sourcePath": "C:\\Users\\Matthias\\Documents\\_uni\\fs2020\\seminar_blockchain\\src\\contracts\\DaiSaving.sol",
  "compiler": {
    "name": "solc",
    "version": "0.5.16+commit.9c3226ce.Emscripten.clang"
  },
  "schemaVersion": "3.0.23",
  "updatedAt": "2020-02-28T08:20:13.013Z",
  "devdoc": {
    "methods": {}
  },
  "userdoc": {
    "methods": {}
  }
}