{
  "contractName": "MultisigRDA",
  "abi": [
    {
      "inputs": [
        {
          "internalType": "address",
          "name": "tenant",
          "type": "address"
        },
        {
          "internalType": "address",
          "name": "landlord",
          "type": "address"
        },
        {
          "internalType": "address",
          "name": "trustee",
          "type": "address"
        },
        {
          "internalType": "uint256",
          "name": "_trusteeFee",
          "type": "uint256"
        }
      ],
      "stateMutability": "nonpayable",
      "type": "constructor"
    },
    {
      "anonymous": false,
      "inputs": [
        {
          "indexed": true,
          "internalType": "address",
          "name": "sender",
          "type": "address"
        },
        {
          "indexed": true,
          "internalType": "uint256",
          "name": "txnId",
          "type": "uint256"
        }
      ],
      "name": "Confirmation",
      "type": "event"
    },
    {
      "anonymous": false,
      "inputs": [
        {
          "indexed": true,
          "internalType": "uint256",
          "name": "txnId",
          "type": "uint256"
        }
      ],
      "name": "Execution",
      "type": "event"
    },
    {
      "anonymous": false,
      "inputs": [
        {
          "indexed": true,
          "internalType": "uint256",
          "name": "txnId",
          "type": "uint256"
        }
      ],
      "name": "ExecutionFailure",
      "type": "event"
    },
    {
      "anonymous": false,
      "inputs": [
        {
          "indexed": true,
          "internalType": "address",
          "name": "sender",
          "type": "address"
        },
        {
          "indexed": true,
          "internalType": "uint256",
          "name": "txnId",
          "type": "uint256"
        }
      ],
      "name": "Revocation",
      "type": "event"
    },
    {
      "anonymous": false,
      "inputs": [
        {
          "indexed": true,
          "internalType": "uint256",
          "name": "txnId",
          "type": "uint256"
        }
      ],
      "name": "Submission",
      "type": "event"
    },
    {
      "anonymous": false,
      "inputs": [
        {
          "indexed": true,
          "internalType": "address",
          "name": "sender",
          "type": "address"
        },
        {
          "indexed": true,
          "internalType": "address",
          "name": "receiver",
          "type": "address"
        },
        {
          "indexed": false,
          "internalType": "uint256",
          "name": "value",
          "type": "uint256"
        }
      ],
      "name": "Withdrawal",
      "type": "event"
    },
    {
      "inputs": [
        {
          "internalType": "uint256",
          "name": "",
          "type": "uint256"
        },
        {
          "internalType": "address",
          "name": "",
          "type": "address"
        }
      ],
      "name": "confirmations",
      "outputs": [
        {
          "internalType": "bool",
          "name": "",
          "type": "bool"
        }
      ],
      "stateMutability": "view",
      "type": "function"
    },
    {
      "inputs": [],
      "name": "daiJoin",
      "outputs": [
        {
          "internalType": "contract JoinLike",
          "name": "",
          "type": "address"
        }
      ],
      "stateMutability": "view",
      "type": "function"
    },
    {
      "inputs": [],
      "name": "daiToken",
      "outputs": [
        {
          "internalType": "contract GemLike",
          "name": "",
          "type": "address"
        }
      ],
      "stateMutability": "view",
      "type": "function"
    },
    {
      "inputs": [],
      "name": "deposit",
      "outputs": [
        {
          "internalType": "uint256",
          "name": "",
          "type": "uint256"
        }
      ],
      "stateMutability": "view",
      "type": "function"
    },
    {
      "inputs": [],
      "name": "dsrBalance",
      "outputs": [
        {
          "internalType": "uint256",
          "name": "",
          "type": "uint256"
        }
      ],
      "stateMutability": "view",
      "type": "function"
    },
    {
      "inputs": [
        {
          "internalType": "address",
          "name": "",
          "type": "address"
        }
      ],
      "name": "isParticipant",
      "outputs": [
        {
          "internalType": "bool",
          "name": "",
          "type": "bool"
        }
      ],
      "stateMutability": "view",
      "type": "function"
    },
    {
      "inputs": [
        {
          "internalType": "uint256",
          "name": "",
          "type": "uint256"
        }
      ],
      "name": "participants",
      "outputs": [
        {
          "internalType": "address",
          "name": "",
          "type": "address"
        }
      ],
      "stateMutability": "view",
      "type": "function"
    },
    {
      "inputs": [],
      "name": "pot",
      "outputs": [
        {
          "internalType": "contract PotLike",
          "name": "",
          "type": "address"
        }
      ],
      "stateMutability": "view",
      "type": "function"
    },
    {
      "inputs": [
        {
          "internalType": "uint256",
          "name": "",
          "type": "uint256"
        }
      ],
      "name": "transactions",
      "outputs": [
        {
          "internalType": "address",
          "name": "owner",
          "type": "address"
        },
        {
          "internalType": "enum MultisigRDA.TransactionType",
          "name": "txnType",
          "type": "uint8"
        },
        {
          "internalType": "address",
          "name": "dest",
          "type": "address"
        },
        {
          "internalType": "bool",
          "name": "executed",
          "type": "bool"
        },
        {
          "internalType": "uint256",
          "name": "value",
          "type": "uint256"
        }
      ],
      "stateMutability": "view",
      "type": "function"
    },
    {
      "inputs": [],
      "name": "trusteeFee",
      "outputs": [
        {
          "internalType": "uint256",
          "name": "",
          "type": "uint256"
        }
      ],
      "stateMutability": "view",
      "type": "function"
    },
    {
      "inputs": [],
      "name": "trusteeFeePaid",
      "outputs": [
        {
          "internalType": "uint256",
          "name": "",
          "type": "uint256"
        }
      ],
      "stateMutability": "view",
      "type": "function"
    },
    {
      "inputs": [],
      "name": "txnCount",
      "outputs": [
        {
          "internalType": "uint256",
          "name": "",
          "type": "uint256"
        }
      ],
      "stateMutability": "view",
      "type": "function"
    },
    {
      "inputs": [],
      "name": "vat",
      "outputs": [
        {
          "internalType": "contract VatLike",
          "name": "",
          "type": "address"
        }
      ],
      "stateMutability": "view",
      "type": "function"
    },
    {
      "inputs": [],
      "name": "start",
      "outputs": [],
      "stateMutability": "nonpayable",
      "type": "function"
    },
    {
      "inputs": [
        {
          "internalType": "uint256",
          "name": "txnId",
          "type": "uint256"
        }
      ],
      "name": "confirmTransaction",
      "outputs": [],
      "stateMutability": "nonpayable",
      "type": "function"
    },
    {
      "inputs": [
        {
          "internalType": "uint256",
          "name": "txnId",
          "type": "uint256"
        }
      ],
      "name": "revokeConfirmation",
      "outputs": [],
      "stateMutability": "nonpayable",
      "type": "function"
    },
    {
      "inputs": [
        {
          "internalType": "uint256",
          "name": "txnId",
          "type": "uint256"
        }
      ],
      "name": "executeTransaction",
      "outputs": [],
      "stateMutability": "nonpayable",
      "type": "function"
    },
    {
      "inputs": [],
      "name": "withdrawTrusteeFee",
      "outputs": [],
      "stateMutability": "nonpayable",
      "type": "function"
    },
    {
      "inputs": [],
      "name": "currentInterest",
      "outputs": [
        {
          "internalType": "uint256",
          "name": "interest",
          "type": "uint256"
        }
      ],
      "stateMutability": "view",
      "type": "function"
    },
    {
      "inputs": [
        {
          "internalType": "uint256",
          "name": "txnId",
          "type": "uint256"
        }
      ],
      "name": "isConfirmed",
      "outputs": [
        {
          "internalType": "bool",
          "name": "",
          "type": "bool"
        }
      ],
      "stateMutability": "view",
      "type": "function"
    },
    {
      "inputs": [],
      "name": "getTenant",
      "outputs": [
        {
          "internalType": "address",
          "name": "",
          "type": "address"
        }
      ],
      "stateMutability": "view",
      "type": "function"
    },
    {
      "inputs": [],
      "name": "getLandlord",
      "outputs": [
        {
          "internalType": "address",
          "name": "",
          "type": "address"
        }
      ],
      "stateMutability": "view",
      "type": "function"
    },
    {
      "inputs": [],
      "name": "getTrustee",
      "outputs": [
        {
          "internalType": "address",
          "name": "",
          "type": "address"
        }
      ],
      "stateMutability": "view",
      "type": "function"
    },
    {
      "inputs": [
        {
          "internalType": "uint8",
          "name": "txnType",
          "type": "uint8"
        }
      ],
      "name": "submitTransaction",
      "outputs": [
        {
          "internalType": "uint256",
          "name": "txnId",
          "type": "uint256"
        }
      ],
      "stateMutability": "nonpayable",
      "type": "function"
    },
    {
      "inputs": [
        {
          "internalType": "uint8",
          "name": "txnType",
          "type": "uint8"
        },
        {
          "internalType": "address",
          "name": "dest",
          "type": "address"
        }
      ],
      "name": "submitTransaction",
      "outputs": [
        {
          "internalType": "uint256",
          "name": "txnId",
          "type": "uint256"
        }
      ],
      "stateMutability": "nonpayable",
      "type": "function"
    },
    {
      "inputs": [
        {
          "internalType": "uint8",
          "name": "txnType",
          "type": "uint8"
        },
        {
          "internalType": "uint256",
          "name": "value",
          "type": "uint256"
        }
      ],
      "name": "submitTransaction",
      "outputs": [
        {
          "internalType": "uint256",
          "name": "txnId",
          "type": "uint256"
        }
      ],
      "stateMutability": "nonpayable",
      "type": "function"
    },
    {
      "inputs": [
        {
          "internalType": "uint256",
          "name": "txnId",
          "type": "uint256"
        }
      ],
      "name": "getConfirmationCount",
      "outputs": [
        {
          "internalType": "uint256",
          "name": "count",
          "type": "uint256"
        }
      ],
      "stateMutability": "view",
      "type": "function"
    },
    {
      "inputs": [
        {
          "internalType": "uint256",
          "name": "txnId",
          "type": "uint256"
        }
      ],
      "name": "getConfirmationStatus",
      "outputs": [
        {
          "internalType": "bool[]",
          "name": "confirmationStatus",
          "type": "bool[]"
        }
      ],
      "stateMutability": "view",
      "type": "function"
    },
    {
      "inputs": [
        {
          "internalType": "bool",
          "name": "pending",
          "type": "bool"
        },
        {
          "internalType": "bool",
          "name": "executed",
          "type": "bool"
        }
      ],
      "name": "getTransactionIds",
      "outputs": [
        {
          "internalType": "uint256[]",
          "name": "txnIds",
          "type": "uint256[]"
        }
      ],
      "stateMutability": "view",
      "type": "function"
    }
  ],
  "bytecode": "0x60806040527311c8d156e1b5fd883e31e9091874f2af80b02775600060016101000a81548173ffffffffffffffffffffffffffffffffffffffff021916908373ffffffffffffffffffffffffffffffffffffffff1602179055507319e602e0dc93749ea7afa0c88f4693d4c02102d3600160006101000a81548173ffffffffffffffffffffffffffffffffffffffff021916908373ffffffffffffffffffffffffffffffffffffffff160217905550738c4be23de45f82a4fec7a93f69929bd2a13a4777600260006101000a81548173ffffffffffffffffffffffffffffffffffffffff021916908373ffffffffffffffffffffffffffffffffffffffff160217905550738d68d36d45a34a6ff368069bd0baa32ad49a6092600360006101000a81548173ffffffffffffffffffffffffffffffffffffffff021916908373ffffffffffffffffffffffffffffffffffffffff1602179055503480156200016557600080fd5b5060405162003dae38038062003dae833981810160405260808110156200018b57600080fd5b8101908080519060200190929190805190602001909291908051906020019092919080519060200190929190505050600073ffffffffffffffffffffffffffffffffffffffff168473ffffffffffffffffffffffffffffffffffffffff1614158015620002255750600073ffffffffffffffffffffffffffffffffffffffff168373ffffffffffffffffffffffffffffffffffffffff1614155b80156200025f5750600073ffffffffffffffffffffffffffffffffffffffff168273ffffffffffffffffffffffffffffffffffffffff1614155b620002d2576040517f08c379a00000000000000000000000000000000000000000000000000000000081526004018080602001828103825260118152602001807f5244412f656d7074792d6164647265737300000000000000000000000000000081525060200191505060405180910390fd5b60405180606001604052808573ffffffffffffffffffffffffffffffffffffffff1673ffffffffffffffffffffffffffffffffffffffff1681526020018473ffffffffffffffffffffffffffffffffffffffff1673ffffffffffffffffffffffffffffffffffffffff1681526020018373ffffffffffffffffffffffffffffffffffffffff1673ffffffffffffffffffffffffffffffffffffffff168152506009906003620003839291906200049d565b506001600c60008673ffffffffffffffffffffffffffffffffffffffff1673ffffffffffffffffffffffffffffffffffffffff16815260200190815260200160002060006101000a81548160ff0219169083151502179055506001600c60008573ffffffffffffffffffffffffffffffffffffffff1673ffffffffffffffffffffffffffffffffffffffff16815260200190815260200160002060006101000a81548160ff0219169083151502179055506001600c60008473ffffffffffffffffffffffffffffffffffffffff1673ffffffffffffffffffffffffffffffffffffffff16815260200190815260200160002060006101000a81548160ff021916908315150217905550806004819055505050505062000565565b82600381019282156200050c579160200282015b828111156200050b5782518260006101000a81548173ffffffffffffffffffffffffffffffffffffffff021916908373ffffffffffffffffffffffffffffffffffffffff16021790555091602001919060010190620004b1565b5b5090506200051b91906200051f565b5090565b6200056291905b808211156200055e57600081816101000a81549073ffffffffffffffffffffffffffffffffffffffff02191690555060010162000526565b5090565b90565b61383980620005756000396000f3fe608060405234801561001057600080fd5b50600436106101cf5760003560e01c80639ace38c211610104578063c703f44c116100a2578063ee22610b11610071578063ee22610b14610919578063f502236d14610947578063f7e7d35a14610991578063f92e88ca146109af576101cf565b8063c703f44c14610870578063d0e30db01461088e578063d5796b95146108ac578063eb42013c146108fb576101cf565b8063be22f546116100de578063be22f546146107a4578063be9a6555146107ee578063c01a8c84146107f8578063c11645bc14610826576101cf565b80639ace38c2146105e65780639de5dcd6146106ae578063b13888721461073f576101cf565b806336c47a9011610171578063784547a71161014b578063784547a7146104e457806378ce13651461052a5780638b51d13f14610548578063929066f51461058a576101cf565b806336c47a901461040b5780634ba2363a146104505780636216b6e31461049a576101cf565b80633411c81c116101ad5780633411c81c146102cf578063357c016a1461033557806335c1d3491461035357806336569e77146103c1576101cf565b80630b3bb024146101d45780630f979c281461021e57806320ea8d86146102a1575b600080fd5b6101dc6109b9565b604051808273ffffffffffffffffffffffffffffffffffffffff1673ffffffffffffffffffffffffffffffffffffffff16815260200191505060405180910390f35b61024a6004803603602081101561023457600080fd5b81019080803590602001909291905050506109f0565b6040518080602001828103825283818151815260200191508051906020019060200280838360005b8381101561028d578082015181840152602081019050610272565b505050509050019250505060405180910390f35b6102cd600480360360208110156102b757600080fd5b8101908080359060200190929190505050610af9565b005b61031b600480360360408110156102e557600080fd5b8101908080359060200190929190803573ffffffffffffffffffffffffffffffffffffffff169060200190929190505050610eb0565b604051808215151515815260200191505060405180910390f35b61033d610edf565b6040518082815260200191505060405180910390f35b61037f6004803603602081101561036957600080fd5b810190808035906020019092919050505061108b565b604051808273ffffffffffffffffffffffffffffffffffffffff1673ffffffffffffffffffffffffffffffffffffffff16815260200191505060405180910390f35b6103c96110be565b604051808273ffffffffffffffffffffffffffffffffffffffff1673ffffffffffffffffffffffffffffffffffffffff16815260200191505060405180910390f35b61043a6004803603602081101561042157600080fd5b81019080803560ff1690602001909291905050506110e4565b6040518082815260200191505060405180910390f35b61045861124d565b604051808273ffffffffffffffffffffffffffffffffffffffff1673ffffffffffffffffffffffffffffffffffffffff16815260200191505060405180910390f35b6104a2611273565b604051808273ffffffffffffffffffffffffffffffffffffffff1673ffffffffffffffffffffffffffffffffffffffff16815260200191505060405180910390f35b610510600480360360208110156104fa57600080fd5b81019080803590602001909291905050506112aa565b604051808215151515815260200191505060405180910390f35b610532611381565b6040518082815260200191505060405180910390f35b6105746004803603602081101561055e57600080fd5b8101908080359060200190929190505050611387565b6040518082815260200191505060405180910390f35b6105cc600480360360208110156105a057600080fd5b81019080803573ffffffffffffffffffffffffffffffffffffffff169060200190929190505050611443565b604051808215151515815260200191505060405180910390f35b610612600480360360208110156105fc57600080fd5b8101908080359060200190929190505050611463565b604051808673ffffffffffffffffffffffffffffffffffffffff1673ffffffffffffffffffffffffffffffffffffffff16815260200185600281111561065457fe5b60ff1681526020018473ffffffffffffffffffffffffffffffffffffffff1673ffffffffffffffffffffffffffffffffffffffff168152602001831515151581526020018281526020019550505050505060405180910390f35b6106e8600480360360408110156106c457600080fd5b810190808035151590602001909291908035151590602001909291905050506114f3565b6040518080602001828103825283818151815260200191508051906020019060200280838360005b8381101561072b578082015181840152602081019050610710565b505050509050019250505060405180910390f35b61078e6004803603604081101561075557600080fd5b81019080803560ff169060200190929190803573ffffffffffffffffffffffffffffffffffffffff169060200190929190505050611654565b6040518082815260200191505060405180910390f35b6107ac6117bd565b604051808273ffffffffffffffffffffffffffffffffffffffff1673ffffffffffffffffffffffffffffffffffffffff16815260200191505060405180910390f35b6107f66117e3565b005b6108246004803603602081101561080e57600080fd5b8101908080359060200190929190505050611aa0565b005b61082e611e58565b604051808273ffffffffffffffffffffffffffffffffffffffff1673ffffffffffffffffffffffffffffffffffffffff16815260200191505060405180910390f35b610878611e7e565b6040518082815260200191505060405180910390f35b610896611ea1565b6040518082815260200191505060405180910390f35b6108e5600480360360408110156108c257600080fd5b81019080803560ff16906020019092919080359060200190929190505050611ea7565b6040518082815260200191505060405180910390f35b610903612011565b6040518082815260200191505060405180910390f35b6109456004803603602081101561092f57600080fd5b8101908080359060200190929190505050612017565b005b61094f6124d2565b604051808273ffffffffffffffffffffffffffffffffffffffff1673ffffffffffffffffffffffffffffffffffffffff16815260200191505060405180910390f35b610999612509565b6040518082815260200191505060405180910390f35b6109b761250f565b005b600060096000600381106109c957fe5b0160009054906101000a900473ffffffffffffffffffffffffffffffffffffffff16905090565b60606003604051908082528060200260200182016040528015610a225781602001602082028036833780820191505090505b50905060008090505b6003811015610af35760086000848152602001908152602001600020600060098360038110610a5657fe5b0160009054906101000a900473ffffffffffffffffffffffffffffffffffffffff1673ffffffffffffffffffffffffffffffffffffffff1673ffffffffffffffffffffffffffffffffffffffff16815260200190815260200160002060009054906101000a900460ff1615610ae6576001828281518110610ad357fe5b6020026020010190151590811515815250505b8080600101915050610a2b565b50919050565b600c60003373ffffffffffffffffffffffffffffffffffffffff1673ffffffffffffffffffffffffffffffffffffffff16815260200190815260200160002060009054906101000a900460ff16610bb8576040517f08c379a000000000000000000000000000000000000000000000000000000000815260040180806020018281038252600f8152602001807f5244412f6e6f742d616c6c6f776564000000000000000000000000000000000081525060200191505060405180910390fd5b80600073ffffffffffffffffffffffffffffffffffffffff166007600083815260200190815260200160002060000160009054906101000a900473ffffffffffffffffffffffffffffffffffffffff1673ffffffffffffffffffffffffffffffffffffffff161415610c92576040517f08c379a000000000000000000000000000000000000000000000000000000000815260040180806020018281038252600f8152602001807f5244412f74786e2d696e76616c6964000000000000000000000000000000000081525060200191505060405180910390fd5b81336008600083815260200190815260200160002060008273ffffffffffffffffffffffffffffffffffffffff1673ffffffffffffffffffffffffffffffffffffffff16815260200190815260200160002060009054906101000a900460ff16610d64576040517f08c379a00000000000000000000000000000000000000000000000000000000081526004018080602001828103825260158152602001807f5244412f74786e2d6e6f742d636f6e6669726d6564000000000000000000000081525060200191505060405180910390fd5b836007600082815260200190815260200160002060010160149054906101000a900460ff1615610dfc576040517f08c379a00000000000000000000000000000000000000000000000000000000081526004018080602001828103825260108152602001807f5244412f74786e2d65786563757465640000000000000000000000000000000081525060200191505060405180910390fd5b60006008600087815260200190815260200160002060003373ffffffffffffffffffffffffffffffffffffffff1673ffffffffffffffffffffffffffffffffffffffff16815260200190815260200160002060006101000a81548160ff021916908315150217905550843373ffffffffffffffffffffffffffffffffffffffff167ff6a317157440607f36269043eb55f1287a5a19ba2216afeab88cd46cbcfb88e960405160405180910390a35050505050565b60086020528160005260406000206020528060005260406000206000915091509054906101000a900460ff1681565b600080600160009054906101000a900473ffffffffffffffffffffffffffffffffffffffff1673ffffffffffffffffffffffffffffffffffffffff16630bebac86306040518263ffffffff1660e01b8152600401808273ffffffffffffffffffffffffffffffffffffffff1673ffffffffffffffffffffffffffffffffffffffff16815260200191505060206040518083038186803b158015610f8157600080fd5b505afa158015610f95573d6000803e3d6000fd5b505050506040513d6020811015610fab57600080fd5b810190808051906020019092919050505090506000600160009054906101000a900473ffffffffffffffffffffffffffffffffffffffff1673ffffffffffffffffffffffffffffffffffffffff1663c92aecc46040518163ffffffff1660e01b815260040160206040518083038186803b15801561102857600080fd5b505afa15801561103c573d6000803e3d6000fd5b505050506040513d602081101561105257600080fd5b810190808051906020019092919050505090506b033b2e3c9fd0803ce800000061107c8383612a07565b8161108357fe5b049250505090565b6009816003811061109857fe5b016000915054906101000a900473ffffffffffffffffffffffffffffffffffffffff1681565b600060019054906101000a900473ffffffffffffffffffffffffffffffffffffffff1681565b6000600c60003373ffffffffffffffffffffffffffffffffffffffff1673ffffffffffffffffffffffffffffffffffffffff16815260200190815260200160002060009054906101000a900460ff166111a5576040517f08c379a000000000000000000000000000000000000000000000000000000000815260040180806020018281038252600f8152602001807f5244412f6e6f742d616c6c6f776564000000000000000000000000000000000081525060200191505060405180910390fd5b600060028111156111b257fe5b60ff168260ff161461122c576040517f08c379a00000000000000000000000000000000000000000000000000000000081526004018080602001828103825260158152602001807f5244412f696e76616c69642d617267756d656e7473000000000000000000000081525060200191505060405180910390fd5b6112468260ff16600281111561123e57fe5b600080612a33565b9050919050565b600160009054906101000a900473ffffffffffffffffffffffffffffffffffffffff1681565b6000600960026003811061128357fe5b0160009054906101000a900473ffffffffffffffffffffffffffffffffffffffff16905090565b6000806000905060008090505b600381101561137957600860008581526020019081526020016000206000600983600381106112e257fe5b0160009054906101000a900473ffffffffffffffffffffffffffffffffffffffff1673ffffffffffffffffffffffffffffffffffffffff1673ffffffffffffffffffffffffffffffffffffffff16815260200190815260200160002060009054906101000a900460ff1615611358576001820191505b600282141561136c5760019250505061137c565b80806001019150506112b7565b50505b919050565b600d5481565b600080600090505b600381101561143d57600860008481526020019081526020016000206000600983600381106113ba57fe5b0160009054906101000a900473ffffffffffffffffffffffffffffffffffffffff1673ffffffffffffffffffffffffffffffffffffffff1673ffffffffffffffffffffffffffffffffffffffff16815260200190815260200160002060009054906101000a900460ff1615611430576001820191505b808060010191505061138f565b50919050565b600c6020528060005260406000206000915054906101000a900460ff1681565b60076020528060005260406000206000915090508060000160009054906101000a900473ffffffffffffffffffffffffffffffffffffffff16908060000160149054906101000a900460ff16908060010160009054906101000a900473ffffffffffffffffffffffffffffffffffffffff16908060010160149054906101000a900460ff16908060020154905085565b606080600d546040519080825280602002602001820160405280156115275781602001602082028036833780820191505090505b509050600080905060008090505b600d548110156115d35785801561156d57506007600082815260200190815260200160002060010160149054906101000a900460ff16155b806115a157508480156115a057506007600082815260200190815260200160002060010160149054906101000a900460ff165b5b156115c657808383815181106115b357fe5b6020026020010181815250506001820191505b8080600101915050611535565b816040519080825280602002602001820160405280156116025781602001602082028036833780820191505090505b509350600090505b8181101561164b5782818151811061161e57fe5b602002602001015184828151811061163257fe5b602002602001018181525050808060010191505061160a565b50505092915050565b6000600c60003373ffffffffffffffffffffffffffffffffffffffff1673ffffffffffffffffffffffffffffffffffffffff16815260200190815260200160002060009054906101000a900460ff16611715576040517f08c379a000000000000000000000000000000000000000000000000000000000815260040180806020018281038252600f8152602001807f5244412f6e6f742d616c6c6f776564000000000000000000000000000000000081525060200191505060405180910390fd5b60028081111561172157fe5b60ff168360ff161461179b576040517f08c379a00000000000000000000000000000000000000000000000000000000081526004018080602001828103825260158152602001807f5244412f696e76616c69642d617267756d656e7473000000000000000000000081525060200191505060405180910390fd5b6117b58360ff1660028111156117ad57fe5b836000612a33565b905092915050565b600360009054906101000a900473ffffffffffffffffffffffffffffffffffffffff1681565b600c60003373ffffffffffffffffffffffffffffffffffffffff1673ffffffffffffffffffffffffffffffffffffffff16815260200190815260200160002060009054906101000a900460ff166118a2576040517f08c379a000000000000000000000000000000000000000000000000000000000815260040180806020018281038252600f8152602001807f5244412f6e6f742d616c6c6f776564000000000000000000000000000000000081525060200191505060405180910390fd5b60006006541461191a576040517f08c379a00000000000000000000000000000000000000000000000000000000081526004018080602001828103825260138152602001807f5244412f616c72656164792d737461727465640000000000000000000000000081525060200191505060405180910390fd5b6000600360009054906101000a900473ffffffffffffffffffffffffffffffffffffffff1673ffffffffffffffffffffffffffffffffffffffff166370a08231306040518263ffffffff1660e01b8152600401808273ffffffffffffffffffffffffffffffffffffffff1673ffffffffffffffffffffffffffffffffffffffff16815260200191505060206040518083038186803b1580156119bb57600080fd5b505afa1580156119cf573d6000803e3d6000fd5b505050506040513d60208110156119e557600080fd5b8101908080519060200190929190505050905060008111611a6e576040517f08c379a00000000000000000000000000000000000000000000000000000000081526004018080602001828103825260108152602001807f5244412f6e6f2d6461692d6f776e65640000000000000000000000000000000081525060200191505060405180910390fd5b80600681905550611a7d612a52565b1580611a8f5750611a8d81612d66565b155b15611a9d5760006006819055505b50565b600c60003373ffffffffffffffffffffffffffffffffffffffff1673ffffffffffffffffffffffffffffffffffffffff16815260200190815260200160002060009054906101000a900460ff16611b5f576040517f08c379a000000000000000000000000000000000000000000000000000000000815260040180806020018281038252600f8152602001807f5244412f6e6f742d616c6c6f776564000000000000000000000000000000000081525060200191505060405180910390fd5b80600073ffffffffffffffffffffffffffffffffffffffff166007600083815260200190815260200160002060000160009054906101000a900473ffffffffffffffffffffffffffffffffffffffff1673ffffffffffffffffffffffffffffffffffffffff161415611c39576040517f08c379a000000000000000000000000000000000000000000000000000000000815260040180806020018281038252600f8152602001807f5244412f74786e2d696e76616c6964000000000000000000000000000000000081525060200191505060405180910390fd5b81336008600083815260200190815260200160002060008273ffffffffffffffffffffffffffffffffffffffff1673ffffffffffffffffffffffffffffffffffffffff16815260200190815260200160002060009054906101000a900460ff1615611d0c576040517f08c379a00000000000000000000000000000000000000000000000000000000081526004018080602001828103825260118152602001807f5244412f74786e2d636f6e6669726d656400000000000000000000000000000081525060200191505060405180910390fd5b836007600082815260200190815260200160002060010160149054906101000a900460ff1615611da4576040517f08c379a00000000000000000000000000000000000000000000000000000000081526004018080602001828103825260108152602001807f5244412f74786e2d65786563757465640000000000000000000000000000000081525060200191505060405180910390fd5b60016008600087815260200190815260200160002060003373ffffffffffffffffffffffffffffffffffffffff1673ffffffffffffffffffffffffffffffffffffffff16815260200190815260200160002060006101000a81548160ff021916908315150217905550843373ffffffffffffffffffffffffffffffffffffffff167f4a504a94899432a9846e1aa406dceb1bcfd538bb839071d49d1e5e23f5be30ef60405160405180910390a35050505050565b600260009054906101000a900473ffffffffffffffffffffffffffffffffffffffff1681565b600080611e89610edf565b9050600654811115611e9d57600654810391505b5090565b60065481565b6000600c60003373ffffffffffffffffffffffffffffffffffffffff1673ffffffffffffffffffffffffffffffffffffffff16815260200190815260200160002060009054906101000a900460ff16611f68576040517f08c379a000000000000000000000000000000000000000000000000000000000815260040180806020018281038252600f8152602001807f5244412f6e6f742d616c6c6f776564000000000000000000000000000000000081525060200191505060405180910390fd5b60016002811115611f7557fe5b60ff168360ff1614611fef576040517f08c379a00000000000000000000000000000000000000000000000000000000081526004018080602001828103825260158152602001807f5244412f696e76616c69642d617267756d656e7473000000000000000000000081525060200191505060405180910390fd5b6120098360ff16600281111561200157fe5b600084612a33565b905092915050565b60055481565b600c60003373ffffffffffffffffffffffffffffffffffffffff1673ffffffffffffffffffffffffffffffffffffffff16815260200190815260200160002060009054906101000a900460ff166120d6576040517f08c379a000000000000000000000000000000000000000000000000000000000815260040180806020018281038252600f8152602001807f5244412f6e6f742d616c6c6f776564000000000000000000000000000000000081525060200191505060405180910390fd5b80600073ffffffffffffffffffffffffffffffffffffffff166007600083815260200190815260200160002060000160009054906101000a900473ffffffffffffffffffffffffffffffffffffffff1673ffffffffffffffffffffffffffffffffffffffff1614156121b0576040517f08c379a000000000000000000000000000000000000000000000000000000000815260040180806020018281038252600f8152602001807f5244412f74786e2d696e76616c6964000000000000000000000000000000000081525060200191505060405180910390fd5b81336008600083815260200190815260200160002060008273ffffffffffffffffffffffffffffffffffffffff1673ffffffffffffffffffffffffffffffffffffffff16815260200190815260200160002060009054906101000a900460ff16612282576040517f08c379a00000000000000000000000000000000000000000000000000000000081526004018080602001828103825260158152602001807f5244412f74786e2d6e6f742d636f6e6669726d6564000000000000000000000081525060200191505060405180910390fd5b836007600082815260200190815260200160002060010160149054906101000a900460ff161561231a576040517f08c379a00000000000000000000000000000000000000000000000000000000081526004018080602001828103825260108152602001807f5244412f74786e2d65786563757465640000000000000000000000000000000081525060200191505060405180910390fd5b612323856112aa565b156124cb57600060076000878152602001908152602001600020905060018160010160146101000a81548160ff02191690831515021790555060008090506000600281111561236e57fe5b8260000160149054906101000a900460ff16600281111561238b57fe5b14156123a05761239961314b565b9050612445565b600160028111156123ad57fe5b8260000160149054906101000a900460ff1660028111156123ca57fe5b14156123e4576123dd8260020154613154565b9050612444565b6002808111156123f057fe5b8260000160149054906101000a900460ff16600281111561240d57fe5b1415612443576124408260010160009054906101000a900473ffffffffffffffffffffffffffffffffffffffff1661315f565b90505b5b5b801561247d57867f33e13ecb54c3076d8e8bb8c2881800a4d972b792045ffae98fdf46df365fed7560405160405180910390a26124c8565b867f526441bb6c1aba3c9a4a6ca1d6545da9c2333c8c48343ef398eb858d72b7923660405160405180910390a260008260010160146101000a81548160ff0219169083151502179055505b50505b5050505050565b600060096001600381106124e257fe5b0160009054906101000a900473ffffffffffffffffffffffffffffffffffffffff16905090565b60045481565b600c60003373ffffffffffffffffffffffffffffffffffffffff1673ffffffffffffffffffffffffffffffffffffffff16815260200190815260200160002060009054906101000a900460ff166125ce576040517f08c379a000000000000000000000000000000000000000000000000000000000815260040180806020018281038252600f8152602001807f5244412f6e6f742d616c6c6f776564000000000000000000000000000000000081525060200191505060405180910390fd5b600060065411612646576040517f08c379a000000000000000000000000000000000000000000000000000000000815260040180806020018281038252600e8152602001807f5244412f6e6f742d61637469766500000000000000000000000000000000000081525060200191505060405180910390fd5b6004546005541015612a055760006005546004540390506000600360009054906101000a900473ffffffffffffffffffffffffffffffffffffffff1673ffffffffffffffffffffffffffffffffffffffff166370a08231306040518263ffffffff1660e01b8152600401808273ffffffffffffffffffffffffffffffffffffffff1673ffffffffffffffffffffffffffffffffffffffff16815260200191505060206040518083038186803b1580156126fe57600080fd5b505afa158015612712573d6000803e3d6000fd5b505050506040513d602081101561272857600080fd5b81019080805190602001909291905050509050600080828411156128bf57600160009054906101000a900473ffffffffffffffffffffffffffffffffffffffff1673ffffffffffffffffffffffffffffffffffffffff166320aba08b6040518163ffffffff1660e01b815260040160206040518083038186803b1580156127ae57600080fd5b505afa1580156127c2573d6000803e3d6000fd5b505050506040513d60208110156127d857600080fd5b810190808051906020019092919050505042111561289757600160009054906101000a900473ffffffffffffffffffffffffffffffffffffffff1673ffffffffffffffffffffffffffffffffffffffff16639f678cca6040518163ffffffff1660e01b8152600401602060405180830381600087803b15801561285a57600080fd5b505af115801561286e573d6000803e3d6000fd5b505050506040513d602081101561288457600080fd5b8101908080519060200190929190505050505b8284039150828101905060006128ab611e7e565b9050808311156128b9578092505b506128c3565b8390505b8181019050806005600082825401925050819055506000821115612900576128ea8261316a565b6128ff57806005600082825403925050819055505b5b600360009054906101000a900473ffffffffffffffffffffffffffffffffffffffff1673ffffffffffffffffffffffffffffffffffffffff1663a9059cbb612946611273565b836040518363ffffffff1660e01b8152600401808373ffffffffffffffffffffffffffffffffffffffff1673ffffffffffffffffffffffffffffffffffffffff16815260200182815260200192505050602060405180830381600087803b1580156129b057600080fd5b505af11580156129c4573d6000803e3d6000fd5b505050506040513d60208110156129da57600080fd5b8101908080519060200190929190505050612a0057806005600082825403925050819055505b505050505b565b600080821480612a245750828283850292508281612a2157fe5b04145b612a2d57600080fd5b92915050565b6000612a4084848461354f565b9050612a4b81611aa0565b9392505050565b60008060009054906101000a900460ff16612d5f57600060019054906101000a900473ffffffffffffffffffffffffffffffffffffffff1673ffffffffffffffffffffffffffffffffffffffff1663a3b22fc4600160009054906101000a900473ffffffffffffffffffffffffffffffffffffffff166040518263ffffffff1660e01b8152600401808273ffffffffffffffffffffffffffffffffffffffff1673ffffffffffffffffffffffffffffffffffffffff168152602001915050600060405180830381600087803b158015612b2a57600080fd5b505af1158015612b3e573d6000803e3d6000fd5b50505050600060019054906101000a900473ffffffffffffffffffffffffffffffffffffffff1673ffffffffffffffffffffffffffffffffffffffff1663a3b22fc4600260009054906101000a900473ffffffffffffffffffffffffffffffffffffffff166040518263ffffffff1660e01b8152600401808273ffffffffffffffffffffffffffffffffffffffff1673ffffffffffffffffffffffffffffffffffffffff168152602001915050600060405180830381600087803b158015612c0557600080fd5b505af1158015612c19573d6000803e3d6000fd5b50505050600360009054906101000a900473ffffffffffffffffffffffffffffffffffffffff1673ffffffffffffffffffffffffffffffffffffffff1663095ea7b3600260009054906101000a900473ffffffffffffffffffffffffffffffffffffffff167fffffffffffffffffffffffffffffffffffffffffffffffffffffffffffffffff6040518363ffffffff1660e01b8152600401808373ffffffffffffffffffffffffffffffffffffffff1673ffffffffffffffffffffffffffffffffffffffff16815260200182815260200192505050602060405180830381600087803b158015612d0857600080fd5b505af1158015612d1c573d6000803e3d6000fd5b505050506040513d6020811015612d3257600080fd5b81019080805190602001909291905050505060016000806101000a81548160ff0219169083151502179055505b6001905090565b60008060009054906101000a900460ff16612de9576040517f08c379a00000000000000000000000000000000000000000000000000000000081526004018080602001828103825260128152602001807f4453522f6e6f742d617574686f72697a6564000000000000000000000000000081525060200191505060405180910390fd5b6000600160009054906101000a900473ffffffffffffffffffffffffffffffffffffffff1673ffffffffffffffffffffffffffffffffffffffff166320aba08b6040518163ffffffff1660e01b815260040160206040518083038186803b158015612e5357600080fd5b505afa158015612e67573d6000803e3d6000fd5b505050506040513d6020811015612e7d57600080fd5b81019080805190602001909291905050504211612f3c57600160009054906101000a900473ffffffffffffffffffffffffffffffffffffffff1673ffffffffffffffffffffffffffffffffffffffff1663c92aecc46040518163ffffffff1660e01b815260040160206040518083038186803b158015612efc57600080fd5b505afa158015612f10573d6000803e3d6000fd5b505050506040513d6020811015612f2657600080fd5b8101908080519060200190929190505050612fe2565b600160009054906101000a900473ffffffffffffffffffffffffffffffffffffffff1673ffffffffffffffffffffffffffffffffffffffff16639f678cca6040518163ffffffff1660e01b8152600401602060405180830381600087803b158015612fa657600080fd5b505af1158015612fba573d6000803e3d6000fd5b505050506040513d6020811015612fd057600080fd5b81019080805190602001909291905050505b90506000612ff0848361376a565b9050600260009054906101000a900473ffffffffffffffffffffffffffffffffffffffff1673ffffffffffffffffffffffffffffffffffffffff16633b4da69f30866040518363ffffffff1660e01b8152600401808373ffffffffffffffffffffffffffffffffffffffff1673ffffffffffffffffffffffffffffffffffffffff16815260200182815260200192505050600060405180830381600087803b15801561309b57600080fd5b505af11580156130af573d6000803e3d6000fd5b50505050600160009054906101000a900473ffffffffffffffffffffffffffffffffffffffff1673ffffffffffffffffffffffffffffffffffffffff1663049878f3826040518263ffffffff1660e01b815260040180828152602001915050600060405180830381600087803b15801561312857600080fd5b505af115801561313c573d6000803e3d6000fd5b50505050600192505050919050565b60006001905090565b600060019050919050565b600060019050919050565b60008060009054906101000a900460ff166131ed576040517f08c379a00000000000000000000000000000000000000000000000000000000081526004018080602001828103825260128152602001807f4453522f6e6f742d617574686f72697a6564000000000000000000000000000081525060200191505060405180910390fd5b6000600160009054906101000a900473ffffffffffffffffffffffffffffffffffffffff1673ffffffffffffffffffffffffffffffffffffffff166320aba08b6040518163ffffffff1660e01b815260040160206040518083038186803b15801561325757600080fd5b505afa15801561326b573d6000803e3d6000fd5b505050506040513d602081101561328157600080fd5b8101908080519060200190929190505050421161334057600160009054906101000a900473ffffffffffffffffffffffffffffffffffffffff1673ffffffffffffffffffffffffffffffffffffffff1663c92aecc46040518163ffffffff1660e01b815260040160206040518083038186803b15801561330057600080fd5b505afa158015613314573d6000803e3d6000fd5b505050506040513d602081101561332a57600080fd5b81019080805190602001909291905050506133e6565b600160009054906101000a900473ffffffffffffffffffffffffffffffffffffffff1673ffffffffffffffffffffffffffffffffffffffff16639f678cca6040518163ffffffff1660e01b8152600401602060405180830381600087803b1580156133aa57600080fd5b505af11580156133be573d6000803e3d6000fd5b505050506040513d60208110156133d457600080fd5b81019080805190602001909291905050505b905060006133f48483613793565b9050600160009054906101000a900473ffffffffffffffffffffffffffffffffffffffff1673ffffffffffffffffffffffffffffffffffffffff16637f8661a1826040518263ffffffff1660e01b815260040180828152602001915050600060405180830381600087803b15801561346b57600080fd5b505af115801561347f573d6000803e3d6000fd5b50505050600260009054906101000a900473ffffffffffffffffffffffffffffffffffffffff1673ffffffffffffffffffffffffffffffffffffffff1663ef693bed30866040518363ffffffff1660e01b8152600401808373ffffffffffffffffffffffffffffffffffffffff1673ffffffffffffffffffffffffffffffffffffffff16815260200182815260200192505050600060405180830381600087803b15801561352c57600080fd5b505af1158015613540573d6000803e3d6000fd5b50505050600192505050919050565b600080600654116135c8576040517f08c379a000000000000000000000000000000000000000000000000000000000815260040180806020018281038252600e8152602001807f5244412f6e6f742d61637469766500000000000000000000000000000000000081525060200191505060405180910390fd5b600d5490506040518060a001604052803373ffffffffffffffffffffffffffffffffffffffff16815260200185600281111561360057fe5b81526020018473ffffffffffffffffffffffffffffffffffffffff168152602001600015158152602001838152506007600083815260200190815260200160002060008201518160000160006101000a81548173ffffffffffffffffffffffffffffffffffffffff021916908373ffffffffffffffffffffffffffffffffffffffff16021790555060208201518160000160146101000a81548160ff021916908360028111156136ac57fe5b021790555060408201518160010160006101000a81548173ffffffffffffffffffffffffffffffffffffffff021916908373ffffffffffffffffffffffffffffffffffffffff16021790555060608201518160010160146101000a81548160ff021916908315150217905550608082015181600201559050506001600d60008282540192505081905550807fc0ba8fe4b176c1714197d43b9cc6bcf797a4a7461c5fe8d0ef6e184ae7601e5160405160405180910390a29392505050565b600081613783846b033b2e3c9fd0803ce8000000612a07565b8161378a57fe5b04905092915050565b6000816137bf6137af856b033b2e3c9fd0803ce8000000612a07565b6137ba8560016137cf565b6137e9565b816137c657fe5b04905092915050565b60008282840391508111156137e357600080fd5b92915050565b60008282840191508110156137fd57600080fd5b9291505056fea2646970667358221220065323b6840f1861aec0eda56d7518dde6299fb5b5bb52a28400e9e8f0452fbd64736f6c63430006030033",
  "source": "pragma solidity 0.6.3;\r\n\r\nimport \"./SavingDai.sol\";\r\n\r\ncontract MultisigRDA is SavingDai {\r\n\r\n    // --- Constants ---\r\n\r\n    // --- Storage ---\r\n    uint public trusteeFee;\r\n    uint public trusteeFeePaid;\r\n    uint public deposit;\r\n    mapping(uint => Transaction) public transactions;\r\n    mapping(uint => mapping(address => bool)) public confirmations;\r\n    address[3] public participants;\r\n    mapping(address => bool) public isParticipant;\r\n    uint public txnCount;\r\n    enum TransactionType {ReturnDeposit, PayDamages, Migrate}\r\n\r\n    struct Transaction {\r\n        address owner;\r\n        TransactionType txnType;\r\n        address dest;\r\n        bool executed;\r\n        uint value;\r\n    }\r\n\r\n    // --- Events ---\r\n    event Confirmation(address indexed sender, uint indexed txnId);\r\n    event Revocation(address indexed sender, uint indexed txnId);\r\n    event Submission(uint indexed txnId);\r\n    event Execution(uint indexed txnId);\r\n    event ExecutionFailure(uint indexed txnId);\r\n    event Withdrawal(address indexed sender, address indexed receiver, uint value);\r\n\r\n    // --- Modifiers ---\r\n    modifier active() {\r\n        require(deposit > 0, \"RDA/not-active\");\r\n        _;\r\n    }\r\n\r\n    modifier onlyParticipant() {\r\n        require(isParticipant[msg.sender], \"RDA/not-allowed\");\r\n        _;\r\n    }\r\n\r\n    modifier transactionExists(uint txnId) {\r\n        require(transactions[txnId].owner != address(0), \"RDA/txn-invalid\");\r\n        _;\r\n    }\r\n\r\n    modifier confirmed(uint txnId, address participant) {\r\n        require(confirmations[txnId][participant], \"RDA/txn-not-confirmed\");\r\n        _;\r\n    }\r\n\r\n    modifier notConfirmed(uint txnId, address participant) {\r\n        require(!confirmations[txnId][participant], \"RDA/txn-confirmed\");\r\n        _;\r\n    }\r\n\r\n    modifier notExecuted(uint txnId) {\r\n        require(!transactions[txnId].executed, \"RDA/txn-executed\");\r\n        _;\r\n    }\r\n\r\n    // --- Functions ---\r\n\r\n    // ** Constructor **\r\n\r\n    constructor(address tenant, address landlord, address trustee, uint _trusteeFee) public {\r\n        require(\r\n            tenant != address(0) && landlord != address(0) && trustee != address(0),\r\n            \"RDA/empty-address\"\r\n        );\r\n        participants = [tenant, landlord, trustee];\r\n        isParticipant[tenant] = true;\r\n        isParticipant[landlord] = true;\r\n        isParticipant[trustee] = true;\r\n        trusteeFee = _trusteeFee;\r\n    }\r\n\r\n    // ** External Functions **\r\n\r\n    // Start contract. Can only be executed once, the deposit is immutable once started.\r\n    function start() external onlyParticipant {\r\n        require(deposit == 0, \"RDA/already-started\");\r\n        uint balance = daiToken.balanceOf(address(this));\r\n        require(balance > 0, \"RDA/no-dai-owned\");\r\n        deposit = balance;\r\n        if (!dsrAuthorize() || !dsrJoin(balance)) {\r\n            deposit = 0;\r\n        }\r\n    }\r\n\r\n    // Transaction to return the deposit. Takes no further arguments.\r\n    function submitTransaction(uint8 txnType)\r\n        external\r\n        onlyParticipant\r\n        returns (uint txnId)\r\n    {\r\n        require(txnType == uint8(TransactionType.ReturnDeposit), \"RDA/invalid-arguments\");\r\n        txnId = submitTransaction(TransactionType(txnType), address(0), 0);\r\n    }\r\n\r\n    // Transaction to pay the landlord.\r\n    function submitTransaction(uint8 txnType, uint value)\r\n        external\r\n        onlyParticipant\r\n        returns (uint txnId)\r\n    {\r\n        require(txnType == uint8(TransactionType.PayDamages), \"RDA/invalid-arguments\");\r\n        txnId = submitTransaction(TransactionType(txnType), address(0), value);\r\n    }\r\n\r\n    // Transaction to migrate the contract.\r\n    function submitTransaction(uint8 txnType, address dest)\r\n        external\r\n        onlyParticipant\r\n        returns (uint txnId)\r\n    {\r\n        require(txnType == uint8(TransactionType.Migrate), \"RDA/invalid-arguments\");\r\n        txnId = submitTransaction(TransactionType(txnType), dest, 0);\r\n    }\r\n\r\n    // ** Public Functions **\r\n\r\n    function confirmTransaction(uint txnId)\r\n        public\r\n        onlyParticipant\r\n        transactionExists(txnId)\r\n        notConfirmed(txnId, msg.sender)\r\n        notExecuted(txnId) // immutability of executed transactions\r\n    {\r\n        confirmations[txnId][msg.sender] = true;\r\n        emit Confirmation(msg.sender, txnId);\r\n    }\r\n\r\n    function revokeConfirmation(uint txnId)\r\n        public\r\n        onlyParticipant\r\n        transactionExists(txnId)\r\n        confirmed(txnId, msg.sender)\r\n        notExecuted(txnId)\r\n    {\r\n        confirmations[txnId][msg.sender] = false;\r\n        emit Revocation(msg.sender, txnId);\r\n    }\r\n\r\n    function executeTransaction(uint txnId)\r\n        public\r\n        onlyParticipant // this is conservative\r\n        transactionExists(txnId)\r\n        confirmed(txnId, msg.sender) // this is conservative\r\n        notExecuted(txnId)\r\n    {\r\n        if (isConfirmed(txnId)) {\r\n            Transaction storage txn = transactions[txnId];\r\n            txn.executed = true;\r\n            bool success = false;\r\n            if (txn.txnType == TransactionType.ReturnDeposit) {\r\n                success = returnDeposit();\r\n            } else if (txn.txnType == TransactionType.PayDamages) {\r\n                success = payDamages(txn.value);\r\n            } else if (txn.txnType == TransactionType.Migrate) {\r\n                success = migrate(txn.dest);\r\n            }\r\n            if (success) {\r\n                emit Execution(txnId);\r\n            } else {\r\n                emit ExecutionFailure(txnId);\r\n                txn.executed = false;\r\n            }\r\n        }\r\n    }\r\n\r\n    function withdrawTrusteeFee()\r\n        onlyParticipant\r\n        active\r\n        public\r\n    {\r\n        if (trusteeFeePaid < trusteeFee) {\r\n            uint remainingFee = trusteeFee - trusteeFeePaid;\r\n            uint balance = daiToken.balanceOf(address(this));\r\n            uint withdraw;\r\n            uint payout;\r\n\r\n            if (remainingFee > balance) {\r\n                if (now > pot.rho()) pot.drip();\r\n                withdraw = remainingFee - balance;\r\n                payout += balance;\r\n                uint interest = currentInterest();\r\n                if (withdraw > interest) {\r\n                    withdraw = interest;\r\n                }\r\n            } else {\r\n                payout = remainingFee;\r\n            }\r\n\r\n            payout += withdraw;\r\n            trusteeFeePaid += payout;\r\n            if (withdraw > 0) {\r\n                if(!dsrExit(withdraw)) {\r\n                    trusteeFeePaid -= payout; // refund if the exit failed\r\n                }\r\n            }\r\n            if (!daiToken.transfer(getTrustee(), payout)) {\r\n                trusteeFeePaid -= payout; // refund if the transfer failed\r\n            }\r\n        }\r\n    }\r\n\r\n    function currentInterest() public view returns(uint interest) {\r\n        uint totalDsrBalance = dsrBalance();\r\n        if (totalDsrBalance > deposit) {\r\n            interest = totalDsrBalance - deposit;\r\n        }\r\n    }\r\n\r\n    //noinspection NoReturn (will return false by default)\r\n    function isConfirmed(uint txnId)\r\n        public\r\n        view\r\n        returns (bool)\r\n    {\r\n        uint count = 0;\r\n        for (uint i = 0; i < 3; i++) {\r\n            if (confirmations[txnId][participants[i]])\r\n                count += 1;\r\n            if (count == 2)\r\n                return true;\r\n        }\r\n    }\r\n\r\n    function getTenant() public view returns(address) {\r\n        return participants[0];\r\n    }\r\n\r\n    function getLandlord() public view returns(address) {\r\n        return participants[1];\r\n    }\r\n\r\n    function getTrustee() public view returns(address) {\r\n        return participants[2];\r\n    }\r\n\r\n    // ** Internal State Functions **\r\n\r\n    /// @dev Transaction builder. Unifies all the overloaded functions.\r\n    function submitTransaction(TransactionType txnType, address dest, uint value)\r\n        internal\r\n        returns (uint txnId)\r\n    {\r\n        txnId = addTransaction(txnType, dest, value);\r\n        confirmTransaction(txnId);\r\n    }\r\n\r\n    function addTransaction(TransactionType txnType, address dest, uint value)\r\n        internal\r\n        active\r\n        returns (uint txnId)\r\n    {\r\n        txnId = txnCount;\r\n        transactions[txnId] = Transaction({\r\n            owner : msg.sender,\r\n            txnType : txnType,\r\n            dest : dest,\r\n            executed : false,\r\n            value : value\r\n            });\r\n        txnCount += 1;\r\n        emit Submission(txnId);\r\n    }\r\n\r\n    // ** Internal Logic Functions **\r\n\r\n    function returnDeposit()\r\n        internal\r\n        pure // temp\r\n        returns (bool success)\r\n    {\r\n        // will return deposit to the tenant\r\n        // function is not yet implemented\r\n        success = true;\r\n    }\r\n\r\n    function payDamages(uint value)\r\n        internal\r\n        pure // temp\r\n        returns (bool success)\r\n    {\r\n        // will transfer min(value, balance) DAI to the landlord\r\n        // function is not yet implemented and will throw compiler warnings (ignore them)\r\n        success = true;\r\n    }\r\n\r\n    function migrate(address dest)\r\n        internal\r\n        pure // temp\r\n        returns (bool success)\r\n    {\r\n        // will transfer all funds to a new address\r\n        // function is not yet implemented and will throw compiler warnings (ignore them)\r\n        success = true;\r\n    }\r\n\r\n\r\n    // ** Web3 call functions (Public & View) **\r\n\r\n    function getConfirmationCount(uint txnId)\r\n        public\r\n        view\r\n        returns (uint count)\r\n    {\r\n        for (uint i = 0; i < 3; i++) {\r\n            if (confirmations[txnId][participants[i]]) {\r\n                count += 1;\r\n            }\r\n        }\r\n    }\r\n\r\n    function getConfirmationStatus(uint txnId)\r\n        public\r\n        view\r\n        returns (bool[] memory confirmationStatus)\r\n    {\r\n        confirmationStatus = new bool[](3);\r\n        for (uint i = 0; i < 3; i++) {\r\n            if (confirmations[txnId][participants[i]]) {\r\n                confirmationStatus[i] = true;\r\n            }\r\n        }\r\n    }\r\n\r\n    function getTransactionIds(bool pending, bool executed)\r\n        public\r\n        view\r\n        returns (uint[] memory txnIds)\r\n    {\r\n        uint[] memory txnIdsTemp = new uint[](txnCount);\r\n        uint count = 0;\r\n        uint i;\r\n        for (i = 0; i < txnCount; i++) {\r\n            if (pending && !transactions[i].executed || executed && transactions[i].executed) {\r\n                txnIdsTemp[count] = i;\r\n                count += 1;\r\n            }\r\n        }\r\n        txnIds = new uint[](count);\r\n        for (i = 0; i < count; i++)\r\n            txnIds[i] = txnIdsTemp[i];\r\n    }\r\n\r\n}\r\n",
  "sourcePath": "C:\\Users\\Matthias\\Documents\\_uni\\fs2020\\seminar_blockchain\\src\\contracts\\MultisigRDA.sol",
  "compiler": {
    "name": "solc",
    "version": "0.6.3+commit.8dda9521.Emscripten.clang"
  },
  "schemaVersion": "3.0.23",
  "updatedAt": "2020-03-05T15:53:31.919Z",
  "devdoc": {
    "methods": {}
  },
  "userdoc": {
    "methods": {}
  }
}