{
  "contractName": "MultisigRDA",
  "abi": [
    {
      "inputs": [
        {
          "internalType": "address",
          "name": "tenant",
          "type": "address"
        },
        {
          "internalType": "address",
          "name": "landlord",
          "type": "address"
        },
        {
          "internalType": "address",
          "name": "trustee",
          "type": "address"
        },
        {
          "internalType": "uint256",
          "name": "_trusteeFee",
          "type": "uint256"
        }
      ],
      "stateMutability": "nonpayable",
      "type": "constructor"
    },
    {
      "anonymous": false,
      "inputs": [
        {
          "indexed": true,
          "internalType": "address",
          "name": "sender",
          "type": "address"
        },
        {
          "indexed": true,
          "internalType": "uint256",
          "name": "txnId",
          "type": "uint256"
        }
      ],
      "name": "Confirmation",
      "type": "event"
    },
    {
      "anonymous": false,
      "inputs": [
        {
          "indexed": true,
          "internalType": "uint256",
          "name": "txnId",
          "type": "uint256"
        }
      ],
      "name": "Execution",
      "type": "event"
    },
    {
      "anonymous": false,
      "inputs": [
        {
          "indexed": true,
          "internalType": "uint256",
          "name": "txnId",
          "type": "uint256"
        }
      ],
      "name": "ExecutionFailure",
      "type": "event"
    },
    {
      "anonymous": false,
      "inputs": [
        {
          "indexed": true,
          "internalType": "address",
          "name": "sender",
          "type": "address"
        },
        {
          "indexed": true,
          "internalType": "uint256",
          "name": "txnId",
          "type": "uint256"
        }
      ],
      "name": "Revocation",
      "type": "event"
    },
    {
      "anonymous": false,
      "inputs": [
        {
          "indexed": true,
          "internalType": "uint256",
          "name": "txnId",
          "type": "uint256"
        }
      ],
      "name": "Submission",
      "type": "event"
    },
    {
      "inputs": [
        {
          "internalType": "uint256",
          "name": "",
          "type": "uint256"
        },
        {
          "internalType": "address",
          "name": "",
          "type": "address"
        }
      ],
      "name": "confirmations",
      "outputs": [
        {
          "internalType": "bool",
          "name": "",
          "type": "bool"
        }
      ],
      "stateMutability": "view",
      "type": "function"
    },
    {
      "inputs": [
        {
          "internalType": "address",
          "name": "",
          "type": "address"
        }
      ],
      "name": "isParticipant",
      "outputs": [
        {
          "internalType": "bool",
          "name": "",
          "type": "bool"
        }
      ],
      "stateMutability": "view",
      "type": "function"
    },
    {
      "inputs": [
        {
          "internalType": "uint256",
          "name": "",
          "type": "uint256"
        }
      ],
      "name": "participants",
      "outputs": [
        {
          "internalType": "address",
          "name": "",
          "type": "address"
        }
      ],
      "stateMutability": "view",
      "type": "function"
    },
    {
      "inputs": [
        {
          "internalType": "uint256",
          "name": "",
          "type": "uint256"
        }
      ],
      "name": "transactions",
      "outputs": [
        {
          "internalType": "address",
          "name": "owner",
          "type": "address"
        },
        {
          "internalType": "enum MultisigRDA.TransactionType",
          "name": "txnType",
          "type": "uint8"
        },
        {
          "internalType": "address",
          "name": "dest",
          "type": "address"
        },
        {
          "internalType": "bool",
          "name": "executed",
          "type": "bool"
        },
        {
          "internalType": "uint256",
          "name": "value",
          "type": "uint256"
        }
      ],
      "stateMutability": "view",
      "type": "function"
    },
    {
      "inputs": [],
      "name": "txnCount",
      "outputs": [
        {
          "internalType": "uint256",
          "name": "",
          "type": "uint256"
        }
      ],
      "stateMutability": "view",
      "type": "function"
    },
    {
      "inputs": [
        {
          "internalType": "uint256",
          "name": "txnId",
          "type": "uint256"
        }
      ],
      "name": "confirmTransaction",
      "outputs": [],
      "stateMutability": "nonpayable",
      "type": "function"
    },
    {
      "inputs": [
        {
          "internalType": "uint256",
          "name": "txnId",
          "type": "uint256"
        }
      ],
      "name": "revokeConfirmation",
      "outputs": [],
      "stateMutability": "nonpayable",
      "type": "function"
    },
    {
      "inputs": [
        {
          "internalType": "uint256",
          "name": "txnId",
          "type": "uint256"
        }
      ],
      "name": "executeTransaction",
      "outputs": [],
      "stateMutability": "nonpayable",
      "type": "function"
    },
    {
      "inputs": [
        {
          "internalType": "uint256",
          "name": "txnId",
          "type": "uint256"
        }
      ],
      "name": "isConfirmed",
      "outputs": [
        {
          "internalType": "bool",
          "name": "",
          "type": "bool"
        }
      ],
      "stateMutability": "view",
      "type": "function"
    },
    {
      "inputs": [],
      "name": "getTenant",
      "outputs": [
        {
          "internalType": "address",
          "name": "",
          "type": "address"
        }
      ],
      "stateMutability": "view",
      "type": "function"
    },
    {
      "inputs": [],
      "name": "getLandlord",
      "outputs": [
        {
          "internalType": "address",
          "name": "",
          "type": "address"
        }
      ],
      "stateMutability": "view",
      "type": "function"
    },
    {
      "inputs": [],
      "name": "getTrustee",
      "outputs": [
        {
          "internalType": "address",
          "name": "",
          "type": "address"
        }
      ],
      "stateMutability": "view",
      "type": "function"
    },
    {
      "inputs": [
        {
          "internalType": "enum MultisigRDA.TransactionType",
          "name": "txnType",
          "type": "uint8"
        },
        {
          "internalType": "uint256",
          "name": "value",
          "type": "uint256"
        }
      ],
      "name": "submitTransaction",
      "outputs": [
        {
          "internalType": "uint256",
          "name": "txnId",
          "type": "uint256"
        }
      ],
      "stateMutability": "nonpayable",
      "type": "function"
    },
    {
      "inputs": [
        {
          "internalType": "enum MultisigRDA.TransactionType",
          "name": "txnType",
          "type": "uint8"
        },
        {
          "internalType": "address",
          "name": "dest",
          "type": "address"
        }
      ],
      "name": "submitTransaction",
      "outputs": [
        {
          "internalType": "uint256",
          "name": "txnId",
          "type": "uint256"
        }
      ],
      "stateMutability": "nonpayable",
      "type": "function"
    },
    {
      "inputs": [
        {
          "internalType": "enum MultisigRDA.TransactionType",
          "name": "txnType",
          "type": "uint8"
        }
      ],
      "name": "submitTransaction",
      "outputs": [
        {
          "internalType": "uint256",
          "name": "txnId",
          "type": "uint256"
        }
      ],
      "stateMutability": "nonpayable",
      "type": "function"
    },
    {
      "inputs": [
        {
          "internalType": "uint256",
          "name": "txnId",
          "type": "uint256"
        }
      ],
      "name": "getConfirmationCount",
      "outputs": [
        {
          "internalType": "uint256",
          "name": "count",
          "type": "uint256"
        }
      ],
      "stateMutability": "view",
      "type": "function"
    },
    {
      "inputs": [
        {
          "internalType": "uint256",
          "name": "txnId",
          "type": "uint256"
        }
      ],
      "name": "getConfirmationStatus",
      "outputs": [
        {
          "internalType": "bool[]",
          "name": "confirmationStatus",
          "type": "bool[]"
        }
      ],
      "stateMutability": "view",
      "type": "function"
    },
    {
      "inputs": [
        {
          "internalType": "bool",
          "name": "pending",
          "type": "bool"
        },
        {
          "internalType": "bool",
          "name": "executed",
          "type": "bool"
        }
      ],
      "name": "getTransactionIds",
      "outputs": [
        {
          "internalType": "uint256[]",
          "name": "txnIds",
          "type": "uint256[]"
        }
      ],
      "stateMutability": "view",
      "type": "function"
    }
  ],
  "bytecode": "0x60806040523480156200001157600080fd5b506040516200227138038062002271833981810160405260808110156200003757600080fd5b8101908080519060200190929190805190602001909291908051906020019092919080519060200190929190505050600073ffffffffffffffffffffffffffffffffffffffff168473ffffffffffffffffffffffffffffffffffffffff1614158015620000d15750600073ffffffffffffffffffffffffffffffffffffffff168373ffffffffffffffffffffffffffffffffffffffff1614155b80156200010b5750600073ffffffffffffffffffffffffffffffffffffffff168273ffffffffffffffffffffffffffffffffffffffff1614155b6200017e576040517f08c379a00000000000000000000000000000000000000000000000000000000081526004018080602001828103825260118152602001807f5244412f656d7074792d6164647265737300000000000000000000000000000081525060200191505060405180910390fd5b60405180606001604052808573ffffffffffffffffffffffffffffffffffffffff1673ffffffffffffffffffffffffffffffffffffffff1681526020018473ffffffffffffffffffffffffffffffffffffffff1673ffffffffffffffffffffffffffffffffffffffff1681526020018373ffffffffffffffffffffffffffffffffffffffff1673ffffffffffffffffffffffffffffffffffffffff1681525060039060036200022f92919062000349565b506001600660008673ffffffffffffffffffffffffffffffffffffffff1673ffffffffffffffffffffffffffffffffffffffff16815260200190815260200160002060006101000a81548160ff0219169083151502179055506001600660008573ffffffffffffffffffffffffffffffffffffffff1673ffffffffffffffffffffffffffffffffffffffff16815260200190815260200160002060006101000a81548160ff0219169083151502179055506001600660008473ffffffffffffffffffffffffffffffffffffffff1673ffffffffffffffffffffffffffffffffffffffff16815260200190815260200160002060006101000a81548160ff021916908315150217905550806000819055505050505062000411565b8260038101928215620003b8579160200282015b82811115620003b75782518260006101000a81548173ffffffffffffffffffffffffffffffffffffffff021916908373ffffffffffffffffffffffffffffffffffffffff160217905550916020019190600101906200035d565b5b509050620003c79190620003cb565b5090565b6200040e91905b808211156200040a57600081816101000a81549073ffffffffffffffffffffffffffffffffffffffff021916905550600101620003d2565b5090565b90565b611e5080620004216000396000f3fe608060405234801561001057600080fd5b50600436106101165760003560e01c80638b51d13f116100a2578063b138887211610071578063b1388872146105d4578063c01a8c8414610639578063d5796b9514610667578063ee22610b146106b6578063f502236d146106e457610116565b80638b51d13f146103dd578063929066f51461041f5780639ace38c21461047b5780639de5dcd61461054357610116565b806335c1d349116100e957806335c1d3491461027c57806336c47a90146102ea5780636216b6e31461032f578063784547a71461037957806378ce1365146103bf57610116565b80630b3bb0241461011b5780630f979c281461016557806320ea8d86146101e85780633411c81c14610216575b600080fd5b61012361072e565b604051808273ffffffffffffffffffffffffffffffffffffffff1673ffffffffffffffffffffffffffffffffffffffff16815260200191505060405180910390f35b6101916004803603602081101561017b57600080fd5b8101908080359060200190929190505050610765565b6040518080602001828103825283818151815260200191508051906020019060200280838360005b838110156101d45780820151818401526020810190506101b9565b505050509050019250505060405180910390f35b610214600480360360208110156101fe57600080fd5b810190808035906020019092919050505061086e565b005b6102626004803603604081101561022c57600080fd5b8101908080359060200190929190803573ffffffffffffffffffffffffffffffffffffffff169060200190929190505050610c25565b604051808215151515815260200191505060405180910390f35b6102a86004803603602081101561029257600080fd5b8101908080359060200190929190505050610c54565b604051808273ffffffffffffffffffffffffffffffffffffffff1673ffffffffffffffffffffffffffffffffffffffff16815260200191505060405180910390f35b6103196004803603602081101561030057600080fd5b81019080803560ff169060200190929190505050610c87565b6040518082815260200191505060405180910390f35b610337610dab565b604051808273ffffffffffffffffffffffffffffffffffffffff1673ffffffffffffffffffffffffffffffffffffffff16815260200191505060405180910390f35b6103a56004803603602081101561038f57600080fd5b8101908080359060200190929190505050610de2565b604051808215151515815260200191505060405180910390f35b6103c7610eb9565b6040518082815260200191505060405180910390f35b610409600480360360208110156103f357600080fd5b8101908080359060200190929190505050610ebf565b6040518082815260200191505060405180910390f35b6104616004803603602081101561043557600080fd5b81019080803573ffffffffffffffffffffffffffffffffffffffff169060200190929190505050610f7b565b604051808215151515815260200191505060405180910390f35b6104a76004803603602081101561049157600080fd5b8101908080359060200190929190505050610f9b565b604051808673ffffffffffffffffffffffffffffffffffffffff1673ffffffffffffffffffffffffffffffffffffffff1681526020018560028111156104e957fe5b60ff1681526020018473ffffffffffffffffffffffffffffffffffffffff1673ffffffffffffffffffffffffffffffffffffffff168152602001831515151581526020018281526020019550505050505060405180910390f35b61057d6004803603604081101561055957600080fd5b8101908080351515906020019092919080351515906020019092919050505061102b565b6040518080602001828103825283818151815260200191508051906020019060200280838360005b838110156105c05780820151818401526020810190506105a5565b505050509050019250505060405180910390f35b610623600480360360408110156105ea57600080fd5b81019080803560ff169060200190929190803573ffffffffffffffffffffffffffffffffffffffff16906020019092919050505061118c565b6040518082815260200191505060405180910390f35b6106656004803603602081101561064f57600080fd5b810190808035906020019092919050505061122d565b005b6106a06004803603604081101561067d57600080fd5b81019080803560ff169060200190929190803590602001909291905050506115e5565b6040518082815260200191505060405180910390f35b6106e2600480360360208110156106cc57600080fd5b8101908080359060200190929190505050611687565b005b6106ec611b42565b604051808273ffffffffffffffffffffffffffffffffffffffff1673ffffffffffffffffffffffffffffffffffffffff16815260200191505060405180910390f35b6000600360006003811061073e57fe5b0160009054906101000a900473ffffffffffffffffffffffffffffffffffffffff16905090565b606060036040519080825280602002602001820160405280156107975781602001602082028036833780820191505090505b50905060008090505b600381101561086857600260008481526020019081526020016000206000600383600381106107cb57fe5b0160009054906101000a900473ffffffffffffffffffffffffffffffffffffffff1673ffffffffffffffffffffffffffffffffffffffff1673ffffffffffffffffffffffffffffffffffffffff16815260200190815260200160002060009054906101000a900460ff161561085b57600182828151811061084857fe5b6020026020010190151590811515815250505b80806001019150506107a0565b50919050565b600660003373ffffffffffffffffffffffffffffffffffffffff1673ffffffffffffffffffffffffffffffffffffffff16815260200190815260200160002060009054906101000a900460ff1661092d576040517f08c379a000000000000000000000000000000000000000000000000000000000815260040180806020018281038252600f8152602001807f5244412f6e6f742d616c6c6f776564000000000000000000000000000000000081525060200191505060405180910390fd5b80600073ffffffffffffffffffffffffffffffffffffffff166001600083815260200190815260200160002060000160009054906101000a900473ffffffffffffffffffffffffffffffffffffffff1673ffffffffffffffffffffffffffffffffffffffff161415610a07576040517f08c379a000000000000000000000000000000000000000000000000000000000815260040180806020018281038252600f8152602001807f5244412f696e76616c69642d74786e000000000000000000000000000000000081525060200191505060405180910390fd5b81336002600083815260200190815260200160002060008273ffffffffffffffffffffffffffffffffffffffff1673ffffffffffffffffffffffffffffffffffffffff16815260200190815260200160002060009054906101000a900460ff16610ad9576040517f08c379a00000000000000000000000000000000000000000000000000000000081526004018080602001828103825260158152602001807f5244412f74786e2d6e6f742d636f6e6669726d6564000000000000000000000081525060200191505060405180910390fd5b836001600082815260200190815260200160002060010160149054906101000a900460ff1615610b71576040517f08c379a00000000000000000000000000000000000000000000000000000000081526004018080602001828103825260108152602001807f5244412f74786e2d65786563757465640000000000000000000000000000000081525060200191505060405180910390fd5b60006002600087815260200190815260200160002060003373ffffffffffffffffffffffffffffffffffffffff1673ffffffffffffffffffffffffffffffffffffffff16815260200190815260200160002060006101000a81548160ff021916908315150217905550843373ffffffffffffffffffffffffffffffffffffffff167ff6a317157440607f36269043eb55f1287a5a19ba2216afeab88cd46cbcfb88e960405160405180910390a35050505050565b60026020528160005260406000206020528060005260406000206000915091509054906101000a900460ff1681565b60038160038110610c6157fe5b016000915054906101000a900473ffffffffffffffffffffffffffffffffffffffff1681565b6000816003816002811115610c9857fe5b10610d0b576040517f08c379a00000000000000000000000000000000000000000000000000000000081526004018080602001828103825260148152602001807f5244412f696e76616c69642d74786e2d7479706500000000000000000000000081525060200191505060405180910390fd5b60006002811115610d1857fe5b836002811115610d2457fe5b14610d97576040517f08c379a00000000000000000000000000000000000000000000000000000000081526004018080602001828103825260158152602001807f5244412f696e76616c69642d617267756d656e7473000000000000000000000081525060200191505060405180910390fd5b610da383600080611b79565b915050919050565b60006003600260038110610dbb57fe5b0160009054906101000a900473ffffffffffffffffffffffffffffffffffffffff16905090565b6000806000905060008090505b6003811015610eb15760026000858152602001908152602001600020600060038360038110610e1a57fe5b0160009054906101000a900473ffffffffffffffffffffffffffffffffffffffff1673ffffffffffffffffffffffffffffffffffffffff1673ffffffffffffffffffffffffffffffffffffffff16815260200190815260200160002060009054906101000a900460ff1615610e90576001820191505b6002821415610ea457600192505050610eb4565b8080600101915050610def565b50505b919050565b60075481565b600080600090505b6003811015610f755760026000848152602001908152602001600020600060038360038110610ef257fe5b0160009054906101000a900473ffffffffffffffffffffffffffffffffffffffff1673ffffffffffffffffffffffffffffffffffffffff1673ffffffffffffffffffffffffffffffffffffffff16815260200190815260200160002060009054906101000a900460ff1615610f68576001820191505b8080600101915050610ec7565b50919050565b60066020528060005260406000206000915054906101000a900460ff1681565b60016020528060005260406000206000915090508060000160009054906101000a900473ffffffffffffffffffffffffffffffffffffffff16908060000160149054906101000a900460ff16908060010160009054906101000a900473ffffffffffffffffffffffffffffffffffffffff16908060010160149054906101000a900460ff16908060020154905085565b60608060075460405190808252806020026020018201604052801561105f5781602001602082028036833780820191505090505b509050600080905060008090505b60075481101561110b578580156110a557506001600082815260200190815260200160002060010160149054906101000a900460ff16155b806110d957508480156110d857506001600082815260200190815260200160002060010160149054906101000a900460ff165b5b156110fe57808383815181106110eb57fe5b6020026020010181815250506001820191505b808060010191505061106d565b8160405190808252806020026020018201604052801561113a5781602001602082028036833780820191505090505b509350600090505b818110156111835782818151811061115657fe5b602002602001015184828151811061116a57fe5b6020026020010181815250508080600101915050611142565b50505092915050565b600060028081111561119a57fe5b8360028111156111a657fe5b14611219576040517f08c379a00000000000000000000000000000000000000000000000000000000081526004018080602001828103825260158152602001807f5244412f696e76616c69642d617267756d656e7473000000000000000000000081525060200191505060405180910390fd5b61122583836000611b79565b905092915050565b600660003373ffffffffffffffffffffffffffffffffffffffff1673ffffffffffffffffffffffffffffffffffffffff16815260200190815260200160002060009054906101000a900460ff166112ec576040517f08c379a000000000000000000000000000000000000000000000000000000000815260040180806020018281038252600f8152602001807f5244412f6e6f742d616c6c6f776564000000000000000000000000000000000081525060200191505060405180910390fd5b80600073ffffffffffffffffffffffffffffffffffffffff166001600083815260200190815260200160002060000160009054906101000a900473ffffffffffffffffffffffffffffffffffffffff1673ffffffffffffffffffffffffffffffffffffffff1614156113c6576040517f08c379a000000000000000000000000000000000000000000000000000000000815260040180806020018281038252600f8152602001807f5244412f696e76616c69642d74786e000000000000000000000000000000000081525060200191505060405180910390fd5b81336002600083815260200190815260200160002060008273ffffffffffffffffffffffffffffffffffffffff1673ffffffffffffffffffffffffffffffffffffffff16815260200190815260200160002060009054906101000a900460ff1615611499576040517f08c379a00000000000000000000000000000000000000000000000000000000081526004018080602001828103825260118152602001807f5244412f74786e2d636f6e6669726d656400000000000000000000000000000081525060200191505060405180910390fd5b836001600082815260200190815260200160002060010160149054906101000a900460ff1615611531576040517f08c379a00000000000000000000000000000000000000000000000000000000081526004018080602001828103825260108152602001807f5244412f74786e2d65786563757465640000000000000000000000000000000081525060200191505060405180910390fd5b60016002600087815260200190815260200160002060003373ffffffffffffffffffffffffffffffffffffffff1673ffffffffffffffffffffffffffffffffffffffff16815260200190815260200160002060006101000a81548160ff021916908315150217905550843373ffffffffffffffffffffffffffffffffffffffff167f4a504a94899432a9846e1aa406dceb1bcfd538bb839071d49d1e5e23f5be30ef60405160405180910390a35050505050565b6000600160028111156115f457fe5b83600281111561160057fe5b14611673576040517f08c379a00000000000000000000000000000000000000000000000000000000081526004018080602001828103825260158152602001807f5244412f696e76616c69642d617267756d656e7473000000000000000000000081525060200191505060405180910390fd5b61167f83600084611b79565b905092915050565b600660003373ffffffffffffffffffffffffffffffffffffffff1673ffffffffffffffffffffffffffffffffffffffff16815260200190815260200160002060009054906101000a900460ff16611746576040517f08c379a000000000000000000000000000000000000000000000000000000000815260040180806020018281038252600f8152602001807f5244412f6e6f742d616c6c6f776564000000000000000000000000000000000081525060200191505060405180910390fd5b80600073ffffffffffffffffffffffffffffffffffffffff166001600083815260200190815260200160002060000160009054906101000a900473ffffffffffffffffffffffffffffffffffffffff1673ffffffffffffffffffffffffffffffffffffffff161415611820576040517f08c379a000000000000000000000000000000000000000000000000000000000815260040180806020018281038252600f8152602001807f5244412f696e76616c69642d74786e000000000000000000000000000000000081525060200191505060405180910390fd5b81336002600083815260200190815260200160002060008273ffffffffffffffffffffffffffffffffffffffff1673ffffffffffffffffffffffffffffffffffffffff16815260200190815260200160002060009054906101000a900460ff166118f2576040517f08c379a00000000000000000000000000000000000000000000000000000000081526004018080602001828103825260158152602001807f5244412f74786e2d6e6f742d636f6e6669726d6564000000000000000000000081525060200191505060405180910390fd5b836001600082815260200190815260200160002060010160149054906101000a900460ff161561198a576040517f08c379a00000000000000000000000000000000000000000000000000000000081526004018080602001828103825260108152602001807f5244412f74786e2d65786563757465640000000000000000000000000000000081525060200191505060405180910390fd5b61199385610de2565b15611b3b57600060016000878152602001908152602001600020905060018160010160146101000a81548160ff0219169083151502179055506000809050600060028111156119de57fe5b8260000160149054906101000a900460ff1660028111156119fb57fe5b1415611a1057611a09611b98565b9050611ab5565b60016002811115611a1d57fe5b8260000160149054906101000a900460ff166002811115611a3a57fe5b1415611a5457611a4d8260020154611ba1565b9050611ab4565b600280811115611a6057fe5b8260000160149054906101000a900460ff166002811115611a7d57fe5b1415611ab357611ab08260010160009054906101000a900473ffffffffffffffffffffffffffffffffffffffff16611bac565b90505b5b5b8015611aed57867f33e13ecb54c3076d8e8bb8c2881800a4d972b792045ffae98fdf46df365fed7560405160405180910390a2611b38565b867f526441bb6c1aba3c9a4a6ca1d6545da9c2333c8c48343ef398eb858d72b7923660405160405180910390a260008260010160146101000a81548160ff0219169083151502179055505b50505b5050505050565b60006003600160038110611b5257fe5b0160009054906101000a900473ffffffffffffffffffffffffffffffffffffffff16905090565b6000611b86848484611bb7565b9050611b918161122d565b9392505050565b60006001905090565b600060019050919050565b600060019050919050565b6000600660003373ffffffffffffffffffffffffffffffffffffffff1673ffffffffffffffffffffffffffffffffffffffff16815260200190815260200160002060009054906101000a900460ff16611c78576040517f08c379a000000000000000000000000000000000000000000000000000000000815260040180806020018281038252600f8152602001807f5244412f6e6f742d616c6c6f776564000000000000000000000000000000000081525060200191505060405180910390fd5b60075490506040518060a001604052803373ffffffffffffffffffffffffffffffffffffffff168152602001856002811115611cb057fe5b81526020018473ffffffffffffffffffffffffffffffffffffffff168152602001600015158152602001838152506001600083815260200190815260200160002060008201518160000160006101000a81548173ffffffffffffffffffffffffffffffffffffffff021916908373ffffffffffffffffffffffffffffffffffffffff16021790555060208201518160000160146101000a81548160ff02191690836002811115611d5c57fe5b021790555060408201518160010160006101000a81548173ffffffffffffffffffffffffffffffffffffffff021916908373ffffffffffffffffffffffffffffffffffffffff16021790555060608201518160010160146101000a81548160ff021916908315150217905550608082015181600201559050506001600760008282540192505081905550807fc0ba8fe4b176c1714197d43b9cc6bcf797a4a7461c5fe8d0ef6e184ae7601e5160405160405180910390a2939250505056fea26469706673582212202150f98d1fd5b300b743ccb087c8976c0cf06b7d67325d4d1614da2f4e7699f464736f6c63430006030033",
  "source": "pragma solidity 0.6.3;\r\n\r\ncontract MultisigRDA {\r\n\r\n    // --- Constants ---\r\n\r\n    // --- Storage ---\r\n    uint trusteeFee;\r\n    mapping(uint => Transaction) public transactions;\r\n    mapping(uint => mapping(address => bool)) public confirmations;\r\n    address[3] public participants;\r\n    mapping(address => bool) public isParticipant;\r\n    uint public txnCount;\r\n    enum TransactionType {ReturnDeposit, PayDamages, Migrate}\r\n\r\n    struct Transaction {\r\n        address owner;\r\n        TransactionType txnType;\r\n        address dest;\r\n        bool executed;\r\n        uint value;\r\n    }\r\n\r\n    // --- Events ---\r\n    event Confirmation(address indexed sender, uint indexed txnId);\r\n    event Revocation(address indexed sender, uint indexed txnId);\r\n    event Submission(uint indexed txnId);\r\n    event Execution(uint indexed txnId);\r\n    event ExecutionFailure(uint indexed txnId);\r\n\r\n    // --- Modifiers ---\r\n    modifier onlyParticipant() {\r\n        require(isParticipant[msg.sender], 'RDA/not-allowed');\r\n        _;\r\n    }\r\n\r\n    modifier transactionExists(uint txnId) {\r\n        require(transactions[txnId].owner != address(0), 'RDA/invalid-txn');\r\n        _;\r\n    }\r\n\r\n    modifier confirmed(uint txnId, address participant) {\r\n        require(confirmations[txnId][participant], 'RDA/txn-not-confirmed');\r\n        _;\r\n    }\r\n\r\n    modifier notConfirmed(uint txnId, address participant) {\r\n        require(!confirmations[txnId][participant], 'RDA/txn-confirmed');\r\n        _;\r\n    }\r\n\r\n    modifier notExecuted(uint txnId) {\r\n        require(!transactions[txnId].executed, 'RDA/txn-executed');\r\n        _;\r\n    }\r\n\r\n    modifier transactionTypeExists(TransactionType txnType) {\r\n        require(uint(txnType) < 3, 'RDA/invalid-txn-type');\r\n        _;\r\n    }\r\n\r\n    // --- Functions ---\r\n\r\n    // ** Constructor **\r\n    constructor(address tenant, address landlord, address trustee, uint _trusteeFee) public {\r\n        require(\r\n            tenant != address(0) && landlord != address(0) && trustee != address(0),\r\n            'RDA/empty-address'\r\n        );\r\n        participants = [tenant, landlord, trustee];\r\n        isParticipant[tenant] = true;\r\n        isParticipant[landlord] = true;\r\n        isParticipant[trustee] = true;\r\n        trusteeFee = _trusteeFee;\r\n    }\r\n\r\n    // ** External Functions **\r\n\r\n    // Transaction to return the deposit. Takes no further arguments.\r\n    function submitTransaction(TransactionType txnType)\r\n        external\r\n        transactionTypeExists(txnType)\r\n        returns (uint txnId)\r\n    {\r\n        require(txnType == TransactionType.ReturnDeposit, 'RDA/invalid-arguments');\r\n        txnId = submitTransaction(txnType, address(0), 0);\r\n    }\r\n\r\n    // Transaction to pay the landlord.\r\n    function submitTransaction(TransactionType txnType, uint value)\r\n        external\r\n        returns (uint txnId)\r\n    {\r\n        require(txnType == TransactionType.PayDamages, 'RDA/invalid-arguments');\r\n        txnId = submitTransaction(txnType, address(0), value);\r\n    }\r\n\r\n    // Transaction to migrate the contract.\r\n    function submitTransaction(TransactionType txnType, address dest)\r\n        external\r\n        returns (uint txnId)\r\n    {\r\n        require(txnType == TransactionType.Migrate, 'RDA/invalid-arguments');\r\n        txnId = submitTransaction(txnType, dest, 0);\r\n    }\r\n\r\n    // ** Public Functions **\r\n\r\n    function confirmTransaction(uint txnId)\r\n        public\r\n        onlyParticipant\r\n        transactionExists(txnId)\r\n        notConfirmed(txnId, msg.sender)\r\n        notExecuted(txnId) // immutability of executed transactions\r\n    {\r\n        confirmations[txnId][msg.sender] = true;\r\n        emit Confirmation(msg.sender, txnId);\r\n    }\r\n\r\n    function revokeConfirmation(uint txnId)\r\n        public\r\n        onlyParticipant\r\n        transactionExists(txnId)\r\n        confirmed(txnId, msg.sender)\r\n        notExecuted(txnId)\r\n    {\r\n        confirmations[txnId][msg.sender] = false;\r\n        emit Revocation(msg.sender, txnId);\r\n    }\r\n\r\n    function executeTransaction(uint txnId)\r\n    public\r\n    onlyParticipant // this is conservative\r\n    transactionExists(txnId)\r\n    confirmed(txnId, msg.sender) // this is conservative\r\n    notExecuted(txnId)\r\n    {\r\n        if (isConfirmed(txnId)) {\r\n            Transaction storage txn = transactions[txnId];\r\n            txn.executed = true;\r\n            bool success = false;\r\n            if (txn.txnType == TransactionType.ReturnDeposit) {\r\n                success = returnDeposit();\r\n            } else if (txn.txnType == TransactionType.PayDamages) {\r\n                success = payDamages(txn.value);\r\n            } else if (txn.txnType == TransactionType.Migrate) {\r\n                success = migrate(txn.dest);\r\n            }\r\n            if (success) {\r\n                emit Execution(txnId);\r\n            } else {\r\n                emit ExecutionFailure(txnId);\r\n                txn.executed = false;\r\n            }\r\n        }\r\n    }\r\n\r\n    //noinspection NoReturn (will return false by default)\r\n    function isConfirmed(uint txnId)\r\n    public\r\n    view\r\n    returns (bool)\r\n    {\r\n        uint count = 0;\r\n        for (uint i = 0; i < 3; i++) {\r\n            if (confirmations[txnId][participants[i]])\r\n                count += 1;\r\n            if (count == 2)\r\n                return true;\r\n        }\r\n    }\r\n\r\n    function getTenant() public view returns(address) {\r\n        return participants[0];\r\n    }\r\n\r\n    function getLandlord() public view returns(address) {\r\n        return participants[1];\r\n    }\r\n\r\n    function getTrustee() public view returns(address) {\r\n        return participants[2];\r\n    }\r\n\r\n    // ** Internal State Functions **\r\n\r\n    /// @dev Transaction builder. Unifies all the overloaded functions.\r\n    function submitTransaction(TransactionType txnType, address dest, uint value)\r\n    internal\r\n    returns (uint txnId)\r\n    {\r\n        txnId = addTransaction(txnType, dest, value);\r\n        confirmTransaction(txnId);\r\n    }\r\n\r\n    function addTransaction(TransactionType txnType, address dest, uint value)\r\n        internal\r\n        onlyParticipant\r\n        returns (uint txnId)\r\n    {\r\n        txnId = txnCount;\r\n        transactions[txnId] = Transaction({\r\n            owner : msg.sender,\r\n            txnType : txnType,\r\n            dest : dest,\r\n            executed : false,\r\n            value : value\r\n            });\r\n        txnCount += 1;\r\n        emit Submission(txnId);\r\n    }\r\n\r\n    // ** Internal Logic Functions **\r\n\r\n    function returnDeposit()\r\n        internal\r\n        pure // temp\r\n        returns (bool success)\r\n    {\r\n        // will return deposit to the tenant\r\n        // function is not yet implemented\r\n        success = true;\r\n    }\r\n\r\n    function payDamages(uint value)\r\n        internal\r\n        pure // temp\r\n        returns (bool success)\r\n    {\r\n        // will transfer min(value, balance) DAI to the landlord\r\n        // function is not yet implemented and will throw compiler warnings (ignore them)\r\n        success = true;\r\n    }\r\n\r\n    function migrate(address dest)\r\n        internal\r\n        pure // temp\r\n        returns (bool success)\r\n    {\r\n        // will transfer all funds to a new address\r\n        // function is not yet implemented and will throw compiler warnings (ignore them)\r\n        success = true;\r\n    }\r\n\r\n\r\n    // ** Web3 call functions (Public & View) **\r\n\r\n    function getConfirmationCount(uint txnId)\r\n        public\r\n        view\r\n        returns (uint count)\r\n    {\r\n        for (uint i = 0; i < 3; i++) {\r\n            if (confirmations[txnId][participants[i]]) {\r\n                count += 1;\r\n            }\r\n        }\r\n    }\r\n\r\n    function getConfirmationStatus(uint txnId)\r\n        public\r\n        view\r\n        returns (bool[] memory confirmationStatus)\r\n    {\r\n        confirmationStatus = new bool[](3);\r\n        for (uint i = 0; i < 3; i++) {\r\n            if (confirmations[txnId][participants[i]]) {\r\n                confirmationStatus[i] = true;\r\n            }\r\n        }\r\n    }\r\n\r\n    function getTransactionIds(bool pending, bool executed)\r\n        public\r\n        view\r\n        returns (uint[] memory txnIds)\r\n    {\r\n        uint[] memory txnIdsTemp = new uint[](txnCount);\r\n        uint count = 0;\r\n        uint i;\r\n        for (i = 0; i < txnCount; i++) {\r\n            if (pending && !transactions[i].executed || executed && transactions[i].executed) {\r\n                txnIdsTemp[count] = i;\r\n                count += 1;\r\n            }\r\n        }\r\n        txnIds = new uint[](count);\r\n        for (i = 0; i < count; i++)\r\n            txnIds[i] = txnIdsTemp[i];\r\n    }\r\n\r\n}\r\n",
  "sourcePath": "C:\\Users\\Matthias\\Documents\\_uni\\fs2020\\seminar_blockchain\\src\\contracts\\MultisigRDA.sol",
  "compiler": {
    "name": "solc",
    "version": "0.6.3+commit.8dda9521.Emscripten.clang"
  },
  "schemaVersion": "3.0.23",
  "updatedAt": "2020-03-04T10:01:56.171Z",
  "devdoc": {
    "methods": {}
  },
  "userdoc": {
    "methods": {}
  }
}