{
  "contractName": "MultisigRDA",
  "abi": [
    {
      "inputs": [
        {
          "internalType": "address",
          "name": "one",
          "type": "address"
        },
        {
          "internalType": "address",
          "name": "two",
          "type": "address"
        },
        {
          "internalType": "address",
          "name": "three",
          "type": "address"
        }
      ],
      "payable": false,
      "stateMutability": "nonpayable",
      "type": "constructor"
    },
    {
      "anonymous": false,
      "inputs": [
        {
          "indexed": true,
          "internalType": "address",
          "name": "sender",
          "type": "address"
        },
        {
          "indexed": true,
          "internalType": "uint256",
          "name": "txnId",
          "type": "uint256"
        }
      ],
      "name": "Confirmation",
      "type": "event"
    },
    {
      "anonymous": false,
      "inputs": [
        {
          "indexed": true,
          "internalType": "uint256",
          "name": "txnId",
          "type": "uint256"
        }
      ],
      "name": "Execution",
      "type": "event"
    },
    {
      "anonymous": false,
      "inputs": [
        {
          "indexed": true,
          "internalType": "uint256",
          "name": "txnId",
          "type": "uint256"
        }
      ],
      "name": "ExecutionFailure",
      "type": "event"
    },
    {
      "anonymous": false,
      "inputs": [
        {
          "indexed": true,
          "internalType": "address",
          "name": "sender",
          "type": "address"
        },
        {
          "indexed": true,
          "internalType": "uint256",
          "name": "txnId",
          "type": "uint256"
        }
      ],
      "name": "Revocation",
      "type": "event"
    },
    {
      "anonymous": false,
      "inputs": [
        {
          "indexed": true,
          "internalType": "uint256",
          "name": "txnId",
          "type": "uint256"
        }
      ],
      "name": "Submission",
      "type": "event"
    },
    {
      "constant": true,
      "inputs": [
        {
          "internalType": "uint256",
          "name": "",
          "type": "uint256"
        },
        {
          "internalType": "address",
          "name": "",
          "type": "address"
        }
      ],
      "name": "confirmations",
      "outputs": [
        {
          "internalType": "bool",
          "name": "",
          "type": "bool"
        }
      ],
      "payable": false,
      "stateMutability": "view",
      "type": "function"
    },
    {
      "constant": true,
      "inputs": [
        {
          "internalType": "address",
          "name": "",
          "type": "address"
        }
      ],
      "name": "isParticipant",
      "outputs": [
        {
          "internalType": "bool",
          "name": "",
          "type": "bool"
        }
      ],
      "payable": false,
      "stateMutability": "view",
      "type": "function"
    },
    {
      "constant": true,
      "inputs": [
        {
          "internalType": "uint256",
          "name": "",
          "type": "uint256"
        }
      ],
      "name": "participants",
      "outputs": [
        {
          "internalType": "address",
          "name": "",
          "type": "address"
        }
      ],
      "payable": false,
      "stateMutability": "view",
      "type": "function"
    },
    {
      "constant": true,
      "inputs": [
        {
          "internalType": "uint256",
          "name": "",
          "type": "uint256"
        }
      ],
      "name": "transactions",
      "outputs": [
        {
          "internalType": "address",
          "name": "owner",
          "type": "address"
        },
        {
          "internalType": "enum MultisigRDA.TransactionType",
          "name": "txnType",
          "type": "uint8"
        },
        {
          "internalType": "address",
          "name": "dest",
          "type": "address"
        },
        {
          "internalType": "bool",
          "name": "executed",
          "type": "bool"
        },
        {
          "internalType": "uint256",
          "name": "value",
          "type": "uint256"
        }
      ],
      "payable": false,
      "stateMutability": "view",
      "type": "function"
    },
    {
      "constant": true,
      "inputs": [],
      "name": "txnCount",
      "outputs": [
        {
          "internalType": "uint256",
          "name": "",
          "type": "uint256"
        }
      ],
      "payable": false,
      "stateMutability": "view",
      "type": "function"
    },
    {
      "constant": false,
      "inputs": [
        {
          "internalType": "enum MultisigRDA.TransactionType",
          "name": "txnType",
          "type": "uint8"
        }
      ],
      "name": "submitTransaction",
      "outputs": [
        {
          "internalType": "uint256",
          "name": "txnId",
          "type": "uint256"
        }
      ],
      "payable": false,
      "stateMutability": "nonpayable",
      "type": "function"
    },
    {
      "constant": false,
      "inputs": [
        {
          "internalType": "enum MultisigRDA.TransactionType",
          "name": "txnType",
          "type": "uint8"
        },
        {
          "internalType": "address",
          "name": "dest",
          "type": "address"
        }
      ],
      "name": "submitTransaction",
      "outputs": [
        {
          "internalType": "uint256",
          "name": "txnId",
          "type": "uint256"
        }
      ],
      "payable": false,
      "stateMutability": "nonpayable",
      "type": "function"
    },
    {
      "constant": false,
      "inputs": [
        {
          "internalType": "enum MultisigRDA.TransactionType",
          "name": "txnType",
          "type": "uint8"
        },
        {
          "internalType": "uint256",
          "name": "value",
          "type": "uint256"
        }
      ],
      "name": "submitTransaction",
      "outputs": [
        {
          "internalType": "uint256",
          "name": "txnId",
          "type": "uint256"
        }
      ],
      "payable": false,
      "stateMutability": "nonpayable",
      "type": "function"
    },
    {
      "constant": false,
      "inputs": [
        {
          "internalType": "uint256",
          "name": "txnId",
          "type": "uint256"
        }
      ],
      "name": "confirmTransaction",
      "outputs": [],
      "payable": false,
      "stateMutability": "nonpayable",
      "type": "function"
    },
    {
      "constant": false,
      "inputs": [
        {
          "internalType": "uint256",
          "name": "txnId",
          "type": "uint256"
        }
      ],
      "name": "revokeConfirmation",
      "outputs": [],
      "payable": false,
      "stateMutability": "nonpayable",
      "type": "function"
    },
    {
      "constant": false,
      "inputs": [
        {
          "internalType": "uint256",
          "name": "txnId",
          "type": "uint256"
        }
      ],
      "name": "executeTransaction",
      "outputs": [],
      "payable": false,
      "stateMutability": "nonpayable",
      "type": "function"
    },
    {
      "constant": true,
      "inputs": [
        {
          "internalType": "uint256",
          "name": "txnId",
          "type": "uint256"
        }
      ],
      "name": "isConfirmed",
      "outputs": [
        {
          "internalType": "bool",
          "name": "",
          "type": "bool"
        }
      ],
      "payable": false,
      "stateMutability": "view",
      "type": "function"
    },
    {
      "constant": true,
      "inputs": [
        {
          "internalType": "uint256",
          "name": "txnId",
          "type": "uint256"
        }
      ],
      "name": "getConfirmationCount",
      "outputs": [
        {
          "internalType": "uint256",
          "name": "count",
          "type": "uint256"
        }
      ],
      "payable": false,
      "stateMutability": "view",
      "type": "function"
    },
    {
      "constant": true,
      "inputs": [
        {
          "internalType": "uint256",
          "name": "txnId",
          "type": "uint256"
        }
      ],
      "name": "getConfirmationStatus",
      "outputs": [
        {
          "internalType": "bool[]",
          "name": "confirmationStatus",
          "type": "bool[]"
        }
      ],
      "payable": false,
      "stateMutability": "view",
      "type": "function"
    },
    {
      "constant": true,
      "inputs": [
        {
          "internalType": "bool",
          "name": "pending",
          "type": "bool"
        },
        {
          "internalType": "bool",
          "name": "executed",
          "type": "bool"
        }
      ],
      "name": "getTransactionIds",
      "outputs": [
        {
          "internalType": "uint256[]",
          "name": "txnIds",
          "type": "uint256[]"
        }
      ],
      "payable": false,
      "stateMutability": "view",
      "type": "function"
    }
  ],
  "bytecode": "0x60806040523480156200001157600080fd5b5060405162001f9738038062001f97833981810160405260608110156200003757600080fd5b8101908080519060200190929190805190602001909291908051906020019092919050505060405180606001604052808473ffffffffffffffffffffffffffffffffffffffff1673ffffffffffffffffffffffffffffffffffffffff1681526020018373ffffffffffffffffffffffffffffffffffffffff1673ffffffffffffffffffffffffffffffffffffffff1681526020018273ffffffffffffffffffffffffffffffffffffffff1673ffffffffffffffffffffffffffffffffffffffff1681525060029060036200010d9291906200021f565b506001600560008573ffffffffffffffffffffffffffffffffffffffff1673ffffffffffffffffffffffffffffffffffffffff16815260200190815260200160002060006101000a81548160ff0219169083151502179055506001600560008473ffffffffffffffffffffffffffffffffffffffff1673ffffffffffffffffffffffffffffffffffffffff16815260200190815260200160002060006101000a81548160ff0219169083151502179055506001600560008373ffffffffffffffffffffffffffffffffffffffff1673ffffffffffffffffffffffffffffffffffffffff16815260200190815260200160002060006101000a81548160ff021916908315150217905550505050620002e7565b82600381019282156200028e579160200282015b828111156200028d5782518260006101000a81548173ffffffffffffffffffffffffffffffffffffffff021916908373ffffffffffffffffffffffffffffffffffffffff1602179055509160200191906001019062000233565b5b5090506200029d9190620002a1565b5090565b620002e491905b80821115620002e057600081816101000a81549073ffffffffffffffffffffffffffffffffffffffff021916905550600101620002a8565b5090565b90565b611ca080620002f76000396000f3fe608060405234801561001057600080fd5b50600436106100f55760003560e01c80638b51d13f11610097578063b138887211610066578063b13888721461051f578063c01a8c8414610584578063d5796b95146105b2578063ee22610b14610601576100f5565b80638b51d13f14610328578063929066f51461036a5780639ace38c2146103c65780639de5dcd61461048e576100f5565b806335c1d349116100d357806335c1d3491461021157806336c47a901461027f578063784547a7146102c457806378ce13651461030a576100f5565b80630f979c28146100fa57806320ea8d861461017d5780633411c81c146101ab575b600080fd5b6101266004803603602081101561011057600080fd5b810190808035906020019092919050505061062f565b6040518080602001828103825283818151815260200191508051906020019060200280838360005b8381101561016957808201518184015260208101905061014e565b505050509050019250505060405180910390f35b6101a96004803603602081101561019357600080fd5b8101908080359060200190929190505050610738565b005b6101f7600480360360408110156101c157600080fd5b8101908080359060200190929190803573ffffffffffffffffffffffffffffffffffffffff169060200190929190505050610aed565b604051808215151515815260200191505060405180910390f35b61023d6004803603602081101561022757600080fd5b8101908080359060200190929190505050610b1c565b604051808273ffffffffffffffffffffffffffffffffffffffff1673ffffffffffffffffffffffffffffffffffffffff16815260200191505060405180910390f35b6102ae6004803603602081101561029557600080fd5b81019080803560ff169060200190929190505050610b4f565b6040518082815260200191505060405180910390f35b6102f0600480360360208110156102da57600080fd5b8101908080359060200190929190505050610c73565b604051808215151515815260200191505060405180910390f35b610312610d4a565b6040518082815260200191505060405180910390f35b6103546004803603602081101561033e57600080fd5b8101908080359060200190929190505050610d50565b6040518082815260200191505060405180910390f35b6103ac6004803603602081101561038057600080fd5b81019080803573ffffffffffffffffffffffffffffffffffffffff169060200190929190505050610e0c565b604051808215151515815260200191505060405180910390f35b6103f2600480360360208110156103dc57600080fd5b8101908080359060200190929190505050610e2c565b604051808673ffffffffffffffffffffffffffffffffffffffff1673ffffffffffffffffffffffffffffffffffffffff16815260200185600281111561043457fe5b60ff1681526020018473ffffffffffffffffffffffffffffffffffffffff1673ffffffffffffffffffffffffffffffffffffffff168152602001831515151581526020018281526020019550505050505060405180910390f35b6104c8600480360360408110156104a457600080fd5b81019080803515159060200190929190803515159060200190929190505050610ebc565b6040518080602001828103825283818151815260200191508051906020019060200280838360005b8381101561050b5780820151818401526020810190506104f0565b505050509050019250505060405180910390f35b61056e6004803603604081101561053557600080fd5b81019080803560ff169060200190929190803573ffffffffffffffffffffffffffffffffffffffff16906020019092919050505061101b565b6040518082815260200191505060405180910390f35b6105b06004803603602081101561059a57600080fd5b81019080803590602001909291905050506110bc565b005b6105eb600480360360408110156105c857600080fd5b81019080803560ff16906020019092919080359060200190929190505050611471565b6040518082815260200191505060405180910390f35b61062d6004803603602081101561061757600080fd5b8101908080359060200190929190505050611513565b005b606060036040519080825280602002602001820160405280156106615781602001602082028038833980820191505090505b50905060008090505b6003811015610732576001600084815260200190815260200160002060006002836003811061069557fe5b0160009054906101000a900473ffffffffffffffffffffffffffffffffffffffff1673ffffffffffffffffffffffffffffffffffffffff1673ffffffffffffffffffffffffffffffffffffffff16815260200190815260200160002060009054906101000a900460ff161561072557600182828151811061071257fe5b6020026020010190151590811515815250505b808060010191505061066a565b50919050565b600560003373ffffffffffffffffffffffffffffffffffffffff1673ffffffffffffffffffffffffffffffffffffffff16815260200190815260200160002060009054906101000a900460ff166107f7576040517f08c379a000000000000000000000000000000000000000000000000000000000815260040180806020018281038252600f8152602001807f5244412f6e6f742d616c6c6f776564000000000000000000000000000000000081525060200191505060405180910390fd5b80600073ffffffffffffffffffffffffffffffffffffffff1660008083815260200190815260200160002060000160009054906101000a900473ffffffffffffffffffffffffffffffffffffffff1673ffffffffffffffffffffffffffffffffffffffff1614156108d0576040517f08c379a000000000000000000000000000000000000000000000000000000000815260040180806020018281038252600f8152602001807f5244412f696e76616c69642d74786e000000000000000000000000000000000081525060200191505060405180910390fd5b81336001600083815260200190815260200160002060008273ffffffffffffffffffffffffffffffffffffffff1673ffffffffffffffffffffffffffffffffffffffff16815260200190815260200160002060009054906101000a900460ff166109a2576040517f08c379a00000000000000000000000000000000000000000000000000000000081526004018080602001828103825260158152602001807f5244412f74786e2d6e6f742d636f6e6669726d6564000000000000000000000081525060200191505060405180910390fd5b8360008082815260200190815260200160002060010160149054906101000a900460ff1615610a39576040517f08c379a00000000000000000000000000000000000000000000000000000000081526004018080602001828103825260108152602001807f5244412f74786e2d65786563757465640000000000000000000000000000000081525060200191505060405180910390fd5b60006001600087815260200190815260200160002060003373ffffffffffffffffffffffffffffffffffffffff1673ffffffffffffffffffffffffffffffffffffffff16815260200190815260200160002060006101000a81548160ff021916908315150217905550843373ffffffffffffffffffffffffffffffffffffffff167ff6a317157440607f36269043eb55f1287a5a19ba2216afeab88cd46cbcfb88e960405160405180910390a35050505050565b60016020528160005260406000206020528060005260406000206000915091509054906101000a900460ff1681565b60028160038110610b2957fe5b016000915054906101000a900473ffffffffffffffffffffffffffffffffffffffff1681565b6000816003816002811115610b6057fe5b10610bd3576040517f08c379a00000000000000000000000000000000000000000000000000000000081526004018080602001828103825260148152602001807f5244412f696e76616c69642d74786e2d7479706500000000000000000000000081525060200191505060405180910390fd5b60006002811115610be057fe5b836002811115610bec57fe5b14610c5f576040517f08c379a00000000000000000000000000000000000000000000000000000000081526004018080602001828103825260158152602001807f5244412f696e76616c69642d617267756d656e7473000000000000000000000081525060200191505060405180910390fd5b610c6b836000806119cb565b915050919050565b6000806000905060008090505b6003811015610d425760016000858152602001908152602001600020600060028360038110610cab57fe5b0160009054906101000a900473ffffffffffffffffffffffffffffffffffffffff1673ffffffffffffffffffffffffffffffffffffffff1673ffffffffffffffffffffffffffffffffffffffff16815260200190815260200160002060009054906101000a900460ff1615610d21576001820191505b6002821415610d3557600192505050610d45565b8080600101915050610c80565b50505b919050565b60065481565b600080600090505b6003811015610e065760016000848152602001908152602001600020600060028360038110610d8357fe5b0160009054906101000a900473ffffffffffffffffffffffffffffffffffffffff1673ffffffffffffffffffffffffffffffffffffffff1673ffffffffffffffffffffffffffffffffffffffff16815260200190815260200160002060009054906101000a900460ff1615610df9576001820191505b8080600101915050610d58565b50919050565b60056020528060005260406000206000915054906101000a900460ff1681565b60006020528060005260406000206000915090508060000160009054906101000a900473ffffffffffffffffffffffffffffffffffffffff16908060000160149054906101000a900460ff16908060010160009054906101000a900473ffffffffffffffffffffffffffffffffffffffff16908060010160149054906101000a900460ff16908060020154905085565b606080600654604051908082528060200260200182016040528015610ef05781602001602082028038833980820191505090505b509050600080905060008090505b600654811015610f9a57858015610f35575060008082815260200190815260200160002060010160149054906101000a900460ff16155b80610f685750848015610f67575060008082815260200190815260200160002060010160149054906101000a900460ff165b5b15610f8d5780838381518110610f7a57fe5b6020026020010181815250506001820191505b8080600101915050610efe565b81604051908082528060200260200182016040528015610fc95781602001602082028038833980820191505090505b509350600090505b8181101561101257828181518110610fe557fe5b6020026020010151848281518110610ff957fe5b6020026020010181815250508080600101915050610fd1565b50505092915050565b600060028081111561102957fe5b83600281111561103557fe5b146110a8576040517f08c379a00000000000000000000000000000000000000000000000000000000081526004018080602001828103825260158152602001807f5244412f696e76616c69642d617267756d656e7473000000000000000000000081525060200191505060405180910390fd5b6110b4838360006119cb565b905092915050565b600560003373ffffffffffffffffffffffffffffffffffffffff1673ffffffffffffffffffffffffffffffffffffffff16815260200190815260200160002060009054906101000a900460ff1661117b576040517f08c379a000000000000000000000000000000000000000000000000000000000815260040180806020018281038252600f8152602001807f5244412f6e6f742d616c6c6f776564000000000000000000000000000000000081525060200191505060405180910390fd5b80600073ffffffffffffffffffffffffffffffffffffffff1660008083815260200190815260200160002060000160009054906101000a900473ffffffffffffffffffffffffffffffffffffffff1673ffffffffffffffffffffffffffffffffffffffff161415611254576040517f08c379a000000000000000000000000000000000000000000000000000000000815260040180806020018281038252600f8152602001807f5244412f696e76616c69642d74786e000000000000000000000000000000000081525060200191505060405180910390fd5b81336001600083815260200190815260200160002060008273ffffffffffffffffffffffffffffffffffffffff1673ffffffffffffffffffffffffffffffffffffffff16815260200190815260200160002060009054906101000a900460ff1615611327576040517f08c379a00000000000000000000000000000000000000000000000000000000081526004018080602001828103825260118152602001807f5244412f74786e2d636f6e6669726d656400000000000000000000000000000081525060200191505060405180910390fd5b8360008082815260200190815260200160002060010160149054906101000a900460ff16156113be576040517f08c379a00000000000000000000000000000000000000000000000000000000081526004018080602001828103825260108152602001807f5244412f74786e2d65786563757465640000000000000000000000000000000081525060200191505060405180910390fd5b600180600087815260200190815260200160002060003373ffffffffffffffffffffffffffffffffffffffff1673ffffffffffffffffffffffffffffffffffffffff16815260200190815260200160002060006101000a81548160ff021916908315150217905550843373ffffffffffffffffffffffffffffffffffffffff167f4a504a94899432a9846e1aa406dceb1bcfd538bb839071d49d1e5e23f5be30ef60405160405180910390a35050505050565b60006001600281111561148057fe5b83600281111561148c57fe5b146114ff576040517f08c379a00000000000000000000000000000000000000000000000000000000081526004018080602001828103825260158152602001807f5244412f696e76616c69642d617267756d656e7473000000000000000000000081525060200191505060405180910390fd5b61150b836000846119cb565b905092915050565b600560003373ffffffffffffffffffffffffffffffffffffffff1673ffffffffffffffffffffffffffffffffffffffff16815260200190815260200160002060009054906101000a900460ff166115d2576040517f08c379a000000000000000000000000000000000000000000000000000000000815260040180806020018281038252600f8152602001807f5244412f6e6f742d616c6c6f776564000000000000000000000000000000000081525060200191505060405180910390fd5b80600073ffffffffffffffffffffffffffffffffffffffff1660008083815260200190815260200160002060000160009054906101000a900473ffffffffffffffffffffffffffffffffffffffff1673ffffffffffffffffffffffffffffffffffffffff1614156116ab576040517f08c379a000000000000000000000000000000000000000000000000000000000815260040180806020018281038252600f8152602001807f5244412f696e76616c69642d74786e000000000000000000000000000000000081525060200191505060405180910390fd5b81336001600083815260200190815260200160002060008273ffffffffffffffffffffffffffffffffffffffff1673ffffffffffffffffffffffffffffffffffffffff16815260200190815260200160002060009054906101000a900460ff1661177d576040517f08c379a00000000000000000000000000000000000000000000000000000000081526004018080602001828103825260158152602001807f5244412f74786e2d6e6f742d636f6e6669726d6564000000000000000000000081525060200191505060405180910390fd5b8360008082815260200190815260200160002060010160149054906101000a900460ff1615611814576040517f08c379a00000000000000000000000000000000000000000000000000000000081526004018080602001828103825260108152602001807f5244412f74786e2d65786563757465640000000000000000000000000000000081525060200191505060405180910390fd5b61181d85610c73565b156119c4576000806000878152602001908152602001600020905060018160010160146101000a81548160ff02191690831515021790555060008090506000600281111561186757fe5b8260000160149054906101000a900460ff16600281111561188457fe5b1415611899576118926119ea565b905061193e565b600160028111156118a657fe5b8260000160149054906101000a900460ff1660028111156118c357fe5b14156118dd576118d682600201546119f3565b905061193d565b6002808111156118e957fe5b8260000160149054906101000a900460ff16600281111561190657fe5b141561193c576119398260010160009054906101000a900473ffffffffffffffffffffffffffffffffffffffff166119fe565b90505b5b5b801561197657867f33e13ecb54c3076d8e8bb8c2881800a4d972b792045ffae98fdf46df365fed7560405160405180910390a26119c1565b867f526441bb6c1aba3c9a4a6ca1d6545da9c2333c8c48343ef398eb858d72b7923660405160405180910390a260008260010160146101000a81548160ff0219169083151502179055505b50505b5050505050565b60006119d8848484611a09565b90506119e3816110bc565b9392505050565b60006001905090565b600060019050919050565b600060019050919050565b6000600560003373ffffffffffffffffffffffffffffffffffffffff1673ffffffffffffffffffffffffffffffffffffffff16815260200190815260200160002060009054906101000a900460ff16611aca576040517f08c379a000000000000000000000000000000000000000000000000000000000815260040180806020018281038252600f8152602001807f5244412f6e6f742d616c6c6f776564000000000000000000000000000000000081525060200191505060405180910390fd5b60065490506040518060a001604052803373ffffffffffffffffffffffffffffffffffffffff168152602001856002811115611b0257fe5b81526020018473ffffffffffffffffffffffffffffffffffffffff1681526020016000151581526020018381525060008083815260200190815260200160002060008201518160000160006101000a81548173ffffffffffffffffffffffffffffffffffffffff021916908373ffffffffffffffffffffffffffffffffffffffff16021790555060208201518160000160146101000a81548160ff02191690836002811115611bad57fe5b021790555060408201518160010160006101000a81548173ffffffffffffffffffffffffffffffffffffffff021916908373ffffffffffffffffffffffffffffffffffffffff16021790555060608201518160010160146101000a81548160ff021916908315150217905550608082015181600201559050506001600660008282540192505081905550807fc0ba8fe4b176c1714197d43b9cc6bcf797a4a7461c5fe8d0ef6e184ae7601e5160405160405180910390a2939250505056fea265627a7a72315820fc06a1d7c3dde6085df104de6d4db16554d74236d8463c40f1fa52b29f56c7ce64736f6c63430005100032",
  "source": "pragma solidity >= 0.5.15  < 0.6.0;\r\n\r\ncontract MultisigRDA {\r\n\r\n    // --- Events ---\r\n    event Confirmation(address indexed sender, uint indexed txnId);\r\n    event Revocation(address indexed sender, uint indexed txnId);\r\n    event Submission(uint indexed txnId);\r\n    event Execution(uint indexed txnId);\r\n    event ExecutionFailure(uint indexed txnId);\r\n\r\n    // --- Storage ---\r\n    mapping(uint => Transaction) public transactions;\r\n    mapping(uint => mapping(address => bool)) public confirmations;\r\n    address[3] public participants;\r\n    mapping(address => bool) public isParticipant;\r\n    uint public txnCount;\r\n    enum TransactionType {ReturnDeposit, PayDamages, Migrate}\r\n\r\n    struct Transaction {\r\n        address owner;\r\n        TransactionType txnType;\r\n        address dest;\r\n        bool executed;\r\n        uint value;\r\n    }\r\n\r\n\r\n    // --- Modifiers ---\r\n    modifier onlyParticipant() {\r\n        require(isParticipant[msg.sender], 'RDA/not-allowed');\r\n        _;\r\n    }\r\n\r\n    modifier transactionExists(uint txnId) {\r\n        require(transactions[txnId].owner != address(0), 'RDA/invalid-txn');\r\n        _;\r\n    }\r\n\r\n    modifier confirmed(uint txnId, address participant) {\r\n        require(confirmations[txnId][participant], 'RDA/txn-not-confirmed');\r\n        _;\r\n    }\r\n\r\n    modifier notConfirmed(uint txnId, address participant) {\r\n        require(!confirmations[txnId][participant], 'RDA/txn-confirmed');\r\n        _;\r\n    }\r\n\r\n    modifier notExecuted(uint txnId) {\r\n        require(!transactions[txnId].executed, 'RDA/txn-executed');\r\n        _;\r\n    }\r\n\r\n    modifier transactionTypeExists(TransactionType txnType) {\r\n        require(uint(txnType) < 3, 'RDA/invalid-txn-type');\r\n        _;\r\n    }\r\n\r\n    // --- Functions ---\r\n\r\n    /// @dev Transaction to return the deposit. Takes no further arguments.\r\n    function submitTransaction(TransactionType txnType)\r\n        public\r\n        transactionTypeExists(txnType)\r\n        returns (uint txnId)\r\n    {\r\n        require(txnType == TransactionType.ReturnDeposit, 'RDA/invalid-arguments');\r\n        txnId = submitTransaction(txnType, address(0), 0);\r\n    }\r\n\r\n    /// @dev Transaction to pay the landlord.\r\n    function submitTransaction(TransactionType txnType, uint value)\r\n        public\r\n        returns (uint txnId)\r\n    {\r\n        require(txnType == TransactionType.PayDamages, 'RDA/invalid-arguments');\r\n        txnId = submitTransaction(txnType, address(0), value);\r\n    }\r\n\r\n    /// @dev Transaction to migrate the contract.\r\n    function submitTransaction(TransactionType txnType, address dest)\r\n        public\r\n        returns (uint txnId)\r\n    {\r\n        require(txnType == TransactionType.Migrate, 'RDA/invalid-arguments');\r\n        txnId = submitTransaction(txnType, dest, 0);\r\n    }\r\n\r\n    /// @dev INTERNAL transaction builder. Unifies all the overloaded functions\r\n    function submitTransaction(TransactionType txnType, address dest, uint value)\r\n        internal\r\n        returns (uint txnId)\r\n    {\r\n        txnId = addTransaction(txnType, dest, value);\r\n        confirmTransaction(txnId);\r\n    }\r\n\r\n    function confirmTransaction(uint txnId)\r\n        public\r\n        onlyParticipant\r\n        transactionExists(txnId)\r\n        notConfirmed(txnId, msg.sender)\r\n        notExecuted(txnId) // immutability of executed transactions\r\n    {\r\n        confirmations[txnId][msg.sender] = true;\r\n        emit Confirmation(msg.sender, txnId);\r\n    }\r\n\r\n    function revokeConfirmation(uint txnId)\r\n        public\r\n        onlyParticipant\r\n        transactionExists(txnId)\r\n        confirmed(txnId, msg.sender)\r\n        notExecuted(txnId)\r\n    {\r\n        confirmations[txnId][msg.sender] = false;\r\n        emit Revocation(msg.sender, txnId);\r\n    }\r\n\r\n    function executeTransaction(uint txnId)\r\n        public\r\n        onlyParticipant // this is conservative\r\n        transactionExists(txnId)\r\n        confirmed(txnId, msg.sender) // this is conservative\r\n        notExecuted(txnId)\r\n    {\r\n        if (isConfirmed(txnId)) {\r\n            Transaction storage txn = transactions[txnId];\r\n            txn.executed = true;\r\n            bool success = false;\r\n            if (txn.txnType == TransactionType.ReturnDeposit) {\r\n                success = returnDeposit();\r\n            } else if (txn.txnType == TransactionType.PayDamages) {\r\n                success = payDamages(txn.value);\r\n            } else if (txn.txnType == TransactionType.Migrate) {\r\n                success = migrate(txn.dest);\r\n            }\r\n            if (success) {\r\n                emit Execution(txnId);\r\n            } else {\r\n                emit ExecutionFailure(txnId);\r\n                txn.executed = false;\r\n            }\r\n        }\r\n    }\r\n\r\n    //noinspection NoReturn (will return false by default)\r\n    function isConfirmed(uint txnId)\r\n        public\r\n        view\r\n        returns (bool)\r\n    {\r\n        uint count = 0;\r\n        for (uint i = 0; i < 3; i++) {\r\n            if (confirmations[txnId][participants[i]])\r\n                count += 1;\r\n            if (count == 2)\r\n                return true;\r\n        }\r\n    }\r\n\r\n    function addTransaction(TransactionType txnType, address dest, uint value)\r\n        internal\r\n        onlyParticipant\r\n        returns (uint txnId)\r\n    {\r\n        txnId = txnCount;\r\n        transactions[txnId] = Transaction({\r\n            owner : msg.sender,\r\n            txnType : txnType,\r\n            dest : dest,\r\n            executed : false,\r\n            value : value\r\n            });\r\n        txnCount += 1;\r\n        emit Submission(txnId);\r\n    }\r\n\r\n    constructor(address one, address two, address three)\r\n        public\r\n    {\r\n        participants = [one, two, three];\r\n        isParticipant[one] = true;\r\n        isParticipant[two] = true;\r\n        isParticipant[three] = true;\r\n    }\r\n\r\n    // --- Executed Transactions ---\r\n\r\n    function returnDeposit()\r\n        internal\r\n        pure // temp\r\n        returns (bool success)\r\n    {\r\n        // will return deposit to the tenant\r\n        // function is not yet implemented\r\n        success = true;\r\n    }\r\n\r\n    function payDamages(uint value)\r\n        internal\r\n        pure // temp\r\n        returns (bool success)\r\n    {\r\n        // will transfer min(value, balance) DAI to the landlord\r\n        // function is not yet implemented and will throw compiler warnings (ignore them)\r\n        success = true;\r\n    }\r\n\r\n    function migrate(address dest)\r\n        internal\r\n        pure // temp\r\n        returns (bool success)\r\n    {\r\n        // will transfer all funds to a new address\r\n        // function is not yet implemented and will throw compiler warnings (ignore them)\r\n        success = true;\r\n    }\r\n\r\n    // --- Web3 call functions ---\r\n    function getConfirmationCount(uint txnId)\r\n        public\r\n        view\r\n        returns (uint count)\r\n    {\r\n        for (uint i = 0; i < 3; i++) {\r\n            if (confirmations[txnId][participants[i]]) {\r\n                count += 1;\r\n            }\r\n        }\r\n    }\r\n\r\n    function getConfirmationStatus(uint txnId)\r\n        public\r\n        view\r\n        returns (bool[] memory confirmationStatus)\r\n    {\r\n        confirmationStatus = new bool[](3);\r\n        for (uint i = 0; i < 3; i++) {\r\n            if (confirmations[txnId][participants[i]]) {\r\n                confirmationStatus[i] = true;\r\n            }\r\n        }\r\n    }\r\n\r\n    function getTransactionIds(bool pending, bool executed)\r\n        public\r\n        view\r\n        returns (uint[] memory txnIds)\r\n    {\r\n        uint[] memory txnIdsTemp = new uint[](txnCount);\r\n        uint count = 0;\r\n        uint i;\r\n        for (i = 0; i < txnCount; i++) {\r\n            if (pending && !transactions[i].executed\r\n            || executed && transactions[i].executed)\r\n            {\r\n                txnIdsTemp[count] = i;\r\n                count += 1;\r\n            }\r\n        }\r\n        txnIds = new uint[](count);\r\n        for (i = 0; i < count; i++)\r\n            txnIds[i] = txnIdsTemp[i];\r\n    }\r\n\r\n}\r\n",
  "sourcePath": "C:\\Users\\Labor\\WebstormProjects\\rental-deposit-account\\src\\contracts\\MultisigRDA.sol",
  "compiler": {
    "name": "solc",
    "version": "0.5.16+commit.9c3226ce.Emscripten.clang"
  },
  "schemaVersion": "3.0.23",
  "updatedAt": "2020-03-03T16:31:18.746Z",
  "devdoc": {
    "methods": {
      "submitTransaction(uint8)": {
        "details": "Transaction to return the deposit. Takes no further arguments."
      },
      "submitTransaction(uint8,address)": {
        "details": "Transaction to migrate the contract."
      },
      "submitTransaction(uint8,uint256)": {
        "details": "Transaction to pay the landlord."
      }
    }
  },
  "userdoc": {
    "methods": {}
  }
}