{
  "contractName": "MultisigRDA",
  "abi": [
    {
      "inputs": [
        {
          "internalType": "address",
          "name": "one",
          "type": "address"
        },
        {
          "internalType": "address",
          "name": "two",
          "type": "address"
        },
        {
          "internalType": "address",
          "name": "three",
          "type": "address"
        }
      ],
      "payable": false,
      "stateMutability": "nonpayable",
      "type": "constructor"
    },
    {
      "constant": true,
      "inputs": [
        {
          "internalType": "uint16",
          "name": "",
          "type": "uint16"
        }
      ],
      "name": "transactions",
      "outputs": [
        {
          "internalType": "uint16",
          "name": "id",
          "type": "uint16"
        },
        {
          "internalType": "address",
          "name": "owner",
          "type": "address"
        },
        {
          "internalType": "enum MultisigRDA.TransactionType",
          "name": "tp",
          "type": "uint8"
        },
        {
          "internalType": "address",
          "name": "target",
          "type": "address"
        },
        {
          "internalType": "uint256",
          "name": "value",
          "type": "uint256"
        }
      ],
      "payable": false,
      "stateMutability": "view",
      "type": "function"
    },
    {
      "constant": false,
      "inputs": [
        {
          "internalType": "enum MultisigRDA.TransactionType",
          "name": "tp",
          "type": "uint8"
        },
        {
          "internalType": "address",
          "name": "target",
          "type": "address"
        },
        {
          "internalType": "uint256",
          "name": "value",
          "type": "uint256"
        }
      ],
      "name": "createTransaction",
      "outputs": [],
      "payable": false,
      "stateMutability": "nonpayable",
      "type": "function"
    },
    {
      "constant": true,
      "inputs": [],
      "name": "getAccs",
      "outputs": [
        {
          "internalType": "address[3]",
          "name": "",
          "type": "address[3]"
        }
      ],
      "payable": false,
      "stateMutability": "view",
      "type": "function"
    }
  ],
  "bytecode": "0x60806040526000600360006101000a81548161ffff021916908361ffff16021790555034801561002e57600080fd5b506040516109173803806109178339818101604052606081101561005157600080fd5b8101908080519060200190929190805190602001909291908051906020019092919050505060405180606001604052808473ffffffffffffffffffffffffffffffffffffffff1673ffffffffffffffffffffffffffffffffffffffff1681526020018373ffffffffffffffffffffffffffffffffffffffff1673ffffffffffffffffffffffffffffffffffffffff1681526020018273ffffffffffffffffffffffffffffffffffffffff1673ffffffffffffffffffffffffffffffffffffffff16815250600090600361012592919061012e565b505050506101ee565b826003810192821561019a579160200282015b828111156101995782518260006101000a81548173ffffffffffffffffffffffffffffffffffffffff021916908373ffffffffffffffffffffffffffffffffffffffff16021790555091602001919060010190610141565b5b5090506101a791906101ab565b5090565b6101eb91905b808211156101e757600081816101000a81549073ffffffffffffffffffffffffffffffffffffffff0219169055506001016101b1565b5090565b90565b61071a806101fd6000396000f3fe608060405234801561001057600080fd5b50600436106100415760003560e01c8063764e0163146100465780637e9a560c14610116578063986ba66c14610171575b600080fd5b6100766004803603602081101561005c57600080fd5b81019080803561ffff1690602001909291905050506101b7565b604051808661ffff1661ffff1681526020018573ffffffffffffffffffffffffffffffffffffffff1673ffffffffffffffffffffffffffffffffffffffff1681526020018460028111156100c657fe5b60ff1681526020018373ffffffffffffffffffffffffffffffffffffffff1673ffffffffffffffffffffffffffffffffffffffff1681526020018281526020019550505050505060405180910390f35b61016f6004803603606081101561012c57600080fd5b81019080803560ff169060200190929190803573ffffffffffffffffffffffffffffffffffffffff16906020019092919080359060200190929190505050610248565b005b6101796104be565b6040518082600360200280838360005b838110156101a4578082015181840152602081019050610189565b5050505090500191505060405180910390f35b60046020528060005260406000206000915090508060000160009054906101000a900461ffff16908060000160029054906101000a900473ffffffffffffffffffffffffffffffffffffffff16908060000160169054906101000a900460ff16908060010160009054906101000a900473ffffffffffffffffffffffffffffffffffffffff16908060030154905085565b60006003600081819054906101000a900461ffff168092919060010191906101000a81548161ffff021916908361ffff160217905550905061028861053f565b60008090505b6003811015610328573373ffffffffffffffffffffffffffffffffffffffff16600082600381106102bb57fe5b0160009054906101000a900473ffffffffffffffffffffffffffffffffffffffff1673ffffffffffffffffffffffffffffffffffffffff16141561031b57600182826003811061030757fe5b602002019015159081151581525050610328565b808060010191505061028e565b50610331610561565b6040518060c001604052808461ffff1681526020013373ffffffffffffffffffffffffffffffffffffffff16815260200187600281111561036e57fe5b81526020018673ffffffffffffffffffffffffffffffffffffffff16815260200183815260200185815250905080600460008561ffff1661ffff16815260200190815260200160002060008201518160000160006101000a81548161ffff021916908361ffff16021790555060208201518160000160026101000a81548173ffffffffffffffffffffffffffffffffffffffff021916908373ffffffffffffffffffffffffffffffffffffffff16021790555060408201518160000160166101000a81548160ff0219169083600281111561044557fe5b021790555060608201518160010160006101000a81548173ffffffffffffffffffffffffffffffffffffffff021916908373ffffffffffffffffffffffffffffffffffffffff1602179055506080820151816002019060036104a89291906105d8565b5060a08201518160030155905050505050505050565b6104c6610671565b6000600380602002604051908101604052809291908260038015610535576020028201915b8160009054906101000a900473ffffffffffffffffffffffffffffffffffffffff1673ffffffffffffffffffffffffffffffffffffffff16815260200190600101908083116104eb575b5050505050905090565b6040518060600160405280600390602082028038833980820191505090505090565b6040518060c00160405280600061ffff168152602001600073ffffffffffffffffffffffffffffffffffffffff168152602001600060028111156105a157fe5b8152602001600073ffffffffffffffffffffffffffffffffffffffff1681526020016105cb610693565b8152602001600081525090565b826003601f016020900481019282156106605791602002820160005b8382111561063157835183826101000a81548160ff02191690831515021790555092602001926001016020816000010492830192600103026105f4565b801561065e5782816101000a81549060ff0219169055600101602081600001049283019260010302610631565b505b50905061066d91906106b5565b5090565b6040518060600160405280600390602082028038833980820191505090505090565b6040518060600160405280600390602082028038833980820191505090505090565b6106e291905b808211156106de57600081816101000a81549060ff0219169055506001016106bb565b5090565b9056fea265627a7a72315820290c64ae26b124bd1ecc64250b38837c71f53c6c1779d253c36c19a5131eab6464736f6c63430005100032",
  "source": "pragma solidity >= 0.5.15  < 0.6.0;\r\n\r\ncontract MultisigRDA {\r\n    address[3] private participants;\r\n\r\n    enum TransactionType {ReturnDeposit, PayDamages, Migrate}\r\n    struct Transaction {\r\n        uint16 id;\r\n        address owner;\r\n        TransactionType tp;\r\n        address target;\r\n        bool[3] confirmations;\r\n        uint256 value;\r\n    }\r\n    uint16 transactionCounter = 0;\r\n    mapping(uint16 => Transaction) public transactions;\r\n\r\n    function createTransaction(TransactionType tp, address target, uint256 value) public {\r\n        uint16 _id = transactionCounter++;\r\n        bool[3] memory _confirmations;\r\n        for (uint i=0; i<3; i++) {\r\n            if (participants[i] == msg.sender) {\r\n                _confirmations[i] = true;\r\n                break;\r\n            }\r\n        }\r\n\r\n        Transaction memory _tx = Transaction(_id, msg.sender, tp, target, _confirmations, value);\r\n        transactions[_id] = _tx;\r\n    }\r\n\r\n    constructor(address one, address two, address three) public {\r\n        participants = [one, two, three];\r\n    }\r\n\r\n    function getAccs() public view  returns (address[3] memory) {\r\n        return participants;\r\n    }\r\n\r\n}\r\n",
  "sourcePath": "C:\\Users\\Matthias\\Documents\\_uni\\fs2020\\seminar_blockchain\\src\\contracts\\MultisigRDA.sol",
  "compiler": {
    "name": "solc",
    "version": "0.5.16+commit.9c3226ce.Emscripten.clang"
  },
  "schemaVersion": "3.0.23",
  "updatedAt": "2020-03-02T18:25:54.136Z",
  "devdoc": {
    "methods": {}
  },
  "userdoc": {
    "methods": {}
  }
}