{
  "contractName": "SavingDai",
  "abi": [
    {
      "inputs": [],
      "name": "daiJoin",
      "outputs": [
        {
          "internalType": "contract JoinLike",
          "name": "",
          "type": "address"
        }
      ],
      "stateMutability": "view",
      "type": "function"
    },
    {
      "inputs": [],
      "name": "daiToken",
      "outputs": [
        {
          "internalType": "contract GemLike",
          "name": "",
          "type": "address"
        }
      ],
      "stateMutability": "view",
      "type": "function"
    },
    {
      "inputs": [],
      "name": "pot",
      "outputs": [
        {
          "internalType": "contract PotLike",
          "name": "",
          "type": "address"
        }
      ],
      "stateMutability": "view",
      "type": "function"
    },
    {
      "inputs": [],
      "name": "vat",
      "outputs": [
        {
          "internalType": "contract VatLike",
          "name": "",
          "type": "address"
        }
      ],
      "stateMutability": "view",
      "type": "function"
    },
    {
      "inputs": [],
      "name": "dsrBalance",
      "outputs": [
        {
          "internalType": "uint256",
          "name": "",
          "type": "uint256"
        }
      ],
      "stateMutability": "view",
      "type": "function"
    }
  ],
  "bytecode": "0x6080604052600080547411c8d156e1b5fd883e31e9091874f2af80b0277500610100600160a81b0319909116179055600180546001600160a01b03199081167319e602e0dc93749ea7afa0c88f4693d4c02102d317909155600280548216738c4be23de45f82a4fec7a93f69929bd2a13a477717905560038054909116738d68d36d45a34a6ff368069bd0baa32ad49a60921790553480156100a057600080fd5b5061026e806100b06000396000f3fe608060405234801561001057600080fd5b50600436106100575760003560e01c8063357c016a1461005c57806336569e77146100765780634ba2363a1461009a578063be22f546146100a2578063c11645bc146100aa575b600080fd5b6100646100b2565b60408051918252519081900360200190f35b61007e6101cd565b604080516001600160a01b039092168252519081900360200190f35b61007e6101e1565b61007e6101f0565b61007e6101ff565b600154604080516305f5d64360e11b8152306004820152905160009283926001600160a01b0390911691630bebac8691602480820192602092909190829003018186803b15801561010257600080fd5b505afa158015610116573d6000803e3d6000fd5b505050506040513d602081101561012c57600080fd5b50516001546040805163324abb3160e21b815290519293506000926001600160a01b039092169163c92aecc491600480820192602092909190829003018186803b15801561017957600080fd5b505afa15801561018d573d6000803e3d6000fd5b505050506040513d60208110156101a357600080fd5b505190506b033b2e3c9fd0803ce80000006101be838361020e565b816101c557fe5b049250505090565b60005461010090046001600160a01b031681565b6001546001600160a01b031681565b6003546001600160a01b031681565b6002546001600160a01b031681565b60008115806102295750508082028282828161022657fe5b04145b61023257600080fd5b9291505056fea2646970667358221220abe6b23aa9457f598a88cf9f55632640a1d4184295ad0fd9ff353adb87cc4c7764736f6c63430006030033",
  "source": "pragma solidity 0.6.3;\r\n\r\ninterface PotLike {\r\n    function chi() external view returns (uint);\r\n    function rho() external view returns (uint);\r\n    function drip() external returns (uint);\r\n    function join(uint256) external;\r\n    function exit(uint256) external;\r\n    function pie(address) external view returns (uint);\r\n}\r\n\r\ninterface JoinLike {\r\n    function join(address, uint) external;\r\n    function exit(address, uint) external;\r\n}\r\n\r\ninterface VatLike {\r\n    function hope(address) external;\r\n    function dai(address) external view returns (uint);\r\n}\r\n\r\ninterface GemLike {\r\n    function balanceOf(address) external returns (uint);\r\n    function approve(address, uint) external returns (bool);\r\n    function transfer(address, uint) external returns (bool);\r\n}\r\n\r\ncontract SavingDai {\r\n    // --- Storage ---\r\n    bool isDSRAuthorized;\r\n\r\n    // --- MakerDao contracts ---\r\n    VatLike public vat = VatLike(0x11C8d156E1b5FD883E31e9091874F2af80b02775);\r\n    PotLike public pot = PotLike(0x19E602E0dC93749Ea7aFa0C88F4693d4C02102D3);\r\n    JoinLike public daiJoin = JoinLike(0x8C4Be23DE45F82a4feC7a93F69929Bd2A13A4777);\r\n    GemLike public daiToken = GemLike(0x8D68d36D45A34A6Ff368069bD0baa32ad49A6092);\r\n\r\n    // --- Math ---\r\n    uint constant RAY = 10 ** 27;\r\n    function add(uint x, uint y) internal pure returns (uint z) {\r\n        require((z = x + y) >= x);\r\n    }\r\n    function sub(uint x, uint y) internal pure returns (uint z) {\r\n        require((z = x - y) <= x);\r\n    }\r\n    function mul(uint x, uint y) internal pure returns (uint z) {\r\n        require(y == 0 || (z = x * y) / y == x);\r\n    }\r\n    function rdiv(uint x, uint y) internal pure returns (uint z) {\r\n        // always rounds down\r\n        z = mul(x, RAY) / y;\r\n    }\r\n    function rdivup(uint x, uint y) internal pure returns (uint z) {\r\n        // always rounds up\r\n        z = add(mul(x, RAY), sub(y, 1)) / y;\r\n    }\r\n\r\n    // --- Modifiers ---\r\n    modifier dsrAuthorized() {\r\n        require(isDSRAuthorized, 'DSR/not-authorized');\r\n        _;\r\n    }\r\n\r\n    // --- Logic Functions ---\r\n\r\n    /// Needs to be called once before the other functions can be used\r\n    /// uint(-1) is the maximum value for an uint (underflow by 1) -> allowance is set to max\r\n    function dsrAuthorize() internal returns(bool) {\r\n        if (!isDSRAuthorized) {\r\n            vat.hope(address(pot));\r\n            vat.hope(address(daiJoin));\r\n            daiToken.approve(address(daiJoin), uint(-1));\r\n            isDSRAuthorized = true;\r\n        }\r\n        return true;\r\n    }\r\n\r\n    function dsrJoin(uint wad) internal dsrAuthorized returns(bool) {\r\n        uint chi = (now > pot.rho()) ? pot.drip() : pot.chi();\r\n        uint pie = rdiv(wad, chi);\r\n        daiJoin.join(address(this), wad);\r\n        pot.join(pie);\r\n        return true;\r\n    }\r\n\r\n    function dsrExit(uint wad) internal dsrAuthorized returns(bool) {\r\n        uint chi = (now > pot.rho()) ? pot.drip() : pot.chi();\r\n        uint pie = rdivup(wad, chi);\r\n        pot.exit(pie);\r\n        daiJoin.exit(address(this), wad);\r\n        return true;\r\n    }\r\n\r\n    function dsrExitAll() internal dsrAuthorized returns(bool) {\r\n        if (now > pot.rho()) pot.drip();\r\n        pot.exit(pot.pie(address(this)));\r\n        daiJoin.exit(address(this), vat.dai(address(this)) / RAY);\r\n        return true;\r\n    }\r\n\r\n    function dsrBalance() public view returns (uint) {\r\n        uint pie = pot.pie(address(this));\r\n        uint chi = pot.chi();\r\n        return mul(pie, chi) / RAY;\r\n    }\r\n\r\n}\r\n",
  "sourcePath": "C:\\Users\\Matthias\\Documents\\_uni\\fs2020\\seminar_blockchain\\src\\contracts\\SavingDai.sol",
  "compiler": {
    "name": "solc",
    "version": "0.6.3+commit.8dda9521.Emscripten.clang"
  },
  "schemaVersion": "3.0.23",
  "updatedAt": "2020-03-06T13:37:17.583Z",
  "devdoc": {
    "methods": {}
  },
  "userdoc": {
    "methods": {}
  }
}