{
  "contractName": "SavingDai",
  "abi": [
    {
      "inputs": [],
      "name": "daiJoin",
      "outputs": [
        {
          "internalType": "contract JoinLike",
          "name": "",
          "type": "address"
        }
      ],
      "stateMutability": "view",
      "type": "function"
    },
    {
      "inputs": [],
      "name": "daiToken",
      "outputs": [
        {
          "internalType": "contract GemLike",
          "name": "",
          "type": "address"
        }
      ],
      "stateMutability": "view",
      "type": "function"
    },
    {
      "inputs": [],
      "name": "pot",
      "outputs": [
        {
          "internalType": "contract PotLike",
          "name": "",
          "type": "address"
        }
      ],
      "stateMutability": "view",
      "type": "function"
    },
    {
      "inputs": [],
      "name": "vat",
      "outputs": [
        {
          "internalType": "contract VatLike",
          "name": "",
          "type": "address"
        }
      ],
      "stateMutability": "view",
      "type": "function"
    },
    {
      "inputs": [],
      "name": "dsrBalance",
      "outputs": [
        {
          "internalType": "uint256",
          "name": "",
          "type": "uint256"
        }
      ],
      "stateMutability": "view",
      "type": "function"
    }
  ],
  "bytecode": "0x60806040527311c8d156e1b5fd883e31e9091874f2af80b02775600060016101000a81548173ffffffffffffffffffffffffffffffffffffffff021916908373ffffffffffffffffffffffffffffffffffffffff1602179055507319e602e0dc93749ea7afa0c88f4693d4c02102d3600160006101000a81548173ffffffffffffffffffffffffffffffffffffffff021916908373ffffffffffffffffffffffffffffffffffffffff160217905550738c4be23de45f82a4fec7a93f69929bd2a13a4777600260006101000a81548173ffffffffffffffffffffffffffffffffffffffff021916908373ffffffffffffffffffffffffffffffffffffffff160217905550738d68d36d45a34a6ff368069bd0baa32ad49a6092600360006101000a81548173ffffffffffffffffffffffffffffffffffffffff021916908373ffffffffffffffffffffffffffffffffffffffff16021790555034801561016457600080fd5b50610448806101746000396000f3fe608060405234801561001057600080fd5b50600436106100575760003560e01c8063357c016a1461005c57806336569e771461007a5780634ba2363a146100c4578063be22f5461461010e578063c11645bc14610158575b600080fd5b6100646101a2565b6040518082815260200191505060405180910390f35b61008261034e565b604051808273ffffffffffffffffffffffffffffffffffffffff1673ffffffffffffffffffffffffffffffffffffffff16815260200191505060405180910390f35b6100cc610374565b604051808273ffffffffffffffffffffffffffffffffffffffff1673ffffffffffffffffffffffffffffffffffffffff16815260200191505060405180910390f35b61011661039a565b604051808273ffffffffffffffffffffffffffffffffffffffff1673ffffffffffffffffffffffffffffffffffffffff16815260200191505060405180910390f35b6101606103c0565b604051808273ffffffffffffffffffffffffffffffffffffffff1673ffffffffffffffffffffffffffffffffffffffff16815260200191505060405180910390f35b600080600160009054906101000a900473ffffffffffffffffffffffffffffffffffffffff1673ffffffffffffffffffffffffffffffffffffffff16630bebac86306040518263ffffffff1660e01b8152600401808273ffffffffffffffffffffffffffffffffffffffff1673ffffffffffffffffffffffffffffffffffffffff16815260200191505060206040518083038186803b15801561024457600080fd5b505afa158015610258573d6000803e3d6000fd5b505050506040513d602081101561026e57600080fd5b810190808051906020019092919050505090506000600160009054906101000a900473ffffffffffffffffffffffffffffffffffffffff1673ffffffffffffffffffffffffffffffffffffffff1663c92aecc46040518163ffffffff1660e01b815260040160206040518083038186803b1580156102eb57600080fd5b505afa1580156102ff573d6000803e3d6000fd5b505050506040513d602081101561031557600080fd5b810190808051906020019092919050505090506b033b2e3c9fd0803ce800000061033f83836103e6565b8161034657fe5b049250505090565b600060019054906101000a900473ffffffffffffffffffffffffffffffffffffffff1681565b600160009054906101000a900473ffffffffffffffffffffffffffffffffffffffff1681565b600360009054906101000a900473ffffffffffffffffffffffffffffffffffffffff1681565b600260009054906101000a900473ffffffffffffffffffffffffffffffffffffffff1681565b600080821480610403575082828385029250828161040057fe5b04145b61040c57600080fd5b9291505056fea26469706673582212202f460ddd9e97663ae29b21b4c5f099694e860abffefdd697cbb2f301e6f5ab2a64736f6c63430006030033",
  "source": "pragma solidity 0.6.3;\r\n\r\ninterface PotLike {\r\n    function chi() external view returns (uint);\r\n    function rho() external view returns (uint);\r\n    function drip() external returns (uint);\r\n    function join(uint256) external;\r\n    function exit(uint256) external;\r\n    function pie(address) external view returns (uint);\r\n}\r\n\r\ninterface JoinLike {\r\n    function join(address, uint) external;\r\n    function exit(address, uint) external;\r\n}\r\n\r\ninterface VatLike {\r\n    function hope(address) external;\r\n    function dai(address) external view returns (uint);\r\n}\r\n\r\ninterface GemLike {\r\n    function balanceOf(address) external returns (uint);\r\n    function approve(address, uint) external returns (bool);\r\n    function transfer(address, uint) external returns (bool);\r\n}\r\n\r\ncontract SavingDai {\r\n    // --- Storage ---\r\n    bool isDSRAuthorized;\r\n\r\n    // --- MakerDao contracts ---\r\n    VatLike public vat = VatLike(0x11C8d156E1b5FD883E31e9091874F2af80b02775);\r\n    PotLike public pot = PotLike(0x19E602E0dC93749Ea7aFa0C88F4693d4C02102D3);\r\n    JoinLike public daiJoin = JoinLike(0x8C4Be23DE45F82a4feC7a93F69929Bd2A13A4777);\r\n    GemLike public daiToken = GemLike(0x8D68d36D45A34A6Ff368069bD0baa32ad49A6092);\r\n\r\n    // --- Math ---\r\n    uint constant RAY = 10 ** 27;\r\n    function add(uint x, uint y) internal pure returns (uint z) {\r\n        require((z = x + y) >= x);\r\n    }\r\n    function sub(uint x, uint y) internal pure returns (uint z) {\r\n        require((z = x - y) <= x);\r\n    }\r\n    function mul(uint x, uint y) internal pure returns (uint z) {\r\n        require(y == 0 || (z = x * y) / y == x);\r\n    }\r\n    function rdiv(uint x, uint y) internal pure returns (uint z) {\r\n        // always rounds down\r\n        z = mul(x, RAY) / y;\r\n    }\r\n    function rdivup(uint x, uint y) internal pure returns (uint z) {\r\n        // always rounds up\r\n        z = add(mul(x, RAY), sub(y, 1)) / y;\r\n    }\r\n\r\n    // --- Modifiers ---\r\n    modifier dsrAuthorized() {\r\n        require(isDSRAuthorized, 'DSR/not-authorized');\r\n        _;\r\n    }\r\n\r\n    // --- Logic Functions ---\r\n\r\n    /// Needs to be called once before the other functions can be used\r\n    /// uint(-1) is the maximum value for an uint (underflow by 1) -> allowance is set to max\r\n    function dsrAuthorize() internal returns(bool) {\r\n        if (!isDSRAuthorized) {\r\n            vat.hope(address(pot));\r\n            vat.hope(address(daiJoin));\r\n            daiToken.approve(address(daiJoin), uint(-1));\r\n            isDSRAuthorized = true;\r\n        }\r\n        return true;\r\n    }\r\n\r\n    function dsrJoin(uint wad) internal dsrAuthorized returns(bool) {\r\n        uint chi = (now > pot.rho()) ? pot.drip() : pot.chi();\r\n        uint pie = rdiv(wad, chi);\r\n        daiJoin.join(address(this), wad);\r\n        pot.join(pie);\r\n        return true;\r\n    }\r\n\r\n    function dsrExit(uint wad) internal dsrAuthorized returns(bool) {\r\n        uint chi = (now > pot.rho()) ? pot.drip() : pot.chi();\r\n        uint pie = rdivup(wad, chi);\r\n        pot.exit(pie);\r\n        daiJoin.exit(address(this), wad);\r\n        return true;\r\n    }\r\n\r\n    function dsrExitAll() internal dsrAuthorized returns(bool) {\r\n        if (now > pot.rho()) pot.drip();\r\n        pot.exit(pot.pie(address(this)));\r\n        daiJoin.exit(address(this), vat.dai(address(this)) / RAY);\r\n        return true;\r\n    }\r\n\r\n    function dsrBalance() public view returns (uint) {\r\n        uint pie = pot.pie(address(this));\r\n        uint chi = pot.chi();\r\n        return mul(pie, chi) / RAY;\r\n    }\r\n\r\n}\r\n",
  "sourcePath": "C:\\Users\\Labor\\WebstormProjects\\rental-deposit-account\\src\\contracts\\SavingDai.sol",
  "compiler": {
    "name": "solc",
    "version": "0.6.3+commit.8dda9521.Emscripten.clang"
  },
  "schemaVersion": "3.0.23",
  "updatedAt": "2020-03-12T16:56:22.230Z",
  "devdoc": {
    "methods": {}
  },
  "userdoc": {
    "methods": {}
  }
}