{
  "contractName": "TestWrapperSavingDai",
  "abi": [
    {
      "inputs": [
        {
          "internalType": "uint256",
          "name": "wad",
          "type": "uint256"
        }
      ],
      "name": "join_",
      "outputs": [],
      "stateMutability": "nonpayable",
      "type": "function"
    },
    {
      "inputs": [
        {
          "internalType": "uint256",
          "name": "wad",
          "type": "uint256"
        }
      ],
      "name": "exit_",
      "outputs": [],
      "stateMutability": "nonpayable",
      "type": "function"
    },
    {
      "inputs": [],
      "name": "exitAll_",
      "outputs": [],
      "stateMutability": "nonpayable",
      "type": "function"
    }
  ],
  "bytecode": "0x60806040527311c8d156e1b5fd883e31e9091874f2af80b02775600060016101000a81548173ffffffffffffffffffffffffffffffffffffffff021916908373ffffffffffffffffffffffffffffffffffffffff1602179055507319e602e0dc93749ea7afa0c88f4693d4c02102d3600160006101000a81548173ffffffffffffffffffffffffffffffffffffffff021916908373ffffffffffffffffffffffffffffffffffffffff160217905550738c4be23de45f82a4fec7a93f69929bd2a13a4777600260006101000a81548173ffffffffffffffffffffffffffffffffffffffff021916908373ffffffffffffffffffffffffffffffffffffffff160217905550738d68d36d45a34a6ff368069bd0baa32ad49a6092600360006101000a81548173ffffffffffffffffffffffffffffffffffffffff021916908373ffffffffffffffffffffffffffffffffffffffff16021790555034801561016457600080fd5b50610e76806101746000396000f3fe608060405234801561001057600080fd5b50600436106100415760003560e01c8063146554ca1461004657806350d1d22714610074578063faa3de93146100a2575b600080fd5b6100726004803603602081101561005c57600080fd5b81019080803590602001909291905050506100ac565b005b6100a06004803603602081101561008a57600080fd5b81019080803590602001909291905050506100b8565b005b6100aa6100c4565b005b6100b5816100ce565b50565b6100c1816104af565b50565b6100cc610890565b565b6000809054906101000a900460ff1661014f576040517f08c379a00000000000000000000000000000000000000000000000000000000081526004018080602001828103825260128152602001807f4453522f6e6f742d617574686f72697a6564000000000000000000000000000081525060200191505060405180910390fd5b6000600160009054906101000a900473ffffffffffffffffffffffffffffffffffffffff1673ffffffffffffffffffffffffffffffffffffffff166320aba08b6040518163ffffffff1660e01b8152600401602060405180830381600087803b1580156101bb57600080fd5b505af11580156101cf573d6000803e3d6000fd5b505050506040513d60208110156101e557600080fd5b810190808051906020019092919050505042116102a657600160009054906101000a900473ffffffffffffffffffffffffffffffffffffffff1673ffffffffffffffffffffffffffffffffffffffff1663c92aecc46040518163ffffffff1660e01b8152600401602060405180830381600087803b15801561026657600080fd5b505af115801561027a573d6000803e3d6000fd5b505050506040513d602081101561029057600080fd5b810190808051906020019092919050505061034c565b600160009054906101000a900473ffffffffffffffffffffffffffffffffffffffff1673ffffffffffffffffffffffffffffffffffffffff16639f678cca6040518163ffffffff1660e01b8152600401602060405180830381600087803b15801561031057600080fd5b505af1158015610324573d6000803e3d6000fd5b505050506040513d602081101561033a57600080fd5b81019080805190602001909291905050505b9050600061035a8383610d7b565b9050600160009054906101000a900473ffffffffffffffffffffffffffffffffffffffff1673ffffffffffffffffffffffffffffffffffffffff16637f8661a1826040518263ffffffff1660e01b815260040180828152602001915050600060405180830381600087803b1580156103d157600080fd5b505af11580156103e5573d6000803e3d6000fd5b50505050600260009054906101000a900473ffffffffffffffffffffffffffffffffffffffff1673ffffffffffffffffffffffffffffffffffffffff1663ef693bed30856040518363ffffffff1660e01b8152600401808373ffffffffffffffffffffffffffffffffffffffff1673ffffffffffffffffffffffffffffffffffffffff16815260200182815260200192505050600060405180830381600087803b15801561049257600080fd5b505af11580156104a6573d6000803e3d6000fd5b50505050505050565b6000809054906101000a900460ff16610530576040517f08c379a00000000000000000000000000000000000000000000000000000000081526004018080602001828103825260128152602001807f4453522f6e6f742d617574686f72697a6564000000000000000000000000000081525060200191505060405180910390fd5b6000600160009054906101000a900473ffffffffffffffffffffffffffffffffffffffff1673ffffffffffffffffffffffffffffffffffffffff166320aba08b6040518163ffffffff1660e01b8152600401602060405180830381600087803b15801561059c57600080fd5b505af11580156105b0573d6000803e3d6000fd5b505050506040513d60208110156105c657600080fd5b8101908080519060200190929190505050421161068757600160009054906101000a900473ffffffffffffffffffffffffffffffffffffffff1673ffffffffffffffffffffffffffffffffffffffff1663c92aecc46040518163ffffffff1660e01b8152600401602060405180830381600087803b15801561064757600080fd5b505af115801561065b573d6000803e3d6000fd5b505050506040513d602081101561067157600080fd5b810190808051906020019092919050505061072d565b600160009054906101000a900473ffffffffffffffffffffffffffffffffffffffff1673ffffffffffffffffffffffffffffffffffffffff16639f678cca6040518163ffffffff1660e01b8152600401602060405180830381600087803b1580156106f157600080fd5b505af1158015610705573d6000803e3d6000fd5b505050506040513d602081101561071b57600080fd5b81019080805190602001909291905050505b9050600061073b8383610db7565b9050600260009054906101000a900473ffffffffffffffffffffffffffffffffffffffff1673ffffffffffffffffffffffffffffffffffffffff16633b4da69f30856040518363ffffffff1660e01b8152600401808373ffffffffffffffffffffffffffffffffffffffff1673ffffffffffffffffffffffffffffffffffffffff16815260200182815260200192505050600060405180830381600087803b1580156107e657600080fd5b505af11580156107fa573d6000803e3d6000fd5b50505050600160009054906101000a900473ffffffffffffffffffffffffffffffffffffffff1673ffffffffffffffffffffffffffffffffffffffff1663049878f3826040518263ffffffff1660e01b815260040180828152602001915050600060405180830381600087803b15801561087357600080fd5b505af1158015610887573d6000803e3d6000fd5b50505050505050565b6000809054906101000a900460ff16610911576040517f08c379a00000000000000000000000000000000000000000000000000000000081526004018080602001828103825260128152602001807f4453522f6e6f742d617574686f72697a6564000000000000000000000000000081525060200191505060405180910390fd5b600160009054906101000a900473ffffffffffffffffffffffffffffffffffffffff1673ffffffffffffffffffffffffffffffffffffffff166320aba08b6040518163ffffffff1660e01b8152600401602060405180830381600087803b15801561097b57600080fd5b505af115801561098f573d6000803e3d6000fd5b505050506040513d60208110156109a557600080fd5b8101908080519060200190929190505050421115610a6457600160009054906101000a900473ffffffffffffffffffffffffffffffffffffffff1673ffffffffffffffffffffffffffffffffffffffff16639f678cca6040518163ffffffff1660e01b8152600401602060405180830381600087803b158015610a2757600080fd5b505af1158015610a3b573d6000803e3d6000fd5b505050506040513d6020811015610a5157600080fd5b8101908080519060200190929190505050505b600160009054906101000a900473ffffffffffffffffffffffffffffffffffffffff1673ffffffffffffffffffffffffffffffffffffffff16637f8661a1600160009054906101000a900473ffffffffffffffffffffffffffffffffffffffff1673ffffffffffffffffffffffffffffffffffffffff16630bebac86306040518263ffffffff1660e01b8152600401808273ffffffffffffffffffffffffffffffffffffffff1673ffffffffffffffffffffffffffffffffffffffff16815260200191505060206040518083038186803b158015610b4157600080fd5b505afa158015610b55573d6000803e3d6000fd5b505050506040513d6020811015610b6b57600080fd5b81019080805190602001909291905050506040518263ffffffff1660e01b815260040180828152602001915050600060405180830381600087803b158015610bb257600080fd5b505af1158015610bc6573d6000803e3d6000fd5b50505050600260009054906101000a900473ffffffffffffffffffffffffffffffffffffffff1673ffffffffffffffffffffffffffffffffffffffff1663ef693bed306b033b2e3c9fd0803ce8000000600060019054906101000a900473ffffffffffffffffffffffffffffffffffffffff1673ffffffffffffffffffffffffffffffffffffffff16636c25b346306040518263ffffffff1660e01b8152600401808273ffffffffffffffffffffffffffffffffffffffff1673ffffffffffffffffffffffffffffffffffffffff16815260200191505060206040518083038186803b158015610cb557600080fd5b505afa158015610cc9573d6000803e3d6000fd5b505050506040513d6020811015610cdf57600080fd5b810190808051906020019092919050505081610cf757fe5b046040518363ffffffff1660e01b8152600401808373ffffffffffffffffffffffffffffffffffffffff1673ffffffffffffffffffffffffffffffffffffffff16815260200182815260200192505050600060405180830381600087803b158015610d6157600080fd5b505af1158015610d75573d6000803e3d6000fd5b50505050565b600081610da7610d97856b033b2e3c9fd0803ce8000000610de0565b610da2856001610e0c565b610e26565b81610dae57fe5b04905092915050565b600081610dd0846b033b2e3c9fd0803ce8000000610de0565b81610dd757fe5b04905092915050565b600080821480610dfd5750828283850292508281610dfa57fe5b04145b610e0657600080fd5b92915050565b6000828284039150811115610e2057600080fd5b92915050565b6000828284019150811015610e3a57600080fd5b9291505056fea264697066735822122070c4a769c07a4a1b64c7d8e1216fdb919bceae6a12de688e02c920986726b9c964736f6c63430006030033",
  "source": "pragma solidity 0.6.3;\r\n\r\nimport \"./SavingDai.sol\";\r\n\r\n// Wrapper to test the internal functions of the SavingDai contract\r\ncontract TestWrapperSavingDai is SavingDai {\r\n    function join_(uint wad) external {\r\n        join(wad);\r\n    }\r\n\r\n    function exit_(uint wad) external {\r\n        exit(wad);\r\n    }\r\n\r\n    function exitAll_() external {\r\n        exitAll();\r\n    }\r\n}\r\n",
  "sourcePath": "C:\\Users\\Matthias\\Documents\\_uni\\fs2020\\seminar_blockchain\\src\\contracts\\TestWrapperSavingDai.sol",
  "compiler": {
    "name": "solc",
    "version": "0.6.3+commit.8dda9521.Emscripten.clang"
  },
  "schemaVersion": "3.0.23",
  "updatedAt": "2020-03-04T10:01:56.210Z",
  "devdoc": {
    "methods": {}
  },
  "userdoc": {
    "methods": {}
  }
}